{
	"contracts/ERC721.sol": {
		"ERC721": {
			"abi": [
				{
					"inputs": [
						{
							"internalType": "string",
							"name": "_name",
							"type": "string"
						},
						{
							"internalType": "string",
							"name": "_symbol",
							"type": "string"
						},
						{
							"internalType": "uint256",
							"name": "MINT_PRICE",
							"type": "uint256"
						},
						{
							"internalType": "uint256",
							"name": "MAX_SUPPLY",
							"type": "uint256"
						}
					],
					"stateMutability": "nonpayable",
					"type": "constructor"
				},
				{
					"anonymous": false,
					"inputs": [
						{
							"indexed": true,
							"internalType": "address",
							"name": "owner",
							"type": "address"
						},
						{
							"indexed": true,
							"internalType": "address",
							"name": "spender",
							"type": "address"
						},
						{
							"indexed": true,
							"internalType": "uint256",
							"name": "id",
							"type": "uint256"
						}
					],
					"name": "Approval",
					"type": "event"
				},
				{
					"anonymous": false,
					"inputs": [
						{
							"indexed": true,
							"internalType": "address",
							"name": "owner",
							"type": "address"
						},
						{
							"indexed": true,
							"internalType": "address",
							"name": "operator",
							"type": "address"
						},
						{
							"indexed": false,
							"internalType": "bool",
							"name": "approved",
							"type": "bool"
						}
					],
					"name": "ApprovalForAll",
					"type": "event"
				},
				{
					"anonymous": false,
					"inputs": [
						{
							"indexed": true,
							"internalType": "address",
							"name": "from",
							"type": "address"
						},
						{
							"indexed": true,
							"internalType": "address",
							"name": "to",
							"type": "address"
						},
						{
							"indexed": true,
							"internalType": "uint256",
							"name": "id",
							"type": "uint256"
						}
					],
					"name": "Transfer",
					"type": "event"
				},
				{
					"inputs": [
						{
							"internalType": "address",
							"name": "spender",
							"type": "address"
						},
						{
							"internalType": "uint256",
							"name": "id",
							"type": "uint256"
						}
					],
					"name": "approve",
					"outputs": [],
					"stateMutability": "nonpayable",
					"type": "function"
				},
				{
					"inputs": [
						{
							"internalType": "address",
							"name": "owner",
							"type": "address"
						}
					],
					"name": "balanceOf",
					"outputs": [
						{
							"internalType": "uint256",
							"name": "",
							"type": "uint256"
						}
					],
					"stateMutability": "view",
					"type": "function"
				},
				{
					"inputs": [
						{
							"internalType": "address",
							"name": "",
							"type": "address"
						},
						{
							"internalType": "address",
							"name": "",
							"type": "address"
						}
					],
					"name": "isApprovedForAll",
					"outputs": [
						{
							"internalType": "bool",
							"name": "",
							"type": "bool"
						}
					],
					"stateMutability": "view",
					"type": "function"
				},
				{
					"inputs": [],
					"name": "max_supply",
					"outputs": [
						{
							"internalType": "uint256",
							"name": "",
							"type": "uint256"
						}
					],
					"stateMutability": "view",
					"type": "function"
				},
				{
					"inputs": [
						{
							"internalType": "address",
							"name": "to",
							"type": "address"
						}
					],
					"name": "mint",
					"outputs": [],
					"stateMutability": "payable",
					"type": "function"
				},
				{
					"inputs": [],
					"name": "mint_price",
					"outputs": [
						{
							"internalType": "uint256",
							"name": "",
							"type": "uint256"
						}
					],
					"stateMutability": "view",
					"type": "function"
				},
				{
					"inputs": [],
					"name": "name",
					"outputs": [
						{
							"internalType": "string",
							"name": "",
							"type": "string"
						}
					],
					"stateMutability": "view",
					"type": "function"
				},
				{
					"inputs": [
						{
							"internalType": "uint256",
							"name": "id",
							"type": "uint256"
						}
					],
					"name": "ownerOf",
					"outputs": [
						{
							"internalType": "address",
							"name": "owner",
							"type": "address"
						}
					],
					"stateMutability": "view",
					"type": "function"
				},
				{
					"inputs": [
						{
							"internalType": "address",
							"name": "operator",
							"type": "address"
						},
						{
							"internalType": "bool",
							"name": "approved",
							"type": "bool"
						}
					],
					"name": "setApprovalForAll",
					"outputs": [],
					"stateMutability": "nonpayable",
					"type": "function"
				},
				{
					"inputs": [],
					"name": "symbol",
					"outputs": [
						{
							"internalType": "string",
							"name": "",
							"type": "string"
						}
					],
					"stateMutability": "view",
					"type": "function"
				},
				{
					"inputs": [
						{
							"internalType": "address",
							"name": "from",
							"type": "address"
						},
						{
							"internalType": "address",
							"name": "to",
							"type": "address"
						},
						{
							"internalType": "uint256",
							"name": "id",
							"type": "uint256"
						}
					],
					"name": "transferFrom",
					"outputs": [],
					"stateMutability": "nonpayable",
					"type": "function"
				}
			],
			"devdoc": {
				"kind": "dev",
				"methods": {},
				"version": 1
			},
			"evm": {
				"assembly": "    /* \"contracts/ERC721.sol\":1154:4178  contract ERC721 {... */\n  mstore(0x40, 0x80)\n    /* \"contracts/ERC721.sol\":1893:2115  constructor(string memory _name, string memory _symbol, uint256 MINT_PRICE, uint256 MAX_SUPPLY) {... */\n  callvalue\n  dup1\n  iszero\n  tag_1\n  jumpi\n  0x00\n  dup1\n  revert\ntag_1:\n  pop\n  mload(0x40)\n  sub(codesize, bytecodeSize)\n  dup1\n  bytecodeSize\n  dup4\n  codecopy\n  dup2\n  dup2\n  add\n  0x40\n  mstore\n  dup2\n  add\n  swap1\n  tag_2\n  swap2\n  swap1\n  tag_3\n  jump\t// in\ntag_2:\n    /* \"contracts/ERC721.sol\":2007:2012  _name */\n  dup4\n    /* \"contracts/ERC721.sol\":2000:2004  name */\n  0x00\n    /* \"contracts/ERC721.sol\":2000:2012  name = _name */\n  swap1\n  dup2\n  tag_6\n  swap2\n  swap1\n  tag_7\n  jump\t// in\ntag_6:\n  pop\n    /* \"contracts/ERC721.sol\":2032:2039  _symbol */\n  dup3\n    /* \"contracts/ERC721.sol\":2023:2029  symbol */\n  0x01\n    /* \"contracts/ERC721.sol\":2023:2039  symbol = _symbol */\n  swap1\n  dup2\n  tag_8\n  swap2\n  swap1\n  tag_7\n  jump\t// in\ntag_8:\n  pop\n    /* \"contracts/ERC721.sol\":2063:2073  MINT_PRICE */\n  dup2\n    /* \"contracts/ERC721.sol\":2050:2060  mint_price */\n  0x02\n    /* \"contracts/ERC721.sol\":2050:2073  mint_price = MINT_PRICE */\n  dup2\n  swap1\n  sstore\n  pop\n    /* \"contracts/ERC721.sol\":2097:2107  MAX_SUPPLY */\n  dup1\n    /* \"contracts/ERC721.sol\":2084:2094  max_supply */\n  0x03\n    /* \"contracts/ERC721.sol\":2084:2107  max_supply = MAX_SUPPLY */\n  dup2\n  swap1\n  sstore\n  pop\n    /* \"contracts/ERC721.sol\":1893:2115  constructor(string memory _name, string memory _symbol, uint256 MINT_PRICE, uint256 MAX_SUPPLY) {... */\n  pop\n  pop\n  pop\n  pop\n    /* \"contracts/ERC721.sol\":1154:4178  contract ERC721 {... */\n  jump(tag_9)\n    /* \"#utility.yul\":7:82   */\ntag_10:\n    /* \"#utility.yul\":40:46   */\n  0x00\n    /* \"#utility.yul\":73:75   */\n  0x40\n    /* \"#utility.yul\":67:76   */\n  mload\n    /* \"#utility.yul\":57:76   */\n  swap1\n  pop\n    /* \"#utility.yul\":7:82   */\n  swap1\n  jump\t// out\n    /* \"#utility.yul\":88:205   */\ntag_11:\n    /* \"#utility.yul\":197:198   */\n  0x00\n    /* \"#utility.yul\":194:195   */\n  dup1\n    /* \"#utility.yul\":187:199   */\n  revert\n    /* \"#utility.yul\":211:328   */\ntag_12:\n    /* \"#utility.yul\":320:321   */\n  0x00\n    /* \"#utility.yul\":317:318   */\n  dup1\n    /* \"#utility.yul\":310:322   */\n  revert\n    /* \"#utility.yul\":334:451   */\ntag_13:\n    /* \"#utility.yul\":443:444   */\n  0x00\n    /* \"#utility.yul\":440:441   */\n  dup1\n    /* \"#utility.yul\":433:445   */\n  revert\n    /* \"#utility.yul\":457:574   */\ntag_14:\n    /* \"#utility.yul\":566:567   */\n  0x00\n    /* \"#utility.yul\":563:564   */\n  dup1\n    /* \"#utility.yul\":556:568   */\n  revert\n    /* \"#utility.yul\":580:682   */\ntag_15:\n    /* \"#utility.yul\":621:627   */\n  0x00\n    /* \"#utility.yul\":672:674   */\n  0x1f\n    /* \"#utility.yul\":668:675   */\n  not\n    /* \"#utility.yul\":663:665   */\n  0x1f\n    /* \"#utility.yul\":656:661   */\n  dup4\n    /* \"#utility.yul\":652:666   */\n  add\n    /* \"#utility.yul\":648:676   */\n  and\n    /* \"#utility.yul\":638:676   */\n  swap1\n  pop\n    /* \"#utility.yul\":580:682   */\n  swap2\n  swap1\n  pop\n  jump\t// out\n    /* \"#utility.yul\":688:868   */\ntag_16:\n    /* \"#utility.yul\":736:813   */\n  0x4e487b7100000000000000000000000000000000000000000000000000000000\n    /* \"#utility.yul\":733:734   */\n  0x00\n    /* \"#utility.yul\":726:814   */\n  mstore\n    /* \"#utility.yul\":833:837   */\n  0x41\n    /* \"#utility.yul\":830:831   */\n  0x04\n    /* \"#utility.yul\":823:838   */\n  mstore\n    /* \"#utility.yul\":857:861   */\n  0x24\n    /* \"#utility.yul\":854:855   */\n  0x00\n    /* \"#utility.yul\":847:862   */\n  revert\n    /* \"#utility.yul\":874:1155   */\ntag_17:\n    /* \"#utility.yul\":957:984   */\n  tag_53\n    /* \"#utility.yul\":979:983   */\n  dup3\n    /* \"#utility.yul\":957:984   */\n  tag_15\n  jump\t// in\ntag_53:\n    /* \"#utility.yul\":949:955   */\n  dup2\n    /* \"#utility.yul\":945:985   */\n  add\n    /* \"#utility.yul\":1087:1093   */\n  dup2\n    /* \"#utility.yul\":1075:1085   */\n  dup2\n    /* \"#utility.yul\":1072:1094   */\n  lt\n    /* \"#utility.yul\":1051:1069   */\n  0xffffffffffffffff\n    /* \"#utility.yul\":1039:1049   */\n  dup3\n    /* \"#utility.yul\":1036:1070   */\n  gt\n    /* \"#utility.yul\":1033:1095   */\n  or\n    /* \"#utility.yul\":1030:1118   */\n  iszero\n  tag_54\n  jumpi\n    /* \"#utility.yul\":1098:1116   */\n  tag_55\n  tag_16\n  jump\t// in\ntag_55:\n    /* \"#utility.yul\":1030:1118   */\ntag_54:\n    /* \"#utility.yul\":1138:1148   */\n  dup1\n    /* \"#utility.yul\":1134:1136   */\n  0x40\n    /* \"#utility.yul\":1127:1149   */\n  mstore\n    /* \"#utility.yul\":917:1155   */\n  pop\n    /* \"#utility.yul\":874:1155   */\n  pop\n  pop\n  jump\t// out\n    /* \"#utility.yul\":1161:1290   */\ntag_18:\n    /* \"#utility.yul\":1195:1201   */\n  0x00\n    /* \"#utility.yul\":1222:1242   */\n  tag_57\n  tag_10\n  jump\t// in\ntag_57:\n    /* \"#utility.yul\":1212:1242   */\n  swap1\n  pop\n    /* \"#utility.yul\":1251:1284   */\n  tag_58\n    /* \"#utility.yul\":1279:1283   */\n  dup3\n    /* \"#utility.yul\":1271:1277   */\n  dup3\n    /* \"#utility.yul\":1251:1284   */\n  tag_17\n  jump\t// in\ntag_58:\n    /* \"#utility.yul\":1161:1290   */\n  swap2\n  swap1\n  pop\n  jump\t// out\n    /* \"#utility.yul\":1296:1604   */\ntag_19:\n    /* \"#utility.yul\":1358:1362   */\n  0x00\n    /* \"#utility.yul\":1448:1466   */\n  0xffffffffffffffff\n    /* \"#utility.yul\":1440:1446   */\n  dup3\n    /* \"#utility.yul\":1437:1467   */\n  gt\n    /* \"#utility.yul\":1434:1490   */\n  iszero\n  tag_60\n  jumpi\n    /* \"#utility.yul\":1470:1488   */\n  tag_61\n  tag_16\n  jump\t// in\ntag_61:\n    /* \"#utility.yul\":1434:1490   */\ntag_60:\n    /* \"#utility.yul\":1508:1537   */\n  tag_62\n    /* \"#utility.yul\":1530:1536   */\n  dup3\n    /* \"#utility.yul\":1508:1537   */\n  tag_15\n  jump\t// in\ntag_62:\n    /* \"#utility.yul\":1500:1537   */\n  swap1\n  pop\n    /* \"#utility.yul\":1592:1596   */\n  0x20\n    /* \"#utility.yul\":1586:1590   */\n  dup2\n    /* \"#utility.yul\":1582:1597   */\n  add\n    /* \"#utility.yul\":1574:1597   */\n  swap1\n  pop\n    /* \"#utility.yul\":1296:1604   */\n  swap2\n  swap1\n  pop\n  jump\t// out\n    /* \"#utility.yul\":1610:1856   */\ntag_20:\n    /* \"#utility.yul\":1691:1692   */\n  0x00\n    /* \"#utility.yul\":1701:1814   */\ntag_64:\n    /* \"#utility.yul\":1715:1721   */\n  dup4\n    /* \"#utility.yul\":1712:1713   */\n  dup2\n    /* \"#utility.yul\":1709:1722   */\n  lt\n    /* \"#utility.yul\":1701:1814   */\n  iszero\n  tag_66\n  jumpi\n    /* \"#utility.yul\":1800:1801   */\n  dup1\n    /* \"#utility.yul\":1795:1798   */\n  dup3\n    /* \"#utility.yul\":1791:1802   */\n  add\n    /* \"#utility.yul\":1785:1803   */\n  mload\n    /* \"#utility.yul\":1781:1782   */\n  dup2\n    /* \"#utility.yul\":1776:1779   */\n  dup5\n    /* \"#utility.yul\":1772:1783   */\n  add\n    /* \"#utility.yul\":1765:1804   */\n  mstore\n    /* \"#utility.yul\":1737:1739   */\n  0x20\n    /* \"#utility.yul\":1734:1735   */\n  dup2\n    /* \"#utility.yul\":1730:1740   */\n  add\n    /* \"#utility.yul\":1725:1740   */\n  swap1\n  pop\n    /* \"#utility.yul\":1701:1814   */\n  jump(tag_64)\ntag_66:\n    /* \"#utility.yul\":1848:1849   */\n  0x00\n    /* \"#utility.yul\":1839:1845   */\n  dup5\n    /* \"#utility.yul\":1834:1837   */\n  dup5\n    /* \"#utility.yul\":1830:1846   */\n  add\n    /* \"#utility.yul\":1823:1850   */\n  mstore\n    /* \"#utility.yul\":1672:1856   */\n  pop\n    /* \"#utility.yul\":1610:1856   */\n  pop\n  pop\n  pop\n  jump\t// out\n    /* \"#utility.yul\":1862:2296   */\ntag_21:\n    /* \"#utility.yul\":1951:1956   */\n  0x00\n    /* \"#utility.yul\":1976:2042   */\n  tag_68\n    /* \"#utility.yul\":1992:2041   */\n  tag_69\n    /* \"#utility.yul\":2034:2040   */\n  dup5\n    /* \"#utility.yul\":1992:2041   */\n  tag_19\n  jump\t// in\ntag_69:\n    /* \"#utility.yul\":1976:2042   */\n  tag_18\n  jump\t// in\ntag_68:\n    /* \"#utility.yul\":1967:2042   */\n  swap1\n  pop\n    /* \"#utility.yul\":2065:2071   */\n  dup3\n    /* \"#utility.yul\":2058:2063   */\n  dup2\n    /* \"#utility.yul\":2051:2072   */\n  mstore\n    /* \"#utility.yul\":2103:2107   */\n  0x20\n    /* \"#utility.yul\":2096:2101   */\n  dup2\n    /* \"#utility.yul\":2092:2108   */\n  add\n    /* \"#utility.yul\":2141:2144   */\n  dup5\n    /* \"#utility.yul\":2132:2138   */\n  dup5\n    /* \"#utility.yul\":2127:2130   */\n  dup5\n    /* \"#utility.yul\":2123:2139   */\n  add\n    /* \"#utility.yul\":2120:2145   */\n  gt\n    /* \"#utility.yul\":2117:2229   */\n  iszero\n  tag_70\n  jumpi\n    /* \"#utility.yul\":2148:2227   */\n  tag_71\n  tag_14\n  jump\t// in\ntag_71:\n    /* \"#utility.yul\":2117:2229   */\ntag_70:\n    /* \"#utility.yul\":2238:2290   */\n  tag_72\n    /* \"#utility.yul\":2283:2289   */\n  dup5\n    /* \"#utility.yul\":2278:2281   */\n  dup3\n    /* \"#utility.yul\":2273:2276   */\n  dup6\n    /* \"#utility.yul\":2238:2290   */\n  tag_20\n  jump\t// in\ntag_72:\n    /* \"#utility.yul\":1957:2296   */\n  pop\n    /* \"#utility.yul\":1862:2296   */\n  swap4\n  swap3\n  pop\n  pop\n  pop\n  jump\t// out\n    /* \"#utility.yul\":2316:2671   */\ntag_22:\n    /* \"#utility.yul\":2383:2388   */\n  0x00\n    /* \"#utility.yul\":2432:2435   */\n  dup3\n    /* \"#utility.yul\":2425:2429   */\n  0x1f\n    /* \"#utility.yul\":2417:2423   */\n  dup4\n    /* \"#utility.yul\":2413:2430   */\n  add\n    /* \"#utility.yul\":2409:2436   */\n  slt\n    /* \"#utility.yul\":2399:2521   */\n  tag_74\n  jumpi\n    /* \"#utility.yul\":2440:2519   */\n  tag_75\n  tag_13\n  jump\t// in\ntag_75:\n    /* \"#utility.yul\":2399:2521   */\ntag_74:\n    /* \"#utility.yul\":2550:2556   */\n  dup2\n    /* \"#utility.yul\":2544:2557   */\n  mload\n    /* \"#utility.yul\":2575:2665   */\n  tag_76\n    /* \"#utility.yul\":2661:2664   */\n  dup5\n    /* \"#utility.yul\":2653:2659   */\n  dup3\n    /* \"#utility.yul\":2646:2650   */\n  0x20\n    /* \"#utility.yul\":2638:2644   */\n  dup7\n    /* \"#utility.yul\":2634:2651   */\n  add\n    /* \"#utility.yul\":2575:2665   */\n  tag_21\n  jump\t// in\ntag_76:\n    /* \"#utility.yul\":2566:2665   */\n  swap2\n  pop\n    /* \"#utility.yul\":2389:2671   */\n  pop\n    /* \"#utility.yul\":2316:2671   */\n  swap3\n  swap2\n  pop\n  pop\n  jump\t// out\n    /* \"#utility.yul\":2677:2754   */\ntag_23:\n    /* \"#utility.yul\":2714:2721   */\n  0x00\n    /* \"#utility.yul\":2743:2748   */\n  dup2\n    /* \"#utility.yul\":2732:2748   */\n  swap1\n  pop\n    /* \"#utility.yul\":2677:2754   */\n  swap2\n  swap1\n  pop\n  jump\t// out\n    /* \"#utility.yul\":2760:2882   */\ntag_24:\n    /* \"#utility.yul\":2833:2857   */\n  tag_79\n    /* \"#utility.yul\":2851:2856   */\n  dup2\n    /* \"#utility.yul\":2833:2857   */\n  tag_23\n  jump\t// in\ntag_79:\n    /* \"#utility.yul\":2826:2831   */\n  dup2\n    /* \"#utility.yul\":2823:2858   */\n  eq\n    /* \"#utility.yul\":2813:2876   */\n  tag_80\n  jumpi\n    /* \"#utility.yul\":2872:2873   */\n  0x00\n    /* \"#utility.yul\":2869:2870   */\n  dup1\n    /* \"#utility.yul\":2862:2874   */\n  revert\n    /* \"#utility.yul\":2813:2876   */\ntag_80:\n    /* \"#utility.yul\":2760:2882   */\n  pop\n  jump\t// out\n    /* \"#utility.yul\":2888:3031   */\ntag_25:\n    /* \"#utility.yul\":2945:2950   */\n  0x00\n    /* \"#utility.yul\":2976:2982   */\n  dup2\n    /* \"#utility.yul\":2970:2983   */\n  mload\n    /* \"#utility.yul\":2961:2983   */\n  swap1\n  pop\n    /* \"#utility.yul\":2992:3025   */\n  tag_82\n    /* \"#utility.yul\":3019:3024   */\n  dup2\n    /* \"#utility.yul\":2992:3025   */\n  tag_24\n  jump\t// in\ntag_82:\n    /* \"#utility.yul\":2888:3031   */\n  swap3\n  swap2\n  pop\n  pop\n  jump\t// out\n    /* \"#utility.yul\":3037:4203   */\ntag_3:\n    /* \"#utility.yul\":3154:3160   */\n  0x00\n    /* \"#utility.yul\":3162:3168   */\n  dup1\n    /* \"#utility.yul\":3170:3176   */\n  0x00\n    /* \"#utility.yul\":3178:3184   */\n  dup1\n    /* \"#utility.yul\":3227:3230   */\n  0x80\n    /* \"#utility.yul\":3215:3224   */\n  dup6\n    /* \"#utility.yul\":3206:3213   */\n  dup8\n    /* \"#utility.yul\":3202:3225   */\n  sub\n    /* \"#utility.yul\":3198:3231   */\n  slt\n    /* \"#utility.yul\":3195:3315   */\n  iszero\n  tag_84\n  jumpi\n    /* \"#utility.yul\":3234:3313   */\n  tag_85\n  tag_11\n  jump\t// in\ntag_85:\n    /* \"#utility.yul\":3195:3315   */\ntag_84:\n    /* \"#utility.yul\":3375:3376   */\n  0x00\n    /* \"#utility.yul\":3364:3373   */\n  dup6\n    /* \"#utility.yul\":3360:3377   */\n  add\n    /* \"#utility.yul\":3354:3378   */\n  mload\n    /* \"#utility.yul\":3405:3423   */\n  0xffffffffffffffff\n    /* \"#utility.yul\":3397:3403   */\n  dup2\n    /* \"#utility.yul\":3394:3424   */\n  gt\n    /* \"#utility.yul\":3391:3508   */\n  iszero\n  tag_86\n  jumpi\n    /* \"#utility.yul\":3427:3506   */\n  tag_87\n  tag_12\n  jump\t// in\ntag_87:\n    /* \"#utility.yul\":3391:3508   */\ntag_86:\n    /* \"#utility.yul\":3532:3606   */\n  tag_88\n    /* \"#utility.yul\":3598:3605   */\n  dup8\n    /* \"#utility.yul\":3589:3595   */\n  dup3\n    /* \"#utility.yul\":3578:3587   */\n  dup9\n    /* \"#utility.yul\":3574:3596   */\n  add\n    /* \"#utility.yul\":3532:3606   */\n  tag_22\n  jump\t// in\ntag_88:\n    /* \"#utility.yul\":3522:3606   */\n  swap5\n  pop\n    /* \"#utility.yul\":3325:3616   */\n  pop\n    /* \"#utility.yul\":3676:3678   */\n  0x20\n    /* \"#utility.yul\":3665:3674   */\n  dup6\n    /* \"#utility.yul\":3661:3679   */\n  add\n    /* \"#utility.yul\":3655:3680   */\n  mload\n    /* \"#utility.yul\":3707:3725   */\n  0xffffffffffffffff\n    /* \"#utility.yul\":3699:3705   */\n  dup2\n    /* \"#utility.yul\":3696:3726   */\n  gt\n    /* \"#utility.yul\":3693:3810   */\n  iszero\n  tag_89\n  jumpi\n    /* \"#utility.yul\":3729:3808   */\n  tag_90\n  tag_12\n  jump\t// in\ntag_90:\n    /* \"#utility.yul\":3693:3810   */\ntag_89:\n    /* \"#utility.yul\":3834:3908   */\n  tag_91\n    /* \"#utility.yul\":3900:3907   */\n  dup8\n    /* \"#utility.yul\":3891:3897   */\n  dup3\n    /* \"#utility.yul\":3880:3889   */\n  dup9\n    /* \"#utility.yul\":3876:3898   */\n  add\n    /* \"#utility.yul\":3834:3908   */\n  tag_22\n  jump\t// in\ntag_91:\n    /* \"#utility.yul\":3824:3908   */\n  swap4\n  pop\n    /* \"#utility.yul\":3626:3918   */\n  pop\n    /* \"#utility.yul\":3957:3959   */\n  0x40\n    /* \"#utility.yul\":3983:4047   */\n  tag_92\n    /* \"#utility.yul\":4039:4046   */\n  dup8\n    /* \"#utility.yul\":4030:4036   */\n  dup3\n    /* \"#utility.yul\":4019:4028   */\n  dup9\n    /* \"#utility.yul\":4015:4037   */\n  add\n    /* \"#utility.yul\":3983:4047   */\n  tag_25\n  jump\t// in\ntag_92:\n    /* \"#utility.yul\":3973:4047   */\n  swap3\n  pop\n    /* \"#utility.yul\":3928:4057   */\n  pop\n    /* \"#utility.yul\":4096:4098   */\n  0x60\n    /* \"#utility.yul\":4122:4186   */\n  tag_93\n    /* \"#utility.yul\":4178:4185   */\n  dup8\n    /* \"#utility.yul\":4169:4175   */\n  dup3\n    /* \"#utility.yul\":4158:4167   */\n  dup9\n    /* \"#utility.yul\":4154:4176   */\n  add\n    /* \"#utility.yul\":4122:4186   */\n  tag_25\n  jump\t// in\ntag_93:\n    /* \"#utility.yul\":4112:4186   */\n  swap2\n  pop\n    /* \"#utility.yul\":4067:4196   */\n  pop\n    /* \"#utility.yul\":3037:4203   */\n  swap3\n  swap6\n  swap2\n  swap5\n  pop\n  swap3\n  pop\n  jump\t// out\n    /* \"#utility.yul\":4209:4308   */\ntag_26:\n    /* \"#utility.yul\":4261:4267   */\n  0x00\n    /* \"#utility.yul\":4295:4300   */\n  dup2\n    /* \"#utility.yul\":4289:4301   */\n  mload\n    /* \"#utility.yul\":4279:4301   */\n  swap1\n  pop\n    /* \"#utility.yul\":4209:4308   */\n  swap2\n  swap1\n  pop\n  jump\t// out\n    /* \"#utility.yul\":4314:4494   */\ntag_27:\n    /* \"#utility.yul\":4362:4439   */\n  0x4e487b7100000000000000000000000000000000000000000000000000000000\n    /* \"#utility.yul\":4359:4360   */\n  0x00\n    /* \"#utility.yul\":4352:4440   */\n  mstore\n    /* \"#utility.yul\":4459:4463   */\n  0x22\n    /* \"#utility.yul\":4456:4457   */\n  0x04\n    /* \"#utility.yul\":4449:4464   */\n  mstore\n    /* \"#utility.yul\":4483:4487   */\n  0x24\n    /* \"#utility.yul\":4480:4481   */\n  0x00\n    /* \"#utility.yul\":4473:4488   */\n  revert\n    /* \"#utility.yul\":4500:4820   */\ntag_28:\n    /* \"#utility.yul\":4544:4550   */\n  0x00\n    /* \"#utility.yul\":4581:4582   */\n  0x02\n    /* \"#utility.yul\":4575:4579   */\n  dup3\n    /* \"#utility.yul\":4571:4583   */\n  div\n    /* \"#utility.yul\":4561:4583   */\n  swap1\n  pop\n    /* \"#utility.yul\":4628:4629   */\n  0x01\n    /* \"#utility.yul\":4622:4626   */\n  dup3\n    /* \"#utility.yul\":4618:4630   */\n  and\n    /* \"#utility.yul\":4649:4667   */\n  dup1\n    /* \"#utility.yul\":4639:4720   */\n  tag_97\n  jumpi\n    /* \"#utility.yul\":4705:4709   */\n  0x7f\n    /* \"#utility.yul\":4697:4703   */\n  dup3\n    /* \"#utility.yul\":4693:4710   */\n  and\n    /* \"#utility.yul\":4683:4710   */\n  swap2\n  pop\n    /* \"#utility.yul\":4639:4720   */\ntag_97:\n    /* \"#utility.yul\":4767:4769   */\n  0x20\n    /* \"#utility.yul\":4759:4765   */\n  dup3\n    /* \"#utility.yul\":4756:4770   */\n  lt\n    /* \"#utility.yul\":4736:4754   */\n  dup2\n    /* \"#utility.yul\":4733:4771   */\n  sub\n    /* \"#utility.yul\":4730:4814   */\n  tag_98\n  jumpi\n    /* \"#utility.yul\":4786:4804   */\n  tag_99\n  tag_27\n  jump\t// in\ntag_99:\n    /* \"#utility.yul\":4730:4814   */\ntag_98:\n    /* \"#utility.yul\":4551:4820   */\n  pop\n    /* \"#utility.yul\":4500:4820   */\n  swap2\n  swap1\n  pop\n  jump\t// out\n    /* \"#utility.yul\":4826:4967   */\ntag_29:\n    /* \"#utility.yul\":4875:4879   */\n  0x00\n    /* \"#utility.yul\":4898:4901   */\n  dup2\n    /* \"#utility.yul\":4890:4901   */\n  swap1\n  pop\n    /* \"#utility.yul\":4921:4924   */\n  dup2\n    /* \"#utility.yul\":4918:4919   */\n  0x00\n    /* \"#utility.yul\":4911:4925   */\n  mstore\n    /* \"#utility.yul\":4955:4959   */\n  0x20\n    /* \"#utility.yul\":4952:4953   */\n  0x00\n    /* \"#utility.yul\":4942:4960   */\n  keccak256\n    /* \"#utility.yul\":4934:4960   */\n  swap1\n  pop\n    /* \"#utility.yul\":4826:4967   */\n  swap2\n  swap1\n  pop\n  jump\t// out\n    /* \"#utility.yul\":4973:5066   */\ntag_30:\n    /* \"#utility.yul\":5010:5016   */\n  0x00\n    /* \"#utility.yul\":5057:5059   */\n  0x20\n    /* \"#utility.yul\":5052:5054   */\n  0x1f\n    /* \"#utility.yul\":5045:5050   */\n  dup4\n    /* \"#utility.yul\":5041:5055   */\n  add\n    /* \"#utility.yul\":5037:5060   */\n  div\n    /* \"#utility.yul\":5027:5060   */\n  swap1\n  pop\n    /* \"#utility.yul\":4973:5066   */\n  swap2\n  swap1\n  pop\n  jump\t// out\n    /* \"#utility.yul\":5072:5179   */\ntag_31:\n    /* \"#utility.yul\":5116:5124   */\n  0x00\n    /* \"#utility.yul\":5166:5171   */\n  dup3\n    /* \"#utility.yul\":5160:5164   */\n  dup3\n    /* \"#utility.yul\":5156:5172   */\n  shl\n    /* \"#utility.yul\":5135:5172   */\n  swap1\n  pop\n    /* \"#utility.yul\":5072:5179   */\n  swap3\n  swap2\n  pop\n  pop\n  jump\t// out\n    /* \"#utility.yul\":5185:5578   */\ntag_32:\n    /* \"#utility.yul\":5254:5260   */\n  0x00\n    /* \"#utility.yul\":5304:5305   */\n  0x08\n    /* \"#utility.yul\":5292:5302   */\n  dup4\n    /* \"#utility.yul\":5288:5306   */\n  mul\n    /* \"#utility.yul\":5327:5424   */\n  tag_104\n    /* \"#utility.yul\":5357:5423   */\n  0xffffffffffffffffffffffffffffffffffffffffffffffffffffffffffffffff\n    /* \"#utility.yul\":5346:5355   */\n  dup3\n    /* \"#utility.yul\":5327:5424   */\n  tag_31\n  jump\t// in\ntag_104:\n    /* \"#utility.yul\":5445:5484   */\n  tag_105\n    /* \"#utility.yul\":5475:5483   */\n  dup7\n    /* \"#utility.yul\":5464:5473   */\n  dup4\n    /* \"#utility.yul\":5445:5484   */\n  tag_31\n  jump\t// in\ntag_105:\n    /* \"#utility.yul\":5433:5484   */\n  swap6\n  pop\n    /* \"#utility.yul\":5517:5521   */\n  dup1\n    /* \"#utility.yul\":5513:5522   */\n  not\n    /* \"#utility.yul\":5506:5511   */\n  dup5\n    /* \"#utility.yul\":5502:5523   */\n  and\n    /* \"#utility.yul\":5493:5523   */\n  swap4\n  pop\n    /* \"#utility.yul\":5566:5570   */\n  dup1\n    /* \"#utility.yul\":5556:5564   */\n  dup7\n    /* \"#utility.yul\":5552:5571   */\n  and\n    /* \"#utility.yul\":5545:5550   */\n  dup5\n    /* \"#utility.yul\":5542:5572   */\n  or\n    /* \"#utility.yul\":5532:5572   */\n  swap3\n  pop\n    /* \"#utility.yul\":5261:5578   */\n  pop\n  pop\n    /* \"#utility.yul\":5185:5578   */\n  swap4\n  swap3\n  pop\n  pop\n  pop\n  jump\t// out\n    /* \"#utility.yul\":5584:5644   */\ntag_33:\n    /* \"#utility.yul\":5612:5615   */\n  0x00\n    /* \"#utility.yul\":5633:5638   */\n  dup2\n    /* \"#utility.yul\":5626:5638   */\n  swap1\n  pop\n    /* \"#utility.yul\":5584:5644   */\n  swap2\n  swap1\n  pop\n  jump\t// out\n    /* \"#utility.yul\":5650:5792   */\ntag_34:\n    /* \"#utility.yul\":5700:5709   */\n  0x00\n    /* \"#utility.yul\":5733:5786   */\n  tag_108\n    /* \"#utility.yul\":5751:5785   */\n  tag_109\n    /* \"#utility.yul\":5760:5784   */\n  tag_110\n    /* \"#utility.yul\":5778:5783   */\n  dup5\n    /* \"#utility.yul\":5760:5784   */\n  tag_23\n  jump\t// in\ntag_110:\n    /* \"#utility.yul\":5751:5785   */\n  tag_33\n  jump\t// in\ntag_109:\n    /* \"#utility.yul\":5733:5786   */\n  tag_23\n  jump\t// in\ntag_108:\n    /* \"#utility.yul\":5720:5786   */\n  swap1\n  pop\n    /* \"#utility.yul\":5650:5792   */\n  swap2\n  swap1\n  pop\n  jump\t// out\n    /* \"#utility.yul\":5798:5873   */\ntag_35:\n    /* \"#utility.yul\":5841:5844   */\n  0x00\n    /* \"#utility.yul\":5862:5867   */\n  dup2\n    /* \"#utility.yul\":5855:5867   */\n  swap1\n  pop\n    /* \"#utility.yul\":5798:5873   */\n  swap2\n  swap1\n  pop\n  jump\t// out\n    /* \"#utility.yul\":5879:6148   */\ntag_36:\n    /* \"#utility.yul\":5989:6028   */\n  tag_113\n    /* \"#utility.yul\":6020:6027   */\n  dup4\n    /* \"#utility.yul\":5989:6028   */\n  tag_34\n  jump\t// in\ntag_113:\n    /* \"#utility.yul\":6050:6141   */\n  tag_114\n    /* \"#utility.yul\":6099:6140   */\n  tag_115\n    /* \"#utility.yul\":6123:6139   */\n  dup3\n    /* \"#utility.yul\":6099:6140   */\n  tag_35\n  jump\t// in\ntag_115:\n    /* \"#utility.yul\":6091:6097   */\n  dup5\n    /* \"#utility.yul\":6084:6088   */\n  dup5\n    /* \"#utility.yul\":6078:6089   */\n  sload\n    /* \"#utility.yul\":6050:6141   */\n  tag_32\n  jump\t// in\ntag_114:\n    /* \"#utility.yul\":6044:6048   */\n  dup3\n    /* \"#utility.yul\":6037:6142   */\n  sstore\n    /* \"#utility.yul\":5955:6148   */\n  pop\n    /* \"#utility.yul\":5879:6148   */\n  pop\n  pop\n  pop\n  jump\t// out\n    /* \"#utility.yul\":6154:6227   */\ntag_37:\n    /* \"#utility.yul\":6199:6202   */\n  0x00\n    /* \"#utility.yul\":6154:6227   */\n  swap1\n  jump\t// out\n    /* \"#utility.yul\":6233:6422   */\ntag_38:\n    /* \"#utility.yul\":6310:6342   */\n  tag_118\n  tag_37\n  jump\t// in\ntag_118:\n    /* \"#utility.yul\":6351:6416   */\n  tag_119\n    /* \"#utility.yul\":6409:6415   */\n  dup2\n    /* \"#utility.yul\":6401:6407   */\n  dup5\n    /* \"#utility.yul\":6395:6399   */\n  dup5\n    /* \"#utility.yul\":6351:6416   */\n  tag_36\n  jump\t// in\ntag_119:\n    /* \"#utility.yul\":6286:6422   */\n  pop\n    /* \"#utility.yul\":6233:6422   */\n  pop\n  pop\n  jump\t// out\n    /* \"#utility.yul\":6428:6614   */\ntag_39:\n    /* \"#utility.yul\":6488:6608   */\ntag_121:\n    /* \"#utility.yul\":6505:6508   */\n  dup2\n    /* \"#utility.yul\":6498:6503   */\n  dup2\n    /* \"#utility.yul\":6495:6509   */\n  lt\n    /* \"#utility.yul\":6488:6608   */\n  iszero\n  tag_123\n  jumpi\n    /* \"#utility.yul\":6559:6598   */\n  tag_124\n    /* \"#utility.yul\":6596:6597   */\n  0x00\n    /* \"#utility.yul\":6589:6594   */\n  dup3\n    /* \"#utility.yul\":6559:6598   */\n  tag_38\n  jump\t// in\ntag_124:\n    /* \"#utility.yul\":6532:6533   */\n  0x01\n    /* \"#utility.yul\":6525:6530   */\n  dup2\n    /* \"#utility.yul\":6521:6534   */\n  add\n    /* \"#utility.yul\":6512:6534   */\n  swap1\n  pop\n    /* \"#utility.yul\":6488:6608   */\n  jump(tag_121)\ntag_123:\n    /* \"#utility.yul\":6428:6614   */\n  pop\n  pop\n  jump\t// out\n    /* \"#utility.yul\":6620:7163   */\ntag_40:\n    /* \"#utility.yul\":6721:6723   */\n  0x1f\n    /* \"#utility.yul\":6716:6719   */\n  dup3\n    /* \"#utility.yul\":6713:6724   */\n  gt\n    /* \"#utility.yul\":6710:7156   */\n  iszero\n  tag_126\n  jumpi\n    /* \"#utility.yul\":6755:6793   */\n  tag_127\n    /* \"#utility.yul\":6787:6792   */\n  dup2\n    /* \"#utility.yul\":6755:6793   */\n  tag_29\n  jump\t// in\ntag_127:\n    /* \"#utility.yul\":6839:6868   */\n  tag_128\n    /* \"#utility.yul\":6857:6867   */\n  dup5\n    /* \"#utility.yul\":6839:6868   */\n  tag_30\n  jump\t// in\ntag_128:\n    /* \"#utility.yul\":6829:6837   */\n  dup2\n    /* \"#utility.yul\":6825:6869   */\n  add\n    /* \"#utility.yul\":7022:7024   */\n  0x20\n    /* \"#utility.yul\":7010:7020   */\n  dup6\n    /* \"#utility.yul\":7007:7025   */\n  lt\n    /* \"#utility.yul\":7004:7053   */\n  iszero\n  tag_129\n  jumpi\n    /* \"#utility.yul\":7043:7051   */\n  dup2\n    /* \"#utility.yul\":7028:7051   */\n  swap1\n  pop\n    /* \"#utility.yul\":7004:7053   */\ntag_129:\n    /* \"#utility.yul\":7066:7146   */\n  tag_130\n    /* \"#utility.yul\":7122:7144   */\n  tag_131\n    /* \"#utility.yul\":7140:7143   */\n  dup6\n    /* \"#utility.yul\":7122:7144   */\n  tag_30\n  jump\t// in\ntag_131:\n    /* \"#utility.yul\":7112:7120   */\n  dup4\n    /* \"#utility.yul\":7108:7145   */\n  add\n    /* \"#utility.yul\":7095:7106   */\n  dup3\n    /* \"#utility.yul\":7066:7146   */\n  tag_39\n  jump\t// in\ntag_130:\n    /* \"#utility.yul\":6725:7156   */\n  pop\n  pop\n    /* \"#utility.yul\":6710:7156   */\ntag_126:\n    /* \"#utility.yul\":6620:7163   */\n  pop\n  pop\n  pop\n  jump\t// out\n    /* \"#utility.yul\":7169:7286   */\ntag_41:\n    /* \"#utility.yul\":7223:7231   */\n  0x00\n    /* \"#utility.yul\":7273:7278   */\n  dup3\n    /* \"#utility.yul\":7267:7271   */\n  dup3\n    /* \"#utility.yul\":7263:7279   */\n  shr\n    /* \"#utility.yul\":7242:7279   */\n  swap1\n  pop\n    /* \"#utility.yul\":7169:7286   */\n  swap3\n  swap2\n  pop\n  pop\n  jump\t// out\n    /* \"#utility.yul\":7292:7461   */\ntag_42:\n    /* \"#utility.yul\":7336:7342   */\n  0x00\n    /* \"#utility.yul\":7369:7420   */\n  tag_134\n    /* \"#utility.yul\":7417:7418   */\n  0x00\n    /* \"#utility.yul\":7413:7419   */\n  not\n    /* \"#utility.yul\":7405:7410   */\n  dup5\n    /* \"#utility.yul\":7402:7403   */\n  0x08\n    /* \"#utility.yul\":7398:7411   */\n  mul\n    /* \"#utility.yul\":7369:7420   */\n  tag_41\n  jump\t// in\ntag_134:\n    /* \"#utility.yul\":7365:7421   */\n  not\n    /* \"#utility.yul\":7450:7454   */\n  dup1\n    /* \"#utility.yul\":7444:7448   */\n  dup4\n    /* \"#utility.yul\":7440:7455   */\n  and\n    /* \"#utility.yul\":7430:7455   */\n  swap2\n  pop\n    /* \"#utility.yul\":7343:7461   */\n  pop\n    /* \"#utility.yul\":7292:7461   */\n  swap3\n  swap2\n  pop\n  pop\n  jump\t// out\n    /* \"#utility.yul\":7466:7761   */\ntag_43:\n    /* \"#utility.yul\":7542:7546   */\n  0x00\n    /* \"#utility.yul\":7688:7717   */\n  tag_136\n    /* \"#utility.yul\":7713:7716   */\n  dup4\n    /* \"#utility.yul\":7707:7711   */\n  dup4\n    /* \"#utility.yul\":7688:7717   */\n  tag_42\n  jump\t// in\ntag_136:\n    /* \"#utility.yul\":7680:7717   */\n  swap2\n  pop\n    /* \"#utility.yul\":7750:7753   */\n  dup3\n    /* \"#utility.yul\":7747:7748   */\n  0x02\n    /* \"#utility.yul\":7743:7754   */\n  mul\n    /* \"#utility.yul\":7737:7741   */\n  dup3\n    /* \"#utility.yul\":7734:7755   */\n  or\n    /* \"#utility.yul\":7726:7755   */\n  swap1\n  pop\n    /* \"#utility.yul\":7466:7761   */\n  swap3\n  swap2\n  pop\n  pop\n  jump\t// out\n    /* \"#utility.yul\":7766:9161   */\ntag_7:\n    /* \"#utility.yul\":7883:7920   */\n  tag_138\n    /* \"#utility.yul\":7916:7919   */\n  dup3\n    /* \"#utility.yul\":7883:7920   */\n  tag_26\n  jump\t// in\ntag_138:\n    /* \"#utility.yul\":7985:8003   */\n  0xffffffffffffffff\n    /* \"#utility.yul\":7977:7983   */\n  dup2\n    /* \"#utility.yul\":7974:8004   */\n  gt\n    /* \"#utility.yul\":7971:8027   */\n  iszero\n  tag_139\n  jumpi\n    /* \"#utility.yul\":8007:8025   */\n  tag_140\n  tag_16\n  jump\t// in\ntag_140:\n    /* \"#utility.yul\":7971:8027   */\ntag_139:\n    /* \"#utility.yul\":8051:8089   */\n  tag_141\n    /* \"#utility.yul\":8083:8087   */\n  dup3\n    /* \"#utility.yul\":8077:8088   */\n  sload\n    /* \"#utility.yul\":8051:8089   */\n  tag_28\n  jump\t// in\ntag_141:\n    /* \"#utility.yul\":8136:8203   */\n  tag_142\n    /* \"#utility.yul\":8196:8202   */\n  dup3\n    /* \"#utility.yul\":8188:8194   */\n  dup3\n    /* \"#utility.yul\":8182:8186   */\n  dup6\n    /* \"#utility.yul\":8136:8203   */\n  tag_40\n  jump\t// in\ntag_142:\n    /* \"#utility.yul\":8230:8231   */\n  0x00\n    /* \"#utility.yul\":8254:8258   */\n  0x20\n    /* \"#utility.yul\":8241:8258   */\n  swap1\n  pop\n    /* \"#utility.yul\":8286:8288   */\n  0x1f\n    /* \"#utility.yul\":8278:8284   */\n  dup4\n    /* \"#utility.yul\":8275:8289   */\n  gt\n    /* \"#utility.yul\":8303:8304   */\n  0x01\n    /* \"#utility.yul\":8298:8916   */\n  dup2\n  eq\n  tag_144\n  jumpi\n    /* \"#utility.yul\":8960:8961   */\n  0x00\n    /* \"#utility.yul\":8977:8983   */\n  dup5\n    /* \"#utility.yul\":8974:9051   */\n  iszero\n  tag_145\n  jumpi\n    /* \"#utility.yul\":9026:9035   */\n  dup3\n    /* \"#utility.yul\":9021:9024   */\n  dup8\n    /* \"#utility.yul\":9017:9036   */\n  add\n    /* \"#utility.yul\":9011:9037   */\n  mload\n    /* \"#utility.yul\":9002:9037   */\n  swap1\n  pop\n    /* \"#utility.yul\":8974:9051   */\ntag_145:\n    /* \"#utility.yul\":9077:9144   */\n  tag_146\n    /* \"#utility.yul\":9137:9143   */\n  dup6\n    /* \"#utility.yul\":9130:9135   */\n  dup3\n    /* \"#utility.yul\":9077:9144   */\n  tag_43\n  jump\t// in\ntag_146:\n    /* \"#utility.yul\":9071:9075   */\n  dup7\n    /* \"#utility.yul\":9064:9145   */\n  sstore\n    /* \"#utility.yul\":8933:9155   */\n  pop\n    /* \"#utility.yul\":8268:9155   */\n  jump(tag_143)\n    /* \"#utility.yul\":8298:8916   */\ntag_144:\n    /* \"#utility.yul\":8350:8354   */\n  0x1f\n    /* \"#utility.yul\":8346:8355   */\n  not\n    /* \"#utility.yul\":8338:8344   */\n  dup5\n    /* \"#utility.yul\":8334:8356   */\n  and\n    /* \"#utility.yul\":8384:8421   */\n  tag_147\n    /* \"#utility.yul\":8416:8420   */\n  dup7\n    /* \"#utility.yul\":8384:8421   */\n  tag_29\n  jump\t// in\ntag_147:\n    /* \"#utility.yul\":8443:8444   */\n  0x00\n    /* \"#utility.yul\":8457:8665   */\ntag_148:\n    /* \"#utility.yul\":8471:8478   */\n  dup3\n    /* \"#utility.yul\":8468:8469   */\n  dup2\n    /* \"#utility.yul\":8465:8479   */\n  lt\n    /* \"#utility.yul\":8457:8665   */\n  iszero\n  tag_150\n  jumpi\n    /* \"#utility.yul\":8550:8559   */\n  dup5\n    /* \"#utility.yul\":8545:8548   */\n  dup10\n    /* \"#utility.yul\":8541:8560   */\n  add\n    /* \"#utility.yul\":8535:8561   */\n  mload\n    /* \"#utility.yul\":8527:8533   */\n  dup3\n    /* \"#utility.yul\":8520:8562   */\n  sstore\n    /* \"#utility.yul\":8601:8602   */\n  0x01\n    /* \"#utility.yul\":8593:8599   */\n  dup3\n    /* \"#utility.yul\":8589:8603   */\n  add\n    /* \"#utility.yul\":8579:8603   */\n  swap2\n  pop\n    /* \"#utility.yul\":8648:8650   */\n  0x20\n    /* \"#utility.yul\":8637:8646   */\n  dup6\n    /* \"#utility.yul\":8633:8651   */\n  add\n    /* \"#utility.yul\":8620:8651   */\n  swap5\n  pop\n    /* \"#utility.yul\":8494:8498   */\n  0x20\n    /* \"#utility.yul\":8491:8492   */\n  dup2\n    /* \"#utility.yul\":8487:8499   */\n  add\n    /* \"#utility.yul\":8482:8499   */\n  swap1\n  pop\n    /* \"#utility.yul\":8457:8665   */\n  jump(tag_148)\ntag_150:\n    /* \"#utility.yul\":8693:8699   */\n  dup7\n    /* \"#utility.yul\":8684:8691   */\n  dup4\n    /* \"#utility.yul\":8681:8700   */\n  lt\n    /* \"#utility.yul\":8678:8857   */\n  iszero\n  tag_151\n  jumpi\n    /* \"#utility.yul\":8751:8760   */\n  dup5\n    /* \"#utility.yul\":8746:8749   */\n  dup10\n    /* \"#utility.yul\":8742:8761   */\n  add\n    /* \"#utility.yul\":8736:8762   */\n  mload\n    /* \"#utility.yul\":8794:8842   */\n  tag_152\n    /* \"#utility.yul\":8836:8840   */\n  0x1f\n    /* \"#utility.yul\":8828:8834   */\n  dup10\n    /* \"#utility.yul\":8824:8841   */\n  and\n    /* \"#utility.yul\":8813:8822   */\n  dup3\n    /* \"#utility.yul\":8794:8842   */\n  tag_42\n  jump\t// in\ntag_152:\n    /* \"#utility.yul\":8786:8792   */\n  dup4\n    /* \"#utility.yul\":8779:8843   */\n  sstore\n    /* \"#utility.yul\":8701:8857   */\n  pop\n    /* \"#utility.yul\":8678:8857   */\ntag_151:\n    /* \"#utility.yul\":8903:8904   */\n  0x01\n    /* \"#utility.yul\":8899:8900   */\n  0x02\n    /* \"#utility.yul\":8891:8897   */\n  dup9\n    /* \"#utility.yul\":8887:8901   */\n  mul\n    /* \"#utility.yul\":8883:8905   */\n  add\n    /* \"#utility.yul\":8877:8881   */\n  dup9\n    /* \"#utility.yul\":8870:8906   */\n  sstore\n    /* \"#utility.yul\":8305:8916   */\n  pop\n  pop\n  pop\n    /* \"#utility.yul\":8268:9155   */\ntag_143:\n  pop\n    /* \"#utility.yul\":7858:9161   */\n  pop\n  pop\n  pop\n    /* \"#utility.yul\":7766:9161   */\n  pop\n  pop\n  jump\t// out\n    /* \"contracts/ERC721.sol\":1154:4178  contract ERC721 {... */\ntag_9:\n  dataSize(sub_0)\n  dup1\n  dataOffset(sub_0)\n  0x00\n  codecopy\n  0x00\n  return\nstop\n\nsub_0: assembly {\n        /* \"contracts/ERC721.sol\":1154:4178  contract ERC721 {... */\n      mstore(0x40, 0x80)\n      jumpi(tag_1, lt(calldatasize, 0x04))\n      shr(0xe0, calldataload(0x00))\n      dup1\n      0x6a627842\n      gt\n      tag_13\n      jumpi\n      dup1\n      0x6a627842\n      eq\n      tag_7\n      jumpi\n      dup1\n      0x70a08231\n      eq\n      tag_8\n      jumpi\n      dup1\n      0x8a333b50\n      eq\n      tag_9\n      jumpi\n      dup1\n      0x95d89b41\n      eq\n      tag_10\n      jumpi\n      dup1\n      0xa22cb465\n      eq\n      tag_11\n      jumpi\n      dup1\n      0xe985e9c5\n      eq\n      tag_12\n      jumpi\n      jump(tag_1)\n    tag_13:\n      dup1\n      0x06fdde03\n      eq\n      tag_2\n      jumpi\n      dup1\n      0x095ea7b3\n      eq\n      tag_3\n      jumpi\n      dup1\n      0x1a4231a4\n      eq\n      tag_4\n      jumpi\n      dup1\n      0x23b872dd\n      eq\n      tag_5\n      jumpi\n      dup1\n      0x6352211e\n      eq\n      tag_6\n      jumpi\n    tag_1:\n      0x00\n      dup1\n      revert\n        /* \"contracts/ERC721.sol\":1177:1195  string public name */\n    tag_2:\n      callvalue\n      dup1\n      iszero\n      tag_14\n      jumpi\n      0x00\n      dup1\n      revert\n    tag_14:\n      pop\n      tag_15\n      tag_16\n      jump\t// in\n    tag_15:\n      mload(0x40)\n      tag_17\n      swap2\n      swap1\n      tag_18\n      jump\t// in\n    tag_17:\n      mload(0x40)\n      dup1\n      swap2\n      sub\n      swap1\n      return\n        /* \"contracts/ERC721.sol\":3859:4175  function approve(address spender, uint256 id) external {... */\n    tag_3:\n      callvalue\n      dup1\n      iszero\n      tag_19\n      jumpi\n      0x00\n      dup1\n      revert\n    tag_19:\n      pop\n      tag_20\n      0x04\n      dup1\n      calldatasize\n      sub\n      dup2\n      add\n      swap1\n      tag_21\n      swap2\n      swap1\n      tag_22\n      jump\t// in\n    tag_21:\n      tag_23\n      jump\t// in\n    tag_20:\n      stop\n        /* \"contracts/ERC721.sol\":1229:1254  uint256 public mint_price */\n    tag_4:\n      callvalue\n      dup1\n      iszero\n      tag_24\n      jumpi\n      0x00\n      dup1\n      revert\n    tag_24:\n      pop\n      tag_25\n      tag_26\n      jump\t// in\n    tag_25:\n      mload(0x40)\n      tag_27\n      swap2\n      swap1\n      tag_28\n      jump\t// in\n    tag_27:\n      mload(0x40)\n      dup1\n      swap2\n      sub\n      swap1\n      return\n        /* \"contracts/ERC721.sol\":2856:3288  function transferFrom(address from, address to, uint256 id) public {... */\n    tag_5:\n      callvalue\n      dup1\n      iszero\n      tag_29\n      jumpi\n      0x00\n      dup1\n      revert\n    tag_29:\n      pop\n      tag_30\n      0x04\n      dup1\n      calldatasize\n      sub\n      dup2\n      add\n      swap1\n      tag_31\n      swap2\n      swap1\n      tag_32\n      jump\t// in\n    tag_31:\n      tag_33\n      jump\t// in\n    tag_30:\n      stop\n        /* \"contracts/ERC721.sol\":3296:3464  function ownerOf(uint256 id) external view returns (address owner) {... */\n    tag_6:\n      callvalue\n      dup1\n      iszero\n      tag_34\n      jumpi\n      0x00\n      dup1\n      revert\n    tag_34:\n      pop\n      tag_35\n      0x04\n      dup1\n      calldatasize\n      sub\n      dup2\n      add\n      swap1\n      tag_36\n      swap2\n      swap1\n      tag_37\n      jump\t// in\n    tag_36:\n      tag_38\n      jump\t// in\n    tag_35:\n      mload(0x40)\n      tag_39\n      swap2\n      swap1\n      tag_40\n      jump\t// in\n    tag_39:\n      mload(0x40)\n      dup1\n      swap2\n      sub\n      swap1\n      return\n        /* \"contracts/ERC721.sol\":2414:2580  function mint(address to) public payable {... */\n    tag_7:\n      tag_41\n      0x04\n      dup1\n      calldatasize\n      sub\n      dup2\n      add\n      swap1\n      tag_42\n      swap2\n      swap1\n      tag_43\n      jump\t// in\n    tag_42:\n      tag_44\n      jump\t// in\n    tag_41:\n      stop\n        /* \"contracts/ERC721.sol\":3472:3644  function balanceOf(address owner) external view returns (uint256) {... */\n    tag_8:\n      callvalue\n      dup1\n      iszero\n      tag_45\n      jumpi\n      0x00\n      dup1\n      revert\n    tag_45:\n      pop\n      tag_46\n      0x04\n      dup1\n      calldatasize\n      sub\n      dup2\n      add\n      swap1\n      tag_47\n      swap2\n      swap1\n      tag_43\n      jump\t// in\n    tag_47:\n      tag_48\n      jump\t// in\n    tag_46:\n      mload(0x40)\n      tag_49\n      swap2\n      swap1\n      tag_28\n      jump\t// in\n    tag_49:\n      mload(0x40)\n      dup1\n      swap2\n      sub\n      swap1\n      return\n        /* \"contracts/ERC721.sol\":1261:1286  uint256 public max_supply */\n    tag_9:\n      callvalue\n      dup1\n      iszero\n      tag_50\n      jumpi\n      0x00\n      dup1\n      revert\n    tag_50:\n      pop\n      tag_51\n      tag_52\n      jump\t// in\n    tag_51:\n      mload(0x40)\n      tag_53\n      swap2\n      swap1\n      tag_28\n      jump\t// in\n    tag_53:\n      mload(0x40)\n      dup1\n      swap2\n      sub\n      swap1\n      return\n        /* \"contracts/ERC721.sol\":1202:1222  string public symbol */\n    tag_10:\n      callvalue\n      dup1\n      iszero\n      tag_54\n      jumpi\n      0x00\n      dup1\n      revert\n    tag_54:\n      pop\n      tag_55\n      tag_56\n      jump\t// in\n    tag_55:\n      mload(0x40)\n      tag_57\n      swap2\n      swap1\n      tag_18\n      jump\t// in\n    tag_57:\n      mload(0x40)\n      dup1\n      swap2\n      sub\n      swap1\n      return\n        /* \"contracts/ERC721.sol\":3652:3851  function setApprovalForAll(address operator, bool approved) external {... */\n    tag_11:\n      callvalue\n      dup1\n      iszero\n      tag_58\n      jumpi\n      0x00\n      dup1\n      revert\n    tag_58:\n      pop\n      tag_59\n      0x04\n      dup1\n      calldatasize\n      sub\n      dup2\n      add\n      swap1\n      tag_60\n      swap2\n      swap1\n      tag_61\n      jump\t// in\n    tag_60:\n      tag_62\n      jump\t// in\n    tag_59:\n      stop\n        /* \"contracts/ERC721.sol\":1551:1619  mapping(address => mapping(address => bool)) public isApprovedForAll */\n    tag_12:\n      callvalue\n      dup1\n      iszero\n      tag_63\n      jumpi\n      0x00\n      dup1\n      revert\n    tag_63:\n      pop\n      tag_64\n      0x04\n      dup1\n      calldatasize\n      sub\n      dup2\n      add\n      swap1\n      tag_65\n      swap2\n      swap1\n      tag_66\n      jump\t// in\n    tag_65:\n      tag_67\n      jump\t// in\n    tag_64:\n      mload(0x40)\n      tag_68\n      swap2\n      swap1\n      tag_69\n      jump\t// in\n    tag_68:\n      mload(0x40)\n      dup1\n      swap2\n      sub\n      swap1\n      return\n        /* \"contracts/ERC721.sol\":1177:1195  string public name */\n    tag_16:\n      0x00\n      dup1\n      sload\n      tag_70\n      swap1\n      tag_71\n      jump\t// in\n    tag_70:\n      dup1\n      0x1f\n      add\n      0x20\n      dup1\n      swap2\n      div\n      mul\n      0x20\n      add\n      mload(0x40)\n      swap1\n      dup2\n      add\n      0x40\n      mstore\n      dup1\n      swap3\n      swap2\n      swap1\n      dup2\n      dup2\n      mstore\n      0x20\n      add\n      dup3\n      dup1\n      sload\n      tag_72\n      swap1\n      tag_71\n      jump\t// in\n    tag_72:\n      dup1\n      iszero\n      tag_73\n      jumpi\n      dup1\n      0x1f\n      lt\n      tag_74\n      jumpi\n      0x0100\n      dup1\n      dup4\n      sload\n      div\n      mul\n      dup4\n      mstore\n      swap2\n      0x20\n      add\n      swap2\n      jump(tag_73)\n    tag_74:\n      dup3\n      add\n      swap2\n      swap1\n      0x00\n      mstore\n      keccak256(0x00, 0x20)\n      swap1\n    tag_75:\n      dup2\n      sload\n      dup2\n      mstore\n      swap1\n      0x01\n      add\n      swap1\n      0x20\n      add\n      dup1\n      dup4\n      gt\n      tag_75\n      jumpi\n      dup3\n      swap1\n      sub\n      0x1f\n      and\n      dup3\n      add\n      swap2\n    tag_73:\n      pop\n      pop\n      pop\n      pop\n      pop\n      dup2\n      jump\t// out\n        /* \"contracts/ERC721.sol\":3859:4175  function approve(address spender, uint256 id) external {... */\n    tag_23:\n        /* \"contracts/ERC721.sol\":3925:3938  address owner */\n      0x00\n        /* \"contracts/ERC721.sol\":3941:3949  _ownerOf */\n      0x05\n        /* \"contracts/ERC721.sol\":3941:3953  _ownerOf[id] */\n      0x00\n        /* \"contracts/ERC721.sol\":3950:3952  id */\n      dup4\n        /* \"contracts/ERC721.sol\":3941:3953  _ownerOf[id] */\n      dup2\n      mstore\n      0x20\n      add\n      swap1\n      dup2\n      mstore\n      0x20\n      add\n      0x00\n      keccak256\n      0x00\n      swap1\n      sload\n      swap1\n      0x0100\n      exp\n      swap1\n      div\n      0xffffffffffffffffffffffffffffffffffffffff\n      and\n        /* \"contracts/ERC721.sol\":3925:3953  address owner = _ownerOf[id] */\n      swap1\n      pop\n        /* \"contracts/ERC721.sol\":4000:4005  owner */\n      dup1\n        /* \"contracts/ERC721.sol\":3986:4005  msg.sender == owner */\n      0xffffffffffffffffffffffffffffffffffffffff\n      and\n        /* \"contracts/ERC721.sol\":3986:3996  msg.sender */\n      caller\n        /* \"contracts/ERC721.sol\":3986:4005  msg.sender == owner */\n      0xffffffffffffffffffffffffffffffffffffffff\n      and\n      eq\n        /* \"contracts/ERC721.sol\":3986:4044  msg.sender == owner || isApprovedForAll[owner][msg.sender] */\n      dup1\n      tag_77\n      jumpi\n      pop\n        /* \"contracts/ERC721.sol\":4009:4025  isApprovedForAll */\n      0x09\n        /* \"contracts/ERC721.sol\":4009:4032  isApprovedForAll[owner] */\n      0x00\n        /* \"contracts/ERC721.sol\":4026:4031  owner */\n      dup3\n        /* \"contracts/ERC721.sol\":4009:4032  isApprovedForAll[owner] */\n      0xffffffffffffffffffffffffffffffffffffffff\n      and\n      0xffffffffffffffffffffffffffffffffffffffff\n      and\n      dup2\n      mstore\n      0x20\n      add\n      swap1\n      dup2\n      mstore\n      0x20\n      add\n      0x00\n      keccak256\n        /* \"contracts/ERC721.sol\":4009:4044  isApprovedForAll[owner][msg.sender] */\n      0x00\n        /* \"contracts/ERC721.sol\":4033:4043  msg.sender */\n      caller\n        /* \"contracts/ERC721.sol\":4009:4044  isApprovedForAll[owner][msg.sender] */\n      0xffffffffffffffffffffffffffffffffffffffff\n      and\n      0xffffffffffffffffffffffffffffffffffffffff\n      and\n      dup2\n      mstore\n      0x20\n      add\n      swap1\n      dup2\n      mstore\n      0x20\n      add\n      0x00\n      keccak256\n      0x00\n      swap1\n      sload\n      swap1\n      0x0100\n      exp\n      swap1\n      div\n      0xff\n      and\n        /* \"contracts/ERC721.sol\":3986:4044  msg.sender == owner || isApprovedForAll[owner][msg.sender] */\n    tag_77:\n        /* \"contracts/ERC721.sol\":3964:4086  require(... */\n      tag_78\n      jumpi\n      mload(0x40)\n      0x08c379a000000000000000000000000000000000000000000000000000000000\n      dup2\n      mstore\n      0x04\n      add\n      tag_79\n      swap1\n      tag_80\n      jump\t// in\n    tag_79:\n      mload(0x40)\n      dup1\n      swap2\n      sub\n      swap1\n      revert\n    tag_78:\n        /* \"contracts/ERC721.sol\":4116:4123  spender */\n      dup3\n        /* \"contracts/ERC721.sol\":4099:4109  _approvals */\n      0x08\n        /* \"contracts/ERC721.sol\":4099:4113  _approvals[id] */\n      0x00\n        /* \"contracts/ERC721.sol\":4110:4112  id */\n      dup5\n        /* \"contracts/ERC721.sol\":4099:4113  _approvals[id] */\n      dup2\n      mstore\n      0x20\n      add\n      swap1\n      dup2\n      mstore\n      0x20\n      add\n      0x00\n      keccak256\n      0x00\n        /* \"contracts/ERC721.sol\":4099:4123  _approvals[id] = spender */\n      0x0100\n      exp\n      dup2\n      sload\n      dup2\n      0xffffffffffffffffffffffffffffffffffffffff\n      mul\n      not\n      and\n      swap1\n      dup4\n      0xffffffffffffffffffffffffffffffffffffffff\n      and\n      mul\n      or\n      swap1\n      sstore\n      pop\n        /* \"contracts/ERC721.sol\":4164:4166  id */\n      dup2\n        /* \"contracts/ERC721.sol\":4155:4162  spender */\n      dup4\n        /* \"contracts/ERC721.sol\":4139:4167  Approval(owner, spender, id) */\n      0xffffffffffffffffffffffffffffffffffffffff\n      and\n        /* \"contracts/ERC721.sol\":4148:4153  owner */\n      dup3\n        /* \"contracts/ERC721.sol\":4139:4167  Approval(owner, spender, id) */\n      0xffffffffffffffffffffffffffffffffffffffff\n      and\n      0x8c5be1e5ebec7d5bd14f71427d1e84f3dd0314c0f7b2291e5b200ac8c7c3b925\n      mload(0x40)\n      mload(0x40)\n      dup1\n      swap2\n      sub\n      swap1\n      log4\n        /* \"contracts/ERC721.sol\":3914:4175  {... */\n      pop\n        /* \"contracts/ERC721.sol\":3859:4175  function approve(address spender, uint256 id) external {... */\n      pop\n      pop\n      jump\t// out\n        /* \"contracts/ERC721.sol\":1229:1254  uint256 public mint_price */\n    tag_26:\n      sload(0x02)\n      dup2\n      jump\t// out\n        /* \"contracts/ERC721.sol\":2856:3288  function transferFrom(address from, address to, uint256 id) public {... */\n    tag_33:\n        /* \"contracts/ERC721.sol\":2950:2958  _ownerOf */\n      0x05\n        /* \"contracts/ERC721.sol\":2950:2962  _ownerOf[id] */\n      0x00\n        /* \"contracts/ERC721.sol\":2959:2961  id */\n      dup3\n        /* \"contracts/ERC721.sol\":2950:2962  _ownerOf[id] */\n      dup2\n      mstore\n      0x20\n      add\n      swap1\n      dup2\n      mstore\n      0x20\n      add\n      0x00\n      keccak256\n      0x00\n      swap1\n      sload\n      swap1\n      0x0100\n      exp\n      swap1\n      div\n      0xffffffffffffffffffffffffffffffffffffffff\n      and\n        /* \"contracts/ERC721.sol\":2942:2962  from == _ownerOf[id] */\n      0xffffffffffffffffffffffffffffffffffffffff\n      and\n        /* \"contracts/ERC721.sol\":2942:2946  from */\n      dup4\n        /* \"contracts/ERC721.sol\":2942:2962  from == _ownerOf[id] */\n      0xffffffffffffffffffffffffffffffffffffffff\n      and\n      eq\n        /* \"contracts/ERC721.sol\":2934:2980  require(from == _ownerOf[id], \"from != owner\") */\n      tag_82\n      jumpi\n      mload(0x40)\n      0x08c379a000000000000000000000000000000000000000000000000000000000\n      dup2\n      mstore\n      0x04\n      add\n      tag_83\n      swap1\n      tag_84\n      jump\t// in\n    tag_83:\n      mload(0x40)\n      dup1\n      swap2\n      sub\n      swap1\n      revert\n    tag_82:\n        /* \"contracts/ERC721.sol\":3013:3014  0 */\n      0x00\n        /* \"contracts/ERC721.sol\":2999:3015  to != address(0) */\n      0xffffffffffffffffffffffffffffffffffffffff\n      and\n        /* \"contracts/ERC721.sol\":2999:3001  to */\n      dup3\n        /* \"contracts/ERC721.sol\":2999:3015  to != address(0) */\n      0xffffffffffffffffffffffffffffffffffffffff\n      and\n      sub\n        /* \"contracts/ERC721.sol\":2991:3044  require(to != address(0), \"transfer to zero address\") */\n      tag_85\n      jumpi\n      mload(0x40)\n      0x08c379a000000000000000000000000000000000000000000000000000000000\n      dup2\n      mstore\n      0x04\n      add\n      tag_86\n      swap1\n      tag_87\n      jump\t// in\n    tag_86:\n      mload(0x40)\n      dup1\n      swap2\n      sub\n      swap1\n      revert\n    tag_85:\n        /* \"contracts/ERC721.sol\":3063:3103  _isApprovedOrOwner(from, msg.sender, id) */\n      tag_88\n        /* \"contracts/ERC721.sol\":3082:3086  from */\n      dup4\n        /* \"contracts/ERC721.sol\":3088:3098  msg.sender */\n      caller\n        /* \"contracts/ERC721.sol\":3100:3102  id */\n      dup4\n        /* \"contracts/ERC721.sol\":3063:3081  _isApprovedOrOwner */\n      tag_89\n        /* \"contracts/ERC721.sol\":3063:3103  _isApprovedOrOwner(from, msg.sender, id) */\n      jump\t// in\n    tag_88:\n        /* \"contracts/ERC721.sol\":3055:3122  require(_isApprovedOrOwner(from, msg.sender, id), \"not authorized\") */\n      tag_90\n      jumpi\n      mload(0x40)\n      0x08c379a000000000000000000000000000000000000000000000000000000000\n      dup2\n      mstore\n      0x04\n      add\n      tag_91\n      swap1\n      tag_80\n      jump\t// in\n    tag_91:\n      mload(0x40)\n      dup1\n      swap2\n      sub\n      swap1\n      revert\n    tag_90:\n        /* \"contracts/ERC721.sol\":3135:3145  _balanceOf */\n      0x07\n        /* \"contracts/ERC721.sol\":3135:3151  _balanceOf[from] */\n      0x00\n        /* \"contracts/ERC721.sol\":3146:3150  from */\n      dup5\n        /* \"contracts/ERC721.sol\":3135:3151  _balanceOf[from] */\n      0xffffffffffffffffffffffffffffffffffffffff\n      and\n      0xffffffffffffffffffffffffffffffffffffffff\n      and\n      dup2\n      mstore\n      0x20\n      add\n      swap1\n      dup2\n      mstore\n      0x20\n      add\n      0x00\n      keccak256\n      0x00\n        /* \"contracts/ERC721.sol\":3135:3153  _balanceOf[from]-- */\n      dup2\n      sload\n      dup1\n      swap3\n      swap2\n      swap1\n      tag_92\n      swap1\n      tag_93\n      jump\t// in\n    tag_92:\n      swap2\n      swap1\n      pop\n      sstore\n      pop\n        /* \"contracts/ERC721.sol\":3164:3174  _balanceOf */\n      0x07\n        /* \"contracts/ERC721.sol\":3164:3178  _balanceOf[to] */\n      0x00\n        /* \"contracts/ERC721.sol\":3175:3177  to */\n      dup4\n        /* \"contracts/ERC721.sol\":3164:3178  _balanceOf[to] */\n      0xffffffffffffffffffffffffffffffffffffffff\n      and\n      0xffffffffffffffffffffffffffffffffffffffff\n      and\n      dup2\n      mstore\n      0x20\n      add\n      swap1\n      dup2\n      mstore\n      0x20\n      add\n      0x00\n      keccak256\n      0x00\n        /* \"contracts/ERC721.sol\":3164:3180  _balanceOf[to]++ */\n      dup2\n      sload\n      dup1\n      swap3\n      swap2\n      swap1\n      tag_94\n      swap1\n      tag_95\n      jump\t// in\n    tag_94:\n      swap2\n      swap1\n      pop\n      sstore\n      pop\n        /* \"contracts/ERC721.sol\":3206:3208  to */\n      dup2\n        /* \"contracts/ERC721.sol\":3191:3199  _ownerOf */\n      0x05\n        /* \"contracts/ERC721.sol\":3191:3203  _ownerOf[id] */\n      0x00\n        /* \"contracts/ERC721.sol\":3200:3202  id */\n      dup4\n        /* \"contracts/ERC721.sol\":3191:3203  _ownerOf[id] */\n      dup2\n      mstore\n      0x20\n      add\n      swap1\n      dup2\n      mstore\n      0x20\n      add\n      0x00\n      keccak256\n      0x00\n        /* \"contracts/ERC721.sol\":3191:3208  _ownerOf[id] = to */\n      0x0100\n      exp\n      dup2\n      sload\n      dup2\n      0xffffffffffffffffffffffffffffffffffffffff\n      mul\n      not\n      and\n      swap1\n      dup4\n      0xffffffffffffffffffffffffffffffffffffffff\n      and\n      mul\n      or\n      swap1\n      sstore\n      pop\n        /* \"contracts/ERC721.sol\":3226:3236  _approvals */\n      0x08\n        /* \"contracts/ERC721.sol\":3226:3240  _approvals[id] */\n      0x00\n        /* \"contracts/ERC721.sol\":3237:3239  id */\n      dup3\n        /* \"contracts/ERC721.sol\":3226:3240  _approvals[id] */\n      dup2\n      mstore\n      0x20\n      add\n      swap1\n      dup2\n      mstore\n      0x20\n      add\n      0x00\n      keccak256\n      0x00\n        /* \"contracts/ERC721.sol\":3219:3240  delete _approvals[id] */\n      0x0100\n      exp\n      dup2\n      sload\n      swap1\n      0xffffffffffffffffffffffffffffffffffffffff\n      mul\n      not\n      and\n      swap1\n      sstore\n        /* \"contracts/ERC721.sol\":3277:3279  id */\n      dup1\n        /* \"contracts/ERC721.sol\":3273:3275  to */\n      dup3\n        /* \"contracts/ERC721.sol\":3258:3280  Transfer(from, to, id) */\n      0xffffffffffffffffffffffffffffffffffffffff\n      and\n        /* \"contracts/ERC721.sol\":3267:3271  from */\n      dup5\n        /* \"contracts/ERC721.sol\":3258:3280  Transfer(from, to, id) */\n      0xffffffffffffffffffffffffffffffffffffffff\n      and\n      0xddf252ad1be2c89b69c2b068fc378daa952ba7f163c4a11628f55a4df523b3ef\n      mload(0x40)\n      mload(0x40)\n      dup1\n      swap2\n      sub\n      swap1\n      log4\n        /* \"contracts/ERC721.sol\":2856:3288  function transferFrom(address from, address to, uint256 id) public {... */\n      pop\n      pop\n      pop\n      jump\t// out\n        /* \"contracts/ERC721.sol\":3296:3464  function ownerOf(uint256 id) external view returns (address owner) {... */\n    tag_38:\n        /* \"contracts/ERC721.sol\":3348:3361  address owner */\n      0x00\n        /* \"contracts/ERC721.sol\":3382:3390  _ownerOf */\n      0x05\n        /* \"contracts/ERC721.sol\":3382:3394  _ownerOf[id] */\n      0x00\n        /* \"contracts/ERC721.sol\":3391:3393  id */\n      dup4\n        /* \"contracts/ERC721.sol\":3382:3394  _ownerOf[id] */\n      dup2\n      mstore\n      0x20\n      add\n      swap1\n      dup2\n      mstore\n      0x20\n      add\n      0x00\n      keccak256\n      0x00\n      swap1\n      sload\n      swap1\n      0x0100\n      exp\n      swap1\n      div\n      0xffffffffffffffffffffffffffffffffffffffff\n      and\n        /* \"contracts/ERC721.sol\":3374:3394  owner = _ownerOf[id] */\n      swap1\n      pop\n        /* \"contracts/ERC721.sol\":3430:3431  0 */\n      0x00\n        /* \"contracts/ERC721.sol\":3413:3432  owner != address(0) */\n      0xffffffffffffffffffffffffffffffffffffffff\n      and\n        /* \"contracts/ERC721.sol\":3413:3418  owner */\n      dup2\n        /* \"contracts/ERC721.sol\":3413:3432  owner != address(0) */\n      0xffffffffffffffffffffffffffffffffffffffff\n      and\n      sub\n        /* \"contracts/ERC721.sol\":3405:3456  require(owner != address(0), \"token doesn't exist\") */\n      tag_97\n      jumpi\n      mload(0x40)\n      0x08c379a000000000000000000000000000000000000000000000000000000000\n      dup2\n      mstore\n      0x04\n      add\n      tag_98\n      swap1\n      tag_99\n      jump\t// in\n    tag_98:\n      mload(0x40)\n      dup1\n      swap2\n      sub\n      swap1\n      revert\n    tag_97:\n        /* \"contracts/ERC721.sol\":3296:3464  function ownerOf(uint256 id) external view returns (address owner) {... */\n      swap2\n      swap1\n      pop\n      jump\t// out\n        /* \"contracts/ERC721.sol\":2414:2580  function mint(address to) public payable {... */\n    tag_44:\n        /* \"contracts/ERC721.sol\":2466:2481  uint256 tokenId */\n      0x00\n        /* \"contracts/ERC721.sol\":2484:2496  _nextTokenId */\n      0x04\n      0x00\n        /* \"contracts/ERC721.sol\":2484:2498  _nextTokenId++ */\n      dup2\n      sload\n      dup1\n      swap3\n      swap2\n      swap1\n      tag_101\n      swap1\n      tag_95\n      jump\t// in\n    tag_101:\n      swap2\n      swap1\n      pop\n      sstore\n        /* \"contracts/ERC721.sol\":2466:2498  uint256 tokenId = _nextTokenId++ */\n      swap1\n      pop\n        /* \"contracts/ERC721.sol\":2509:2527  _mint(to, tokenId) */\n      tag_102\n        /* \"contracts/ERC721.sol\":2515:2517  to */\n      dup3\n        /* \"contracts/ERC721.sol\":2519:2526  tokenId */\n      dup3\n        /* \"contracts/ERC721.sol\":2509:2514  _mint */\n      tag_103\n        /* \"contracts/ERC721.sol\":2509:2527  _mint(to, tokenId) */\n      jump\t// in\n    tag_102:\n        /* \"contracts/ERC721.sol\":2538:2554  tokenOwnerstoIds */\n      0x06\n        /* \"contracts/ERC721.sol\":2538:2558  tokenOwnerstoIds[to] */\n      0x00\n        /* \"contracts/ERC721.sol\":2555:2557  to */\n      dup4\n        /* \"contracts/ERC721.sol\":2538:2558  tokenOwnerstoIds[to] */\n      0xffffffffffffffffffffffffffffffffffffffff\n      and\n      0xffffffffffffffffffffffffffffffffffffffff\n      and\n      dup2\n      mstore\n      0x20\n      add\n      swap1\n      dup2\n      mstore\n      0x20\n      add\n      0x00\n      keccak256\n        /* \"contracts/ERC721.sol\":2564:2571  tokenId */\n      dup2\n        /* \"contracts/ERC721.sol\":2538:2572  tokenOwnerstoIds[to].push(tokenId) */\n      swap1\n      dup1\n      0x01\n      dup2\n      sload\n      add\n      dup1\n      dup3\n      sstore\n      dup1\n      swap2\n      pop\n      pop\n      0x01\n      swap1\n      sub\n      swap1\n      0x00\n      mstore\n      keccak256(0x00, 0x20)\n      add\n      0x00\n      swap1\n      swap2\n      swap1\n      swap2\n      swap1\n      swap2\n      pop\n      sstore\n        /* \"contracts/ERC721.sol\":2455:2580  {... */\n      pop\n        /* \"contracts/ERC721.sol\":2414:2580  function mint(address to) public payable {... */\n      pop\n      jump\t// out\n        /* \"contracts/ERC721.sol\":3472:3644  function balanceOf(address owner) external view returns (uint256) {... */\n    tag_48:\n        /* \"contracts/ERC721.sol\":3529:3536  uint256 */\n      0x00\n        /* \"contracts/ERC721.sol\":3574:3575  0 */\n      dup1\n        /* \"contracts/ERC721.sol\":3557:3576  owner != address(0) */\n      0xffffffffffffffffffffffffffffffffffffffff\n      and\n        /* \"contracts/ERC721.sol\":3557:3562  owner */\n      dup3\n        /* \"contracts/ERC721.sol\":3557:3576  owner != address(0) */\n      0xffffffffffffffffffffffffffffffffffffffff\n      and\n      sub\n        /* \"contracts/ERC721.sol\":3549:3601  require(owner != address(0), \"owner = zero address\") */\n      tag_106\n      jumpi\n      mload(0x40)\n      0x08c379a000000000000000000000000000000000000000000000000000000000\n      dup2\n      mstore\n      0x04\n      add\n      tag_107\n      swap1\n      tag_108\n      jump\t// in\n    tag_107:\n      mload(0x40)\n      dup1\n      swap2\n      sub\n      swap1\n      revert\n    tag_106:\n        /* \"contracts/ERC721.sol\":3619:3629  _balanceOf */\n      0x07\n        /* \"contracts/ERC721.sol\":3619:3636  _balanceOf[owner] */\n      0x00\n        /* \"contracts/ERC721.sol\":3630:3635  owner */\n      dup4\n        /* \"contracts/ERC721.sol\":3619:3636  _balanceOf[owner] */\n      0xffffffffffffffffffffffffffffffffffffffff\n      and\n      0xffffffffffffffffffffffffffffffffffffffff\n      and\n      dup2\n      mstore\n      0x20\n      add\n      swap1\n      dup2\n      mstore\n      0x20\n      add\n      0x00\n      keccak256\n      sload\n        /* \"contracts/ERC721.sol\":3612:3636  return _balanceOf[owner] */\n      swap1\n      pop\n        /* \"contracts/ERC721.sol\":3472:3644  function balanceOf(address owner) external view returns (uint256) {... */\n      swap2\n      swap1\n      pop\n      jump\t// out\n        /* \"contracts/ERC721.sol\":1261:1286  uint256 public max_supply */\n    tag_52:\n      sload(0x03)\n      dup2\n      jump\t// out\n        /* \"contracts/ERC721.sol\":1202:1222  string public symbol */\n    tag_56:\n      0x01\n      dup1\n      sload\n      tag_109\n      swap1\n      tag_71\n      jump\t// in\n    tag_109:\n      dup1\n      0x1f\n      add\n      0x20\n      dup1\n      swap2\n      div\n      mul\n      0x20\n      add\n      mload(0x40)\n      swap1\n      dup2\n      add\n      0x40\n      mstore\n      dup1\n      swap3\n      swap2\n      swap1\n      dup2\n      dup2\n      mstore\n      0x20\n      add\n      dup3\n      dup1\n      sload\n      tag_110\n      swap1\n      tag_71\n      jump\t// in\n    tag_110:\n      dup1\n      iszero\n      tag_111\n      jumpi\n      dup1\n      0x1f\n      lt\n      tag_112\n      jumpi\n      0x0100\n      dup1\n      dup4\n      sload\n      div\n      mul\n      dup4\n      mstore\n      swap2\n      0x20\n      add\n      swap2\n      jump(tag_111)\n    tag_112:\n      dup3\n      add\n      swap2\n      swap1\n      0x00\n      mstore\n      keccak256(0x00, 0x20)\n      swap1\n    tag_113:\n      dup2\n      sload\n      dup2\n      mstore\n      swap1\n      0x01\n      add\n      swap1\n      0x20\n      add\n      dup1\n      dup4\n      gt\n      tag_113\n      jumpi\n      dup3\n      swap1\n      sub\n      0x1f\n      and\n      dup3\n      add\n      swap2\n    tag_111:\n      pop\n      pop\n      pop\n      pop\n      pop\n      dup2\n      jump\t// out\n        /* \"contracts/ERC721.sol\":3652:3851  function setApprovalForAll(address operator, bool approved) external {... */\n    tag_62:\n        /* \"contracts/ERC721.sol\":3773:3781  approved */\n      dup1\n        /* \"contracts/ERC721.sol\":3732:3748  isApprovedForAll */\n      0x09\n        /* \"contracts/ERC721.sol\":3732:3760  isApprovedForAll[msg.sender] */\n      0x00\n        /* \"contracts/ERC721.sol\":3749:3759  msg.sender */\n      caller\n        /* \"contracts/ERC721.sol\":3732:3760  isApprovedForAll[msg.sender] */\n      0xffffffffffffffffffffffffffffffffffffffff\n      and\n      0xffffffffffffffffffffffffffffffffffffffff\n      and\n      dup2\n      mstore\n      0x20\n      add\n      swap1\n      dup2\n      mstore\n      0x20\n      add\n      0x00\n      keccak256\n        /* \"contracts/ERC721.sol\":3732:3770  isApprovedForAll[msg.sender][operator] */\n      0x00\n        /* \"contracts/ERC721.sol\":3761:3769  operator */\n      dup5\n        /* \"contracts/ERC721.sol\":3732:3770  isApprovedForAll[msg.sender][operator] */\n      0xffffffffffffffffffffffffffffffffffffffff\n      and\n      0xffffffffffffffffffffffffffffffffffffffff\n      and\n      dup2\n      mstore\n      0x20\n      add\n      swap1\n      dup2\n      mstore\n      0x20\n      add\n      0x00\n      keccak256\n      0x00\n        /* \"contracts/ERC721.sol\":3732:3781  isApprovedForAll[msg.sender][operator] = approved */\n      0x0100\n      exp\n      dup2\n      sload\n      dup2\n      0xff\n      mul\n      not\n      and\n      swap1\n      dup4\n      iszero\n      iszero\n      mul\n      or\n      swap1\n      sstore\n      pop\n        /* \"contracts/ERC721.sol\":3824:3832  operator */\n      dup2\n        /* \"contracts/ERC721.sol\":3797:3843  ApprovalForAll(msg.sender, operator, approved) */\n      0xffffffffffffffffffffffffffffffffffffffff\n      and\n        /* \"contracts/ERC721.sol\":3812:3822  msg.sender */\n      caller\n        /* \"contracts/ERC721.sol\":3797:3843  ApprovalForAll(msg.sender, operator, approved) */\n      0xffffffffffffffffffffffffffffffffffffffff\n      and\n      0x17307eab39ab6107e8899845ad3d59bd9653f200f220920489ca2b5937696c31\n        /* \"contracts/ERC721.sol\":3834:3842  approved */\n      dup4\n        /* \"contracts/ERC721.sol\":3797:3843  ApprovalForAll(msg.sender, operator, approved) */\n      mload(0x40)\n      tag_115\n      swap2\n      swap1\n      tag_69\n      jump\t// in\n    tag_115:\n      mload(0x40)\n      dup1\n      swap2\n      sub\n      swap1\n      log3\n        /* \"contracts/ERC721.sol\":3652:3851  function setApprovalForAll(address operator, bool approved) external {... */\n      pop\n      pop\n      jump\t// out\n        /* \"contracts/ERC721.sol\":1551:1619  mapping(address => mapping(address => bool)) public isApprovedForAll */\n    tag_67:\n      mstore(0x20, 0x09)\n      dup2\n      0x00\n      mstore\n      mstore(0x20, keccak256(0x00, 0x40))\n      dup1\n      0x00\n      mstore\n      keccak256(0x00, 0x40)\n      0x00\n      swap2\n      pop\n      swap2\n      pop\n      swap1\n      sload\n      swap1\n      0x0100\n      exp\n      swap1\n      div\n      0xff\n      and\n      dup2\n      jump\t// out\n        /* \"contracts/ERC721.sol\":2588:2848  function _isApprovedOrOwner(address owner, address spender, uint256 id) internal view returns (bool) {... */\n    tag_89:\n        /* \"contracts/ERC721.sol\":2683:2687  bool */\n      0x00\n        /* \"contracts/ERC721.sol\":2733:2738  owner */\n      dup4\n        /* \"contracts/ERC721.sol\":2722:2738  spender == owner */\n      0xffffffffffffffffffffffffffffffffffffffff\n      and\n        /* \"contracts/ERC721.sol\":2722:2729  spender */\n      dup4\n        /* \"contracts/ERC721.sol\":2722:2738  spender == owner */\n      0xffffffffffffffffffffffffffffffffffffffff\n      and\n      eq\n        /* \"contracts/ERC721.sol\":2722:2787  spender == owner ||... */\n      dup1\n      tag_117\n      jumpi\n      pop\n        /* \"contracts/ERC721.sol\":2755:2771  isApprovedForAll */\n      0x09\n        /* \"contracts/ERC721.sol\":2755:2778  isApprovedForAll[owner] */\n      0x00\n        /* \"contracts/ERC721.sol\":2772:2777  owner */\n      dup6\n        /* \"contracts/ERC721.sol\":2755:2778  isApprovedForAll[owner] */\n      0xffffffffffffffffffffffffffffffffffffffff\n      and\n      0xffffffffffffffffffffffffffffffffffffffff\n      and\n      dup2\n      mstore\n      0x20\n      add\n      swap1\n      dup2\n      mstore\n      0x20\n      add\n      0x00\n      keccak256\n        /* \"contracts/ERC721.sol\":2755:2787  isApprovedForAll[owner][spender] */\n      0x00\n        /* \"contracts/ERC721.sol\":2779:2786  spender */\n      dup5\n        /* \"contracts/ERC721.sol\":2755:2787  isApprovedForAll[owner][spender] */\n      0xffffffffffffffffffffffffffffffffffffffff\n      and\n      0xffffffffffffffffffffffffffffffffffffffff\n      and\n      dup2\n      mstore\n      0x20\n      add\n      swap1\n      dup2\n      mstore\n      0x20\n      add\n      0x00\n      keccak256\n      0x00\n      swap1\n      sload\n      swap1\n      0x0100\n      exp\n      swap1\n      div\n      0xff\n      and\n        /* \"contracts/ERC721.sol\":2722:2787  spender == owner ||... */\n    tag_117:\n        /* \"contracts/ERC721.sol\":2722:2829  spender == owner ||... */\n      dup1\n      tag_118\n      jumpi\n      pop\n        /* \"contracts/ERC721.sol\":2815:2825  _approvals */\n      0x08\n        /* \"contracts/ERC721.sol\":2815:2829  _approvals[id] */\n      0x00\n        /* \"contracts/ERC721.sol\":2826:2828  id */\n      dup4\n        /* \"contracts/ERC721.sol\":2815:2829  _approvals[id] */\n      dup2\n      mstore\n      0x20\n      add\n      swap1\n      dup2\n      mstore\n      0x20\n      add\n      0x00\n      keccak256\n      0x00\n      swap1\n      sload\n      swap1\n      0x0100\n      exp\n      swap1\n      div\n      0xffffffffffffffffffffffffffffffffffffffff\n      and\n        /* \"contracts/ERC721.sol\":2804:2829  spender == _approvals[id] */\n      0xffffffffffffffffffffffffffffffffffffffff\n      and\n        /* \"contracts/ERC721.sol\":2804:2811  spender */\n      dup4\n        /* \"contracts/ERC721.sol\":2804:2829  spender == _approvals[id] */\n      0xffffffffffffffffffffffffffffffffffffffff\n      and\n      eq\n        /* \"contracts/ERC721.sol\":2722:2829  spender == owner ||... */\n    tag_118:\n        /* \"contracts/ERC721.sol\":2700:2840  return (... */\n      swap1\n      pop\n        /* \"contracts/ERC721.sol\":2588:2848  function _isApprovedOrOwner(address owner, address spender, uint256 id) internal view returns (bool) {... */\n      swap4\n      swap3\n      pop\n      pop\n      pop\n      jump\t// out\n        /* \"contracts/ERC721.sol\":2123:2406  function _mint(address to, uint256 id) internal {... */\n    tag_103:\n        /* \"contracts/ERC721.sol\":2204:2205  0 */\n      0x00\n        /* \"contracts/ERC721.sol\":2190:2206  to != address(0) */\n      0xffffffffffffffffffffffffffffffffffffffff\n      and\n        /* \"contracts/ERC721.sol\":2190:2192  to */\n      dup3\n        /* \"contracts/ERC721.sol\":2190:2206  to != address(0) */\n      0xffffffffffffffffffffffffffffffffffffffff\n      and\n      sub\n        /* \"contracts/ERC721.sol\":2182:2231  require(to != address(0), \"mint to zero address\") */\n      tag_120\n      jumpi\n      mload(0x40)\n      0x08c379a000000000000000000000000000000000000000000000000000000000\n      dup2\n      mstore\n      0x04\n      add\n      tag_121\n      swap1\n      tag_122\n      jump\t// in\n    tag_121:\n      mload(0x40)\n      dup1\n      swap2\n      sub\n      swap1\n      revert\n    tag_120:\n        /* \"contracts/ERC721.sol\":2274:2275  0 */\n      0x00\n        /* \"contracts/ERC721.sol\":2250:2276  _ownerOf[id] == address(0) */\n      0xffffffffffffffffffffffffffffffffffffffff\n      and\n        /* \"contracts/ERC721.sol\":2250:2258  _ownerOf */\n      0x05\n        /* \"contracts/ERC721.sol\":2250:2262  _ownerOf[id] */\n      0x00\n        /* \"contracts/ERC721.sol\":2259:2261  id */\n      dup4\n        /* \"contracts/ERC721.sol\":2250:2262  _ownerOf[id] */\n      dup2\n      mstore\n      0x20\n      add\n      swap1\n      dup2\n      mstore\n      0x20\n      add\n      0x00\n      keccak256\n      0x00\n      swap1\n      sload\n      swap1\n      0x0100\n      exp\n      swap1\n      div\n      0xffffffffffffffffffffffffffffffffffffffff\n      and\n        /* \"contracts/ERC721.sol\":2250:2276  _ownerOf[id] == address(0) */\n      0xffffffffffffffffffffffffffffffffffffffff\n      and\n      eq\n        /* \"contracts/ERC721.sol\":2242:2295  require(_ownerOf[id] == address(0), \"already minted\") */\n      tag_123\n      jumpi\n      mload(0x40)\n      0x08c379a000000000000000000000000000000000000000000000000000000000\n      dup2\n      mstore\n      0x04\n      add\n      tag_124\n      swap1\n      tag_125\n      jump\t// in\n    tag_124:\n      mload(0x40)\n      dup1\n      swap2\n      sub\n      swap1\n      revert\n    tag_123:\n        /* \"contracts/ERC721.sol\":2308:2318  _balanceOf */\n      0x07\n        /* \"contracts/ERC721.sol\":2308:2322  _balanceOf[to] */\n      0x00\n        /* \"contracts/ERC721.sol\":2319:2321  to */\n      dup4\n        /* \"contracts/ERC721.sol\":2308:2322  _balanceOf[to] */\n      0xffffffffffffffffffffffffffffffffffffffff\n      and\n      0xffffffffffffffffffffffffffffffffffffffff\n      and\n      dup2\n      mstore\n      0x20\n      add\n      swap1\n      dup2\n      mstore\n      0x20\n      add\n      0x00\n      keccak256\n      0x00\n        /* \"contracts/ERC721.sol\":2308:2324  _balanceOf[to]++ */\n      dup2\n      sload\n      dup1\n      swap3\n      swap2\n      swap1\n      tag_126\n      swap1\n      tag_95\n      jump\t// in\n    tag_126:\n      swap2\n      swap1\n      pop\n      sstore\n      pop\n        /* \"contracts/ERC721.sol\":2350:2352  to */\n      dup2\n        /* \"contracts/ERC721.sol\":2335:2343  _ownerOf */\n      0x05\n        /* \"contracts/ERC721.sol\":2335:2347  _ownerOf[id] */\n      0x00\n        /* \"contracts/ERC721.sol\":2344:2346  id */\n      dup4\n        /* \"contracts/ERC721.sol\":2335:2347  _ownerOf[id] */\n      dup2\n      mstore\n      0x20\n      add\n      swap1\n      dup2\n      mstore\n      0x20\n      add\n      0x00\n      keccak256\n      0x00\n        /* \"contracts/ERC721.sol\":2335:2352  _ownerOf[id] = to */\n      0x0100\n      exp\n      dup2\n      sload\n      dup2\n      0xffffffffffffffffffffffffffffffffffffffff\n      mul\n      not\n      and\n      swap1\n      dup4\n      0xffffffffffffffffffffffffffffffffffffffff\n      and\n      mul\n      or\n      swap1\n      sstore\n      pop\n        /* \"contracts/ERC721.sol\":2395:2397  id */\n      dup1\n        /* \"contracts/ERC721.sol\":2391:2393  to */\n      dup3\n        /* \"contracts/ERC721.sol\":2370:2398  Transfer(address(0), to, id) */\n      0xffffffffffffffffffffffffffffffffffffffff\n      and\n        /* \"contracts/ERC721.sol\":2387:2388  0 */\n      0x00\n        /* \"contracts/ERC721.sol\":2370:2398  Transfer(address(0), to, id) */\n      0xffffffffffffffffffffffffffffffffffffffff\n      and\n      0xddf252ad1be2c89b69c2b068fc378daa952ba7f163c4a11628f55a4df523b3ef\n      mload(0x40)\n      mload(0x40)\n      dup1\n      swap2\n      sub\n      swap1\n      log4\n        /* \"contracts/ERC721.sol\":2123:2406  function _mint(address to, uint256 id) internal {... */\n      pop\n      pop\n      jump\t// out\n        /* \"#utility.yul\":7:106   */\n    tag_127:\n        /* \"#utility.yul\":59:65   */\n      0x00\n        /* \"#utility.yul\":93:98   */\n      dup2\n        /* \"#utility.yul\":87:99   */\n      mload\n        /* \"#utility.yul\":77:99   */\n      swap1\n      pop\n        /* \"#utility.yul\":7:106   */\n      swap2\n      swap1\n      pop\n      jump\t// out\n        /* \"#utility.yul\":112:281   */\n    tag_128:\n        /* \"#utility.yul\":196:207   */\n      0x00\n        /* \"#utility.yul\":230:236   */\n      dup3\n        /* \"#utility.yul\":225:228   */\n      dup3\n        /* \"#utility.yul\":218:237   */\n      mstore\n        /* \"#utility.yul\":270:274   */\n      0x20\n        /* \"#utility.yul\":265:268   */\n      dup3\n        /* \"#utility.yul\":261:275   */\n      add\n        /* \"#utility.yul\":246:275   */\n      swap1\n      pop\n        /* \"#utility.yul\":112:281   */\n      swap3\n      swap2\n      pop\n      pop\n      jump\t// out\n        /* \"#utility.yul\":287:533   */\n    tag_129:\n        /* \"#utility.yul\":368:369   */\n      0x00\n        /* \"#utility.yul\":378:491   */\n    tag_168:\n        /* \"#utility.yul\":392:398   */\n      dup4\n        /* \"#utility.yul\":389:390   */\n      dup2\n        /* \"#utility.yul\":386:399   */\n      lt\n        /* \"#utility.yul\":378:491   */\n      iszero\n      tag_170\n      jumpi\n        /* \"#utility.yul\":477:478   */\n      dup1\n        /* \"#utility.yul\":472:475   */\n      dup3\n        /* \"#utility.yul\":468:479   */\n      add\n        /* \"#utility.yul\":462:480   */\n      mload\n        /* \"#utility.yul\":458:459   */\n      dup2\n        /* \"#utility.yul\":453:456   */\n      dup5\n        /* \"#utility.yul\":449:460   */\n      add\n        /* \"#utility.yul\":442:481   */\n      mstore\n        /* \"#utility.yul\":414:416   */\n      0x20\n        /* \"#utility.yul\":411:412   */\n      dup2\n        /* \"#utility.yul\":407:417   */\n      add\n        /* \"#utility.yul\":402:417   */\n      swap1\n      pop\n        /* \"#utility.yul\":378:491   */\n      jump(tag_168)\n    tag_170:\n        /* \"#utility.yul\":525:526   */\n      0x00\n        /* \"#utility.yul\":516:522   */\n      dup5\n        /* \"#utility.yul\":511:514   */\n      dup5\n        /* \"#utility.yul\":507:523   */\n      add\n        /* \"#utility.yul\":500:527   */\n      mstore\n        /* \"#utility.yul\":349:533   */\n      pop\n        /* \"#utility.yul\":287:533   */\n      pop\n      pop\n      pop\n      jump\t// out\n        /* \"#utility.yul\":539:641   */\n    tag_130:\n        /* \"#utility.yul\":580:586   */\n      0x00\n        /* \"#utility.yul\":631:633   */\n      0x1f\n        /* \"#utility.yul\":627:634   */\n      not\n        /* \"#utility.yul\":622:624   */\n      0x1f\n        /* \"#utility.yul\":615:620   */\n      dup4\n        /* \"#utility.yul\":611:625   */\n      add\n        /* \"#utility.yul\":607:635   */\n      and\n        /* \"#utility.yul\":597:635   */\n      swap1\n      pop\n        /* \"#utility.yul\":539:641   */\n      swap2\n      swap1\n      pop\n      jump\t// out\n        /* \"#utility.yul\":647:1024   */\n    tag_131:\n        /* \"#utility.yul\":735:738   */\n      0x00\n        /* \"#utility.yul\":763:802   */\n      tag_173\n        /* \"#utility.yul\":796:801   */\n      dup3\n        /* \"#utility.yul\":763:802   */\n      tag_127\n      jump\t// in\n    tag_173:\n        /* \"#utility.yul\":818:889   */\n      tag_174\n        /* \"#utility.yul\":882:888   */\n      dup2\n        /* \"#utility.yul\":877:880   */\n      dup6\n        /* \"#utility.yul\":818:889   */\n      tag_128\n      jump\t// in\n    tag_174:\n        /* \"#utility.yul\":811:889   */\n      swap4\n      pop\n        /* \"#utility.yul\":898:963   */\n      tag_175\n        /* \"#utility.yul\":956:962   */\n      dup2\n        /* \"#utility.yul\":951:954   */\n      dup6\n        /* \"#utility.yul\":944:948   */\n      0x20\n        /* \"#utility.yul\":937:942   */\n      dup7\n        /* \"#utility.yul\":933:949   */\n      add\n        /* \"#utility.yul\":898:963   */\n      tag_129\n      jump\t// in\n    tag_175:\n        /* \"#utility.yul\":988:1017   */\n      tag_176\n        /* \"#utility.yul\":1010:1016   */\n      dup2\n        /* \"#utility.yul\":988:1017   */\n      tag_130\n      jump\t// in\n    tag_176:\n        /* \"#utility.yul\":983:986   */\n      dup5\n        /* \"#utility.yul\":979:1018   */\n      add\n        /* \"#utility.yul\":972:1018   */\n      swap2\n      pop\n        /* \"#utility.yul\":739:1024   */\n      pop\n        /* \"#utility.yul\":647:1024   */\n      swap3\n      swap2\n      pop\n      pop\n      jump\t// out\n        /* \"#utility.yul\":1030:1343   */\n    tag_18:\n        /* \"#utility.yul\":1143:1147   */\n      0x00\n        /* \"#utility.yul\":1181:1183   */\n      0x20\n        /* \"#utility.yul\":1170:1179   */\n      dup3\n        /* \"#utility.yul\":1166:1184   */\n      add\n        /* \"#utility.yul\":1158:1184   */\n      swap1\n      pop\n        /* \"#utility.yul\":1230:1239   */\n      dup2\n        /* \"#utility.yul\":1224:1228   */\n      dup2\n        /* \"#utility.yul\":1220:1240   */\n      sub\n        /* \"#utility.yul\":1216:1217   */\n      0x00\n        /* \"#utility.yul\":1205:1214   */\n      dup4\n        /* \"#utility.yul\":1201:1218   */\n      add\n        /* \"#utility.yul\":1194:1241   */\n      mstore\n        /* \"#utility.yul\":1258:1336   */\n      tag_178\n        /* \"#utility.yul\":1331:1335   */\n      dup2\n        /* \"#utility.yul\":1322:1328   */\n      dup5\n        /* \"#utility.yul\":1258:1336   */\n      tag_131\n      jump\t// in\n    tag_178:\n        /* \"#utility.yul\":1250:1336   */\n      swap1\n      pop\n        /* \"#utility.yul\":1030:1343   */\n      swap3\n      swap2\n      pop\n      pop\n      jump\t// out\n        /* \"#utility.yul\":1430:1547   */\n    tag_133:\n        /* \"#utility.yul\":1539:1540   */\n      0x00\n        /* \"#utility.yul\":1536:1537   */\n      dup1\n        /* \"#utility.yul\":1529:1541   */\n      revert\n        /* \"#utility.yul\":1676:1802   */\n    tag_135:\n        /* \"#utility.yul\":1713:1720   */\n      0x00\n        /* \"#utility.yul\":1753:1795   */\n      0xffffffffffffffffffffffffffffffffffffffff\n        /* \"#utility.yul\":1746:1751   */\n      dup3\n        /* \"#utility.yul\":1742:1796   */\n      and\n        /* \"#utility.yul\":1731:1796   */\n      swap1\n      pop\n        /* \"#utility.yul\":1676:1802   */\n      swap2\n      swap1\n      pop\n      jump\t// out\n        /* \"#utility.yul\":1808:1904   */\n    tag_136:\n        /* \"#utility.yul\":1845:1852   */\n      0x00\n        /* \"#utility.yul\":1874:1898   */\n      tag_184\n        /* \"#utility.yul\":1892:1897   */\n      dup3\n        /* \"#utility.yul\":1874:1898   */\n      tag_135\n      jump\t// in\n    tag_184:\n        /* \"#utility.yul\":1863:1898   */\n      swap1\n      pop\n        /* \"#utility.yul\":1808:1904   */\n      swap2\n      swap1\n      pop\n      jump\t// out\n        /* \"#utility.yul\":1910:2032   */\n    tag_137:\n        /* \"#utility.yul\":1983:2007   */\n      tag_186\n        /* \"#utility.yul\":2001:2006   */\n      dup2\n        /* \"#utility.yul\":1983:2007   */\n      tag_136\n      jump\t// in\n    tag_186:\n        /* \"#utility.yul\":1976:1981   */\n      dup2\n        /* \"#utility.yul\":1973:2008   */\n      eq\n        /* \"#utility.yul\":1963:2026   */\n      tag_187\n      jumpi\n        /* \"#utility.yul\":2022:2023   */\n      0x00\n        /* \"#utility.yul\":2019:2020   */\n      dup1\n        /* \"#utility.yul\":2012:2024   */\n      revert\n        /* \"#utility.yul\":1963:2026   */\n    tag_187:\n        /* \"#utility.yul\":1910:2032   */\n      pop\n      jump\t// out\n        /* \"#utility.yul\":2038:2177   */\n    tag_138:\n        /* \"#utility.yul\":2084:2089   */\n      0x00\n        /* \"#utility.yul\":2122:2128   */\n      dup2\n        /* \"#utility.yul\":2109:2129   */\n      calldataload\n        /* \"#utility.yul\":2100:2129   */\n      swap1\n      pop\n        /* \"#utility.yul\":2138:2171   */\n      tag_189\n        /* \"#utility.yul\":2165:2170   */\n      dup2\n        /* \"#utility.yul\":2138:2171   */\n      tag_137\n      jump\t// in\n    tag_189:\n        /* \"#utility.yul\":2038:2177   */\n      swap3\n      swap2\n      pop\n      pop\n      jump\t// out\n        /* \"#utility.yul\":2183:2260   */\n    tag_139:\n        /* \"#utility.yul\":2220:2227   */\n      0x00\n        /* \"#utility.yul\":2249:2254   */\n      dup2\n        /* \"#utility.yul\":2238:2254   */\n      swap1\n      pop\n        /* \"#utility.yul\":2183:2260   */\n      swap2\n      swap1\n      pop\n      jump\t// out\n        /* \"#utility.yul\":2266:2388   */\n    tag_140:\n        /* \"#utility.yul\":2339:2363   */\n      tag_192\n        /* \"#utility.yul\":2357:2362   */\n      dup2\n        /* \"#utility.yul\":2339:2363   */\n      tag_139\n      jump\t// in\n    tag_192:\n        /* \"#utility.yul\":2332:2337   */\n      dup2\n        /* \"#utility.yul\":2329:2364   */\n      eq\n        /* \"#utility.yul\":2319:2382   */\n      tag_193\n      jumpi\n        /* \"#utility.yul\":2378:2379   */\n      0x00\n        /* \"#utility.yul\":2375:2376   */\n      dup1\n        /* \"#utility.yul\":2368:2380   */\n      revert\n        /* \"#utility.yul\":2319:2382   */\n    tag_193:\n        /* \"#utility.yul\":2266:2388   */\n      pop\n      jump\t// out\n        /* \"#utility.yul\":2394:2533   */\n    tag_141:\n        /* \"#utility.yul\":2440:2445   */\n      0x00\n        /* \"#utility.yul\":2478:2484   */\n      dup2\n        /* \"#utility.yul\":2465:2485   */\n      calldataload\n        /* \"#utility.yul\":2456:2485   */\n      swap1\n      pop\n        /* \"#utility.yul\":2494:2527   */\n      tag_195\n        /* \"#utility.yul\":2521:2526   */\n      dup2\n        /* \"#utility.yul\":2494:2527   */\n      tag_140\n      jump\t// in\n    tag_195:\n        /* \"#utility.yul\":2394:2533   */\n      swap3\n      swap2\n      pop\n      pop\n      jump\t// out\n        /* \"#utility.yul\":2539:3013   */\n    tag_22:\n        /* \"#utility.yul\":2607:2613   */\n      0x00\n        /* \"#utility.yul\":2615:2621   */\n      dup1\n        /* \"#utility.yul\":2664:2666   */\n      0x40\n        /* \"#utility.yul\":2652:2661   */\n      dup4\n        /* \"#utility.yul\":2643:2650   */\n      dup6\n        /* \"#utility.yul\":2639:2662   */\n      sub\n        /* \"#utility.yul\":2635:2667   */\n      slt\n        /* \"#utility.yul\":2632:2751   */\n      iszero\n      tag_197\n      jumpi\n        /* \"#utility.yul\":2670:2749   */\n      tag_198\n      tag_133\n      jump\t// in\n    tag_198:\n        /* \"#utility.yul\":2632:2751   */\n    tag_197:\n        /* \"#utility.yul\":2790:2791   */\n      0x00\n        /* \"#utility.yul\":2815:2868   */\n      tag_199\n        /* \"#utility.yul\":2860:2867   */\n      dup6\n        /* \"#utility.yul\":2851:2857   */\n      dup3\n        /* \"#utility.yul\":2840:2849   */\n      dup7\n        /* \"#utility.yul\":2836:2858   */\n      add\n        /* \"#utility.yul\":2815:2868   */\n      tag_138\n      jump\t// in\n    tag_199:\n        /* \"#utility.yul\":2805:2868   */\n      swap3\n      pop\n        /* \"#utility.yul\":2761:2878   */\n      pop\n        /* \"#utility.yul\":2917:2919   */\n      0x20\n        /* \"#utility.yul\":2943:2996   */\n      tag_200\n        /* \"#utility.yul\":2988:2995   */\n      dup6\n        /* \"#utility.yul\":2979:2985   */\n      dup3\n        /* \"#utility.yul\":2968:2977   */\n      dup7\n        /* \"#utility.yul\":2964:2986   */\n      add\n        /* \"#utility.yul\":2943:2996   */\n      tag_141\n      jump\t// in\n    tag_200:\n        /* \"#utility.yul\":2933:2996   */\n      swap2\n      pop\n        /* \"#utility.yul\":2888:3006   */\n      pop\n        /* \"#utility.yul\":2539:3013   */\n      swap3\n      pop\n      swap3\n      swap1\n      pop\n      jump\t// out\n        /* \"#utility.yul\":3019:3137   */\n    tag_142:\n        /* \"#utility.yul\":3106:3130   */\n      tag_202\n        /* \"#utility.yul\":3124:3129   */\n      dup2\n        /* \"#utility.yul\":3106:3130   */\n      tag_139\n      jump\t// in\n    tag_202:\n        /* \"#utility.yul\":3101:3104   */\n      dup3\n        /* \"#utility.yul\":3094:3131   */\n      mstore\n        /* \"#utility.yul\":3019:3137   */\n      pop\n      pop\n      jump\t// out\n        /* \"#utility.yul\":3143:3365   */\n    tag_28:\n        /* \"#utility.yul\":3236:3240   */\n      0x00\n        /* \"#utility.yul\":3274:3276   */\n      0x20\n        /* \"#utility.yul\":3263:3272   */\n      dup3\n        /* \"#utility.yul\":3259:3277   */\n      add\n        /* \"#utility.yul\":3251:3277   */\n      swap1\n      pop\n        /* \"#utility.yul\":3287:3358   */\n      tag_204\n        /* \"#utility.yul\":3355:3356   */\n      0x00\n        /* \"#utility.yul\":3344:3353   */\n      dup4\n        /* \"#utility.yul\":3340:3357   */\n      add\n        /* \"#utility.yul\":3331:3337   */\n      dup5\n        /* \"#utility.yul\":3287:3358   */\n      tag_142\n      jump\t// in\n    tag_204:\n        /* \"#utility.yul\":3143:3365   */\n      swap3\n      swap2\n      pop\n      pop\n      jump\t// out\n        /* \"#utility.yul\":3371:3990   */\n    tag_32:\n        /* \"#utility.yul\":3448:3454   */\n      0x00\n        /* \"#utility.yul\":3456:3462   */\n      dup1\n        /* \"#utility.yul\":3464:3470   */\n      0x00\n        /* \"#utility.yul\":3513:3515   */\n      0x60\n        /* \"#utility.yul\":3501:3510   */\n      dup5\n        /* \"#utility.yul\":3492:3499   */\n      dup7\n        /* \"#utility.yul\":3488:3511   */\n      sub\n        /* \"#utility.yul\":3484:3516   */\n      slt\n        /* \"#utility.yul\":3481:3600   */\n      iszero\n      tag_206\n      jumpi\n        /* \"#utility.yul\":3519:3598   */\n      tag_207\n      tag_133\n      jump\t// in\n    tag_207:\n        /* \"#utility.yul\":3481:3600   */\n    tag_206:\n        /* \"#utility.yul\":3639:3640   */\n      0x00\n        /* \"#utility.yul\":3664:3717   */\n      tag_208\n        /* \"#utility.yul\":3709:3716   */\n      dup7\n        /* \"#utility.yul\":3700:3706   */\n      dup3\n        /* \"#utility.yul\":3689:3698   */\n      dup8\n        /* \"#utility.yul\":3685:3707   */\n      add\n        /* \"#utility.yul\":3664:3717   */\n      tag_138\n      jump\t// in\n    tag_208:\n        /* \"#utility.yul\":3654:3717   */\n      swap4\n      pop\n        /* \"#utility.yul\":3610:3727   */\n      pop\n        /* \"#utility.yul\":3766:3768   */\n      0x20\n        /* \"#utility.yul\":3792:3845   */\n      tag_209\n        /* \"#utility.yul\":3837:3844   */\n      dup7\n        /* \"#utility.yul\":3828:3834   */\n      dup3\n        /* \"#utility.yul\":3817:3826   */\n      dup8\n        /* \"#utility.yul\":3813:3835   */\n      add\n        /* \"#utility.yul\":3792:3845   */\n      tag_138\n      jump\t// in\n    tag_209:\n        /* \"#utility.yul\":3782:3845   */\n      swap3\n      pop\n        /* \"#utility.yul\":3737:3855   */\n      pop\n        /* \"#utility.yul\":3894:3896   */\n      0x40\n        /* \"#utility.yul\":3920:3973   */\n      tag_210\n        /* \"#utility.yul\":3965:3972   */\n      dup7\n        /* \"#utility.yul\":3956:3962   */\n      dup3\n        /* \"#utility.yul\":3945:3954   */\n      dup8\n        /* \"#utility.yul\":3941:3963   */\n      add\n        /* \"#utility.yul\":3920:3973   */\n      tag_141\n      jump\t// in\n    tag_210:\n        /* \"#utility.yul\":3910:3973   */\n      swap2\n      pop\n        /* \"#utility.yul\":3865:3983   */\n      pop\n        /* \"#utility.yul\":3371:3990   */\n      swap3\n      pop\n      swap3\n      pop\n      swap3\n      jump\t// out\n        /* \"#utility.yul\":3996:4325   */\n    tag_37:\n        /* \"#utility.yul\":4055:4061   */\n      0x00\n        /* \"#utility.yul\":4104:4106   */\n      0x20\n        /* \"#utility.yul\":4092:4101   */\n      dup3\n        /* \"#utility.yul\":4083:4090   */\n      dup5\n        /* \"#utility.yul\":4079:4102   */\n      sub\n        /* \"#utility.yul\":4075:4107   */\n      slt\n        /* \"#utility.yul\":4072:4191   */\n      iszero\n      tag_212\n      jumpi\n        /* \"#utility.yul\":4110:4189   */\n      tag_213\n      tag_133\n      jump\t// in\n    tag_213:\n        /* \"#utility.yul\":4072:4191   */\n    tag_212:\n        /* \"#utility.yul\":4230:4231   */\n      0x00\n        /* \"#utility.yul\":4255:4308   */\n      tag_214\n        /* \"#utility.yul\":4300:4307   */\n      dup5\n        /* \"#utility.yul\":4291:4297   */\n      dup3\n        /* \"#utility.yul\":4280:4289   */\n      dup6\n        /* \"#utility.yul\":4276:4298   */\n      add\n        /* \"#utility.yul\":4255:4308   */\n      tag_141\n      jump\t// in\n    tag_214:\n        /* \"#utility.yul\":4245:4308   */\n      swap2\n      pop\n        /* \"#utility.yul\":4201:4318   */\n      pop\n        /* \"#utility.yul\":3996:4325   */\n      swap3\n      swap2\n      pop\n      pop\n      jump\t// out\n        /* \"#utility.yul\":4331:4449   */\n    tag_143:\n        /* \"#utility.yul\":4418:4442   */\n      tag_216\n        /* \"#utility.yul\":4436:4441   */\n      dup2\n        /* \"#utility.yul\":4418:4442   */\n      tag_136\n      jump\t// in\n    tag_216:\n        /* \"#utility.yul\":4413:4416   */\n      dup3\n        /* \"#utility.yul\":4406:4443   */\n      mstore\n        /* \"#utility.yul\":4331:4449   */\n      pop\n      pop\n      jump\t// out\n        /* \"#utility.yul\":4455:4677   */\n    tag_40:\n        /* \"#utility.yul\":4548:4552   */\n      0x00\n        /* \"#utility.yul\":4586:4588   */\n      0x20\n        /* \"#utility.yul\":4575:4584   */\n      dup3\n        /* \"#utility.yul\":4571:4589   */\n      add\n        /* \"#utility.yul\":4563:4589   */\n      swap1\n      pop\n        /* \"#utility.yul\":4599:4670   */\n      tag_218\n        /* \"#utility.yul\":4667:4668   */\n      0x00\n        /* \"#utility.yul\":4656:4665   */\n      dup4\n        /* \"#utility.yul\":4652:4669   */\n      add\n        /* \"#utility.yul\":4643:4649   */\n      dup5\n        /* \"#utility.yul\":4599:4670   */\n      tag_143\n      jump\t// in\n    tag_218:\n        /* \"#utility.yul\":4455:4677   */\n      swap3\n      swap2\n      pop\n      pop\n      jump\t// out\n        /* \"#utility.yul\":4683:5012   */\n    tag_43:\n        /* \"#utility.yul\":4742:4748   */\n      0x00\n        /* \"#utility.yul\":4791:4793   */\n      0x20\n        /* \"#utility.yul\":4779:4788   */\n      dup3\n        /* \"#utility.yul\":4770:4777   */\n      dup5\n        /* \"#utility.yul\":4766:4789   */\n      sub\n        /* \"#utility.yul\":4762:4794   */\n      slt\n        /* \"#utility.yul\":4759:4878   */\n      iszero\n      tag_220\n      jumpi\n        /* \"#utility.yul\":4797:4876   */\n      tag_221\n      tag_133\n      jump\t// in\n    tag_221:\n        /* \"#utility.yul\":4759:4878   */\n    tag_220:\n        /* \"#utility.yul\":4917:4918   */\n      0x00\n        /* \"#utility.yul\":4942:4995   */\n      tag_222\n        /* \"#utility.yul\":4987:4994   */\n      dup5\n        /* \"#utility.yul\":4978:4984   */\n      dup3\n        /* \"#utility.yul\":4967:4976   */\n      dup6\n        /* \"#utility.yul\":4963:4985   */\n      add\n        /* \"#utility.yul\":4942:4995   */\n      tag_138\n      jump\t// in\n    tag_222:\n        /* \"#utility.yul\":4932:4995   */\n      swap2\n      pop\n        /* \"#utility.yul\":4888:5005   */\n      pop\n        /* \"#utility.yul\":4683:5012   */\n      swap3\n      swap2\n      pop\n      pop\n      jump\t// out\n        /* \"#utility.yul\":5018:5108   */\n    tag_144:\n        /* \"#utility.yul\":5052:5059   */\n      0x00\n        /* \"#utility.yul\":5095:5100   */\n      dup2\n        /* \"#utility.yul\":5088:5101   */\n      iszero\n        /* \"#utility.yul\":5081:5102   */\n      iszero\n        /* \"#utility.yul\":5070:5102   */\n      swap1\n      pop\n        /* \"#utility.yul\":5018:5108   */\n      swap2\n      swap1\n      pop\n      jump\t// out\n        /* \"#utility.yul\":5114:5230   */\n    tag_145:\n        /* \"#utility.yul\":5184:5205   */\n      tag_225\n        /* \"#utility.yul\":5199:5204   */\n      dup2\n        /* \"#utility.yul\":5184:5205   */\n      tag_144\n      jump\t// in\n    tag_225:\n        /* \"#utility.yul\":5177:5182   */\n      dup2\n        /* \"#utility.yul\":5174:5206   */\n      eq\n        /* \"#utility.yul\":5164:5224   */\n      tag_226\n      jumpi\n        /* \"#utility.yul\":5220:5221   */\n      0x00\n        /* \"#utility.yul\":5217:5218   */\n      dup1\n        /* \"#utility.yul\":5210:5222   */\n      revert\n        /* \"#utility.yul\":5164:5224   */\n    tag_226:\n        /* \"#utility.yul\":5114:5230   */\n      pop\n      jump\t// out\n        /* \"#utility.yul\":5236:5369   */\n    tag_146:\n        /* \"#utility.yul\":5279:5284   */\n      0x00\n        /* \"#utility.yul\":5317:5323   */\n      dup2\n        /* \"#utility.yul\":5304:5324   */\n      calldataload\n        /* \"#utility.yul\":5295:5324   */\n      swap1\n      pop\n        /* \"#utility.yul\":5333:5363   */\n      tag_228\n        /* \"#utility.yul\":5357:5362   */\n      dup2\n        /* \"#utility.yul\":5333:5363   */\n      tag_145\n      jump\t// in\n    tag_228:\n        /* \"#utility.yul\":5236:5369   */\n      swap3\n      swap2\n      pop\n      pop\n      jump\t// out\n        /* \"#utility.yul\":5375:5843   */\n    tag_61:\n        /* \"#utility.yul\":5440:5446   */\n      0x00\n        /* \"#utility.yul\":5448:5454   */\n      dup1\n        /* \"#utility.yul\":5497:5499   */\n      0x40\n        /* \"#utility.yul\":5485:5494   */\n      dup4\n        /* \"#utility.yul\":5476:5483   */\n      dup6\n        /* \"#utility.yul\":5472:5495   */\n      sub\n        /* \"#utility.yul\":5468:5500   */\n      slt\n        /* \"#utility.yul\":5465:5584   */\n      iszero\n      tag_230\n      jumpi\n        /* \"#utility.yul\":5503:5582   */\n      tag_231\n      tag_133\n      jump\t// in\n    tag_231:\n        /* \"#utility.yul\":5465:5584   */\n    tag_230:\n        /* \"#utility.yul\":5623:5624   */\n      0x00\n        /* \"#utility.yul\":5648:5701   */\n      tag_232\n        /* \"#utility.yul\":5693:5700   */\n      dup6\n        /* \"#utility.yul\":5684:5690   */\n      dup3\n        /* \"#utility.yul\":5673:5682   */\n      dup7\n        /* \"#utility.yul\":5669:5691   */\n      add\n        /* \"#utility.yul\":5648:5701   */\n      tag_138\n      jump\t// in\n    tag_232:\n        /* \"#utility.yul\":5638:5701   */\n      swap3\n      pop\n        /* \"#utility.yul\":5594:5711   */\n      pop\n        /* \"#utility.yul\":5750:5752   */\n      0x20\n        /* \"#utility.yul\":5776:5826   */\n      tag_233\n        /* \"#utility.yul\":5818:5825   */\n      dup6\n        /* \"#utility.yul\":5809:5815   */\n      dup3\n        /* \"#utility.yul\":5798:5807   */\n      dup7\n        /* \"#utility.yul\":5794:5816   */\n      add\n        /* \"#utility.yul\":5776:5826   */\n      tag_146\n      jump\t// in\n    tag_233:\n        /* \"#utility.yul\":5766:5826   */\n      swap2\n      pop\n        /* \"#utility.yul\":5721:5836   */\n      pop\n        /* \"#utility.yul\":5375:5843   */\n      swap3\n      pop\n      swap3\n      swap1\n      pop\n      jump\t// out\n        /* \"#utility.yul\":5849:6323   */\n    tag_66:\n        /* \"#utility.yul\":5917:5923   */\n      0x00\n        /* \"#utility.yul\":5925:5931   */\n      dup1\n        /* \"#utility.yul\":5974:5976   */\n      0x40\n        /* \"#utility.yul\":5962:5971   */\n      dup4\n        /* \"#utility.yul\":5953:5960   */\n      dup6\n        /* \"#utility.yul\":5949:5972   */\n      sub\n        /* \"#utility.yul\":5945:5977   */\n      slt\n        /* \"#utility.yul\":5942:6061   */\n      iszero\n      tag_235\n      jumpi\n        /* \"#utility.yul\":5980:6059   */\n      tag_236\n      tag_133\n      jump\t// in\n    tag_236:\n        /* \"#utility.yul\":5942:6061   */\n    tag_235:\n        /* \"#utility.yul\":6100:6101   */\n      0x00\n        /* \"#utility.yul\":6125:6178   */\n      tag_237\n        /* \"#utility.yul\":6170:6177   */\n      dup6\n        /* \"#utility.yul\":6161:6167   */\n      dup3\n        /* \"#utility.yul\":6150:6159   */\n      dup7\n        /* \"#utility.yul\":6146:6168   */\n      add\n        /* \"#utility.yul\":6125:6178   */\n      tag_138\n      jump\t// in\n    tag_237:\n        /* \"#utility.yul\":6115:6178   */\n      swap3\n      pop\n        /* \"#utility.yul\":6071:6188   */\n      pop\n        /* \"#utility.yul\":6227:6229   */\n      0x20\n        /* \"#utility.yul\":6253:6306   */\n      tag_238\n        /* \"#utility.yul\":6298:6305   */\n      dup6\n        /* \"#utility.yul\":6289:6295   */\n      dup3\n        /* \"#utility.yul\":6278:6287   */\n      dup7\n        /* \"#utility.yul\":6274:6296   */\n      add\n        /* \"#utility.yul\":6253:6306   */\n      tag_138\n      jump\t// in\n    tag_238:\n        /* \"#utility.yul\":6243:6306   */\n      swap2\n      pop\n        /* \"#utility.yul\":6198:6316   */\n      pop\n        /* \"#utility.yul\":5849:6323   */\n      swap3\n      pop\n      swap3\n      swap1\n      pop\n      jump\t// out\n        /* \"#utility.yul\":6329:6438   */\n    tag_147:\n        /* \"#utility.yul\":6410:6431   */\n      tag_240\n        /* \"#utility.yul\":6425:6430   */\n      dup2\n        /* \"#utility.yul\":6410:6431   */\n      tag_144\n      jump\t// in\n    tag_240:\n        /* \"#utility.yul\":6405:6408   */\n      dup3\n        /* \"#utility.yul\":6398:6432   */\n      mstore\n        /* \"#utility.yul\":6329:6438   */\n      pop\n      pop\n      jump\t// out\n        /* \"#utility.yul\":6444:6654   */\n    tag_69:\n        /* \"#utility.yul\":6531:6535   */\n      0x00\n        /* \"#utility.yul\":6569:6571   */\n      0x20\n        /* \"#utility.yul\":6558:6567   */\n      dup3\n        /* \"#utility.yul\":6554:6572   */\n      add\n        /* \"#utility.yul\":6546:6572   */\n      swap1\n      pop\n        /* \"#utility.yul\":6582:6647   */\n      tag_242\n        /* \"#utility.yul\":6644:6645   */\n      0x00\n        /* \"#utility.yul\":6633:6642   */\n      dup4\n        /* \"#utility.yul\":6629:6646   */\n      add\n        /* \"#utility.yul\":6620:6626   */\n      dup5\n        /* \"#utility.yul\":6582:6647   */\n      tag_147\n      jump\t// in\n    tag_242:\n        /* \"#utility.yul\":6444:6654   */\n      swap3\n      swap2\n      pop\n      pop\n      jump\t// out\n        /* \"#utility.yul\":6660:6840   */\n    tag_148:\n        /* \"#utility.yul\":6708:6785   */\n      0x4e487b7100000000000000000000000000000000000000000000000000000000\n        /* \"#utility.yul\":6705:6706   */\n      0x00\n        /* \"#utility.yul\":6698:6786   */\n      mstore\n        /* \"#utility.yul\":6805:6809   */\n      0x22\n        /* \"#utility.yul\":6802:6803   */\n      0x04\n        /* \"#utility.yul\":6795:6810   */\n      mstore\n        /* \"#utility.yul\":6829:6833   */\n      0x24\n        /* \"#utility.yul\":6826:6827   */\n      0x00\n        /* \"#utility.yul\":6819:6834   */\n      revert\n        /* \"#utility.yul\":6846:7166   */\n    tag_71:\n        /* \"#utility.yul\":6890:6896   */\n      0x00\n        /* \"#utility.yul\":6927:6928   */\n      0x02\n        /* \"#utility.yul\":6921:6925   */\n      dup3\n        /* \"#utility.yul\":6917:6929   */\n      div\n        /* \"#utility.yul\":6907:6929   */\n      swap1\n      pop\n        /* \"#utility.yul\":6974:6975   */\n      0x01\n        /* \"#utility.yul\":6968:6972   */\n      dup3\n        /* \"#utility.yul\":6964:6976   */\n      and\n        /* \"#utility.yul\":6995:7013   */\n      dup1\n        /* \"#utility.yul\":6985:7066   */\n      tag_245\n      jumpi\n        /* \"#utility.yul\":7051:7055   */\n      0x7f\n        /* \"#utility.yul\":7043:7049   */\n      dup3\n        /* \"#utility.yul\":7039:7056   */\n      and\n        /* \"#utility.yul\":7029:7056   */\n      swap2\n      pop\n        /* \"#utility.yul\":6985:7066   */\n    tag_245:\n        /* \"#utility.yul\":7113:7115   */\n      0x20\n        /* \"#utility.yul\":7105:7111   */\n      dup3\n        /* \"#utility.yul\":7102:7116   */\n      lt\n        /* \"#utility.yul\":7082:7100   */\n      dup2\n        /* \"#utility.yul\":7079:7117   */\n      sub\n        /* \"#utility.yul\":7076:7160   */\n      tag_246\n      jumpi\n        /* \"#utility.yul\":7132:7150   */\n      tag_247\n      tag_148\n      jump\t// in\n    tag_247:\n        /* \"#utility.yul\":7076:7160   */\n    tag_246:\n        /* \"#utility.yul\":6897:7166   */\n      pop\n        /* \"#utility.yul\":6846:7166   */\n      swap2\n      swap1\n      pop\n      jump\t// out\n        /* \"#utility.yul\":7172:7336   */\n    tag_149:\n        /* \"#utility.yul\":7312:7328   */\n      0x6e6f7420617574686f72697a6564000000000000000000000000000000000000\n        /* \"#utility.yul\":7308:7309   */\n      0x00\n        /* \"#utility.yul\":7300:7306   */\n      dup3\n        /* \"#utility.yul\":7296:7310   */\n      add\n        /* \"#utility.yul\":7289:7329   */\n      mstore\n        /* \"#utility.yul\":7172:7336   */\n      pop\n      jump\t// out\n        /* \"#utility.yul\":7342:7708   */\n    tag_150:\n        /* \"#utility.yul\":7484:7487   */\n      0x00\n        /* \"#utility.yul\":7505:7572   */\n      tag_250\n        /* \"#utility.yul\":7569:7571   */\n      0x0e\n        /* \"#utility.yul\":7564:7567   */\n      dup4\n        /* \"#utility.yul\":7505:7572   */\n      tag_128\n      jump\t// in\n    tag_250:\n        /* \"#utility.yul\":7498:7572   */\n      swap2\n      pop\n        /* \"#utility.yul\":7581:7674   */\n      tag_251\n        /* \"#utility.yul\":7670:7673   */\n      dup3\n        /* \"#utility.yul\":7581:7674   */\n      tag_149\n      jump\t// in\n    tag_251:\n        /* \"#utility.yul\":7699:7701   */\n      0x20\n        /* \"#utility.yul\":7694:7697   */\n      dup3\n        /* \"#utility.yul\":7690:7702   */\n      add\n        /* \"#utility.yul\":7683:7702   */\n      swap1\n      pop\n        /* \"#utility.yul\":7342:7708   */\n      swap2\n      swap1\n      pop\n      jump\t// out\n        /* \"#utility.yul\":7714:8133   */\n    tag_80:\n        /* \"#utility.yul\":7880:7884   */\n      0x00\n        /* \"#utility.yul\":7918:7920   */\n      0x20\n        /* \"#utility.yul\":7907:7916   */\n      dup3\n        /* \"#utility.yul\":7903:7921   */\n      add\n        /* \"#utility.yul\":7895:7921   */\n      swap1\n      pop\n        /* \"#utility.yul\":7967:7976   */\n      dup2\n        /* \"#utility.yul\":7961:7965   */\n      dup2\n        /* \"#utility.yul\":7957:7977   */\n      sub\n        /* \"#utility.yul\":7953:7954   */\n      0x00\n        /* \"#utility.yul\":7942:7951   */\n      dup4\n        /* \"#utility.yul\":7938:7955   */\n      add\n        /* \"#utility.yul\":7931:7978   */\n      mstore\n        /* \"#utility.yul\":7995:8126   */\n      tag_253\n        /* \"#utility.yul\":8121:8125   */\n      dup2\n        /* \"#utility.yul\":7995:8126   */\n      tag_150\n      jump\t// in\n    tag_253:\n        /* \"#utility.yul\":7987:8126   */\n      swap1\n      pop\n        /* \"#utility.yul\":7714:8133   */\n      swap2\n      swap1\n      pop\n      jump\t// out\n        /* \"#utility.yul\":8139:8302   */\n    tag_151:\n        /* \"#utility.yul\":8279:8294   */\n      0x66726f6d20213d206f776e657200000000000000000000000000000000000000\n        /* \"#utility.yul\":8275:8276   */\n      0x00\n        /* \"#utility.yul\":8267:8273   */\n      dup3\n        /* \"#utility.yul\":8263:8277   */\n      add\n        /* \"#utility.yul\":8256:8295   */\n      mstore\n        /* \"#utility.yul\":8139:8302   */\n      pop\n      jump\t// out\n        /* \"#utility.yul\":8308:8674   */\n    tag_152:\n        /* \"#utility.yul\":8450:8453   */\n      0x00\n        /* \"#utility.yul\":8471:8538   */\n      tag_256\n        /* \"#utility.yul\":8535:8537   */\n      0x0d\n        /* \"#utility.yul\":8530:8533   */\n      dup4\n        /* \"#utility.yul\":8471:8538   */\n      tag_128\n      jump\t// in\n    tag_256:\n        /* \"#utility.yul\":8464:8538   */\n      swap2\n      pop\n        /* \"#utility.yul\":8547:8640   */\n      tag_257\n        /* \"#utility.yul\":8636:8639   */\n      dup3\n        /* \"#utility.yul\":8547:8640   */\n      tag_151\n      jump\t// in\n    tag_257:\n        /* \"#utility.yul\":8665:8667   */\n      0x20\n        /* \"#utility.yul\":8660:8663   */\n      dup3\n        /* \"#utility.yul\":8656:8668   */\n      add\n        /* \"#utility.yul\":8649:8668   */\n      swap1\n      pop\n        /* \"#utility.yul\":8308:8674   */\n      swap2\n      swap1\n      pop\n      jump\t// out\n        /* \"#utility.yul\":8680:9099   */\n    tag_84:\n        /* \"#utility.yul\":8846:8850   */\n      0x00\n        /* \"#utility.yul\":8884:8886   */\n      0x20\n        /* \"#utility.yul\":8873:8882   */\n      dup3\n        /* \"#utility.yul\":8869:8887   */\n      add\n        /* \"#utility.yul\":8861:8887   */\n      swap1\n      pop\n        /* \"#utility.yul\":8933:8942   */\n      dup2\n        /* \"#utility.yul\":8927:8931   */\n      dup2\n        /* \"#utility.yul\":8923:8943   */\n      sub\n        /* \"#utility.yul\":8919:8920   */\n      0x00\n        /* \"#utility.yul\":8908:8917   */\n      dup4\n        /* \"#utility.yul\":8904:8921   */\n      add\n        /* \"#utility.yul\":8897:8944   */\n      mstore\n        /* \"#utility.yul\":8961:9092   */\n      tag_259\n        /* \"#utility.yul\":9087:9091   */\n      dup2\n        /* \"#utility.yul\":8961:9092   */\n      tag_152\n      jump\t// in\n    tag_259:\n        /* \"#utility.yul\":8953:9092   */\n      swap1\n      pop\n        /* \"#utility.yul\":8680:9099   */\n      swap2\n      swap1\n      pop\n      jump\t// out\n        /* \"#utility.yul\":9105:9279   */\n    tag_153:\n        /* \"#utility.yul\":9245:9271   */\n      0x7472616e7366657220746f207a65726f20616464726573730000000000000000\n        /* \"#utility.yul\":9241:9242   */\n      0x00\n        /* \"#utility.yul\":9233:9239   */\n      dup3\n        /* \"#utility.yul\":9229:9243   */\n      add\n        /* \"#utility.yul\":9222:9272   */\n      mstore\n        /* \"#utility.yul\":9105:9279   */\n      pop\n      jump\t// out\n        /* \"#utility.yul\":9285:9651   */\n    tag_154:\n        /* \"#utility.yul\":9427:9430   */\n      0x00\n        /* \"#utility.yul\":9448:9515   */\n      tag_262\n        /* \"#utility.yul\":9512:9514   */\n      0x18\n        /* \"#utility.yul\":9507:9510   */\n      dup4\n        /* \"#utility.yul\":9448:9515   */\n      tag_128\n      jump\t// in\n    tag_262:\n        /* \"#utility.yul\":9441:9515   */\n      swap2\n      pop\n        /* \"#utility.yul\":9524:9617   */\n      tag_263\n        /* \"#utility.yul\":9613:9616   */\n      dup3\n        /* \"#utility.yul\":9524:9617   */\n      tag_153\n      jump\t// in\n    tag_263:\n        /* \"#utility.yul\":9642:9644   */\n      0x20\n        /* \"#utility.yul\":9637:9640   */\n      dup3\n        /* \"#utility.yul\":9633:9645   */\n      add\n        /* \"#utility.yul\":9626:9645   */\n      swap1\n      pop\n        /* \"#utility.yul\":9285:9651   */\n      swap2\n      swap1\n      pop\n      jump\t// out\n        /* \"#utility.yul\":9657:10076   */\n    tag_87:\n        /* \"#utility.yul\":9823:9827   */\n      0x00\n        /* \"#utility.yul\":9861:9863   */\n      0x20\n        /* \"#utility.yul\":9850:9859   */\n      dup3\n        /* \"#utility.yul\":9846:9864   */\n      add\n        /* \"#utility.yul\":9838:9864   */\n      swap1\n      pop\n        /* \"#utility.yul\":9910:9919   */\n      dup2\n        /* \"#utility.yul\":9904:9908   */\n      dup2\n        /* \"#utility.yul\":9900:9920   */\n      sub\n        /* \"#utility.yul\":9896:9897   */\n      0x00\n        /* \"#utility.yul\":9885:9894   */\n      dup4\n        /* \"#utility.yul\":9881:9898   */\n      add\n        /* \"#utility.yul\":9874:9921   */\n      mstore\n        /* \"#utility.yul\":9938:10069   */\n      tag_265\n        /* \"#utility.yul\":10064:10068   */\n      dup2\n        /* \"#utility.yul\":9938:10069   */\n      tag_154\n      jump\t// in\n    tag_265:\n        /* \"#utility.yul\":9930:10069   */\n      swap1\n      pop\n        /* \"#utility.yul\":9657:10076   */\n      swap2\n      swap1\n      pop\n      jump\t// out\n        /* \"#utility.yul\":10082:10262   */\n    tag_155:\n        /* \"#utility.yul\":10130:10207   */\n      0x4e487b7100000000000000000000000000000000000000000000000000000000\n        /* \"#utility.yul\":10127:10128   */\n      0x00\n        /* \"#utility.yul\":10120:10208   */\n      mstore\n        /* \"#utility.yul\":10227:10231   */\n      0x11\n        /* \"#utility.yul\":10224:10225   */\n      0x04\n        /* \"#utility.yul\":10217:10232   */\n      mstore\n        /* \"#utility.yul\":10251:10255   */\n      0x24\n        /* \"#utility.yul\":10248:10249   */\n      0x00\n        /* \"#utility.yul\":10241:10256   */\n      revert\n        /* \"#utility.yul\":10268:10439   */\n    tag_93:\n        /* \"#utility.yul\":10307:10310   */\n      0x00\n        /* \"#utility.yul\":10330:10354   */\n      tag_268\n        /* \"#utility.yul\":10348:10353   */\n      dup3\n        /* \"#utility.yul\":10330:10354   */\n      tag_139\n      jump\t// in\n    tag_268:\n        /* \"#utility.yul\":10321:10354   */\n      swap2\n      pop\n        /* \"#utility.yul\":10376:10380   */\n      0x00\n        /* \"#utility.yul\":10369:10374   */\n      dup3\n        /* \"#utility.yul\":10366:10381   */\n      sub\n        /* \"#utility.yul\":10363:10404   */\n      tag_269\n      jumpi\n        /* \"#utility.yul\":10384:10402   */\n      tag_270\n      tag_155\n      jump\t// in\n    tag_270:\n        /* \"#utility.yul\":10363:10404   */\n    tag_269:\n        /* \"#utility.yul\":10431:10432   */\n      0x01\n        /* \"#utility.yul\":10424:10429   */\n      dup3\n        /* \"#utility.yul\":10420:10433   */\n      sub\n        /* \"#utility.yul\":10413:10433   */\n      swap1\n      pop\n        /* \"#utility.yul\":10268:10439   */\n      swap2\n      swap1\n      pop\n      jump\t// out\n        /* \"#utility.yul\":10445:10678   */\n    tag_95:\n        /* \"#utility.yul\":10484:10487   */\n      0x00\n        /* \"#utility.yul\":10507:10531   */\n      tag_272\n        /* \"#utility.yul\":10525:10530   */\n      dup3\n        /* \"#utility.yul\":10507:10531   */\n      tag_139\n      jump\t// in\n    tag_272:\n        /* \"#utility.yul\":10498:10531   */\n      swap2\n      pop\n        /* \"#utility.yul\":10553:10619   */\n      0xffffffffffffffffffffffffffffffffffffffffffffffffffffffffffffffff\n        /* \"#utility.yul\":10546:10551   */\n      dup3\n        /* \"#utility.yul\":10543:10620   */\n      sub\n        /* \"#utility.yul\":10540:10643   */\n      tag_273\n      jumpi\n        /* \"#utility.yul\":10623:10641   */\n      tag_274\n      tag_155\n      jump\t// in\n    tag_274:\n        /* \"#utility.yul\":10540:10643   */\n    tag_273:\n        /* \"#utility.yul\":10670:10671   */\n      0x01\n        /* \"#utility.yul\":10663:10668   */\n      dup3\n        /* \"#utility.yul\":10659:10672   */\n      add\n        /* \"#utility.yul\":10652:10672   */\n      swap1\n      pop\n        /* \"#utility.yul\":10445:10678   */\n      swap2\n      swap1\n      pop\n      jump\t// out\n        /* \"#utility.yul\":10684:10853   */\n    tag_156:\n        /* \"#utility.yul\":10824:10845   */\n      0x746f6b656e20646f65736e277420657869737400000000000000000000000000\n        /* \"#utility.yul\":10820:10821   */\n      0x00\n        /* \"#utility.yul\":10812:10818   */\n      dup3\n        /* \"#utility.yul\":10808:10822   */\n      add\n        /* \"#utility.yul\":10801:10846   */\n      mstore\n        /* \"#utility.yul\":10684:10853   */\n      pop\n      jump\t// out\n        /* \"#utility.yul\":10859:11225   */\n    tag_157:\n        /* \"#utility.yul\":11001:11004   */\n      0x00\n        /* \"#utility.yul\":11022:11089   */\n      tag_277\n        /* \"#utility.yul\":11086:11088   */\n      0x13\n        /* \"#utility.yul\":11081:11084   */\n      dup4\n        /* \"#utility.yul\":11022:11089   */\n      tag_128\n      jump\t// in\n    tag_277:\n        /* \"#utility.yul\":11015:11089   */\n      swap2\n      pop\n        /* \"#utility.yul\":11098:11191   */\n      tag_278\n        /* \"#utility.yul\":11187:11190   */\n      dup3\n        /* \"#utility.yul\":11098:11191   */\n      tag_156\n      jump\t// in\n    tag_278:\n        /* \"#utility.yul\":11216:11218   */\n      0x20\n        /* \"#utility.yul\":11211:11214   */\n      dup3\n        /* \"#utility.yul\":11207:11219   */\n      add\n        /* \"#utility.yul\":11200:11219   */\n      swap1\n      pop\n        /* \"#utility.yul\":10859:11225   */\n      swap2\n      swap1\n      pop\n      jump\t// out\n        /* \"#utility.yul\":11231:11650   */\n    tag_99:\n        /* \"#utility.yul\":11397:11401   */\n      0x00\n        /* \"#utility.yul\":11435:11437   */\n      0x20\n        /* \"#utility.yul\":11424:11433   */\n      dup3\n        /* \"#utility.yul\":11420:11438   */\n      add\n        /* \"#utility.yul\":11412:11438   */\n      swap1\n      pop\n        /* \"#utility.yul\":11484:11493   */\n      dup2\n        /* \"#utility.yul\":11478:11482   */\n      dup2\n        /* \"#utility.yul\":11474:11494   */\n      sub\n        /* \"#utility.yul\":11470:11471   */\n      0x00\n        /* \"#utility.yul\":11459:11468   */\n      dup4\n        /* \"#utility.yul\":11455:11472   */\n      add\n        /* \"#utility.yul\":11448:11495   */\n      mstore\n        /* \"#utility.yul\":11512:11643   */\n      tag_280\n        /* \"#utility.yul\":11638:11642   */\n      dup2\n        /* \"#utility.yul\":11512:11643   */\n      tag_157\n      jump\t// in\n    tag_280:\n        /* \"#utility.yul\":11504:11643   */\n      swap1\n      pop\n        /* \"#utility.yul\":11231:11650   */\n      swap2\n      swap1\n      pop\n      jump\t// out\n        /* \"#utility.yul\":11656:11826   */\n    tag_158:\n        /* \"#utility.yul\":11796:11818   */\n      0x6f776e6572203d207a65726f2061646472657373000000000000000000000000\n        /* \"#utility.yul\":11792:11793   */\n      0x00\n        /* \"#utility.yul\":11784:11790   */\n      dup3\n        /* \"#utility.yul\":11780:11794   */\n      add\n        /* \"#utility.yul\":11773:11819   */\n      mstore\n        /* \"#utility.yul\":11656:11826   */\n      pop\n      jump\t// out\n        /* \"#utility.yul\":11832:12198   */\n    tag_159:\n        /* \"#utility.yul\":11974:11977   */\n      0x00\n        /* \"#utility.yul\":11995:12062   */\n      tag_283\n        /* \"#utility.yul\":12059:12061   */\n      0x14\n        /* \"#utility.yul\":12054:12057   */\n      dup4\n        /* \"#utility.yul\":11995:12062   */\n      tag_128\n      jump\t// in\n    tag_283:\n        /* \"#utility.yul\":11988:12062   */\n      swap2\n      pop\n        /* \"#utility.yul\":12071:12164   */\n      tag_284\n        /* \"#utility.yul\":12160:12163   */\n      dup3\n        /* \"#utility.yul\":12071:12164   */\n      tag_158\n      jump\t// in\n    tag_284:\n        /* \"#utility.yul\":12189:12191   */\n      0x20\n        /* \"#utility.yul\":12184:12187   */\n      dup3\n        /* \"#utility.yul\":12180:12192   */\n      add\n        /* \"#utility.yul\":12173:12192   */\n      swap1\n      pop\n        /* \"#utility.yul\":11832:12198   */\n      swap2\n      swap1\n      pop\n      jump\t// out\n        /* \"#utility.yul\":12204:12623   */\n    tag_108:\n        /* \"#utility.yul\":12370:12374   */\n      0x00\n        /* \"#utility.yul\":12408:12410   */\n      0x20\n        /* \"#utility.yul\":12397:12406   */\n      dup3\n        /* \"#utility.yul\":12393:12411   */\n      add\n        /* \"#utility.yul\":12385:12411   */\n      swap1\n      pop\n        /* \"#utility.yul\":12457:12466   */\n      dup2\n        /* \"#utility.yul\":12451:12455   */\n      dup2\n        /* \"#utility.yul\":12447:12467   */\n      sub\n        /* \"#utility.yul\":12443:12444   */\n      0x00\n        /* \"#utility.yul\":12432:12441   */\n      dup4\n        /* \"#utility.yul\":12428:12445   */\n      add\n        /* \"#utility.yul\":12421:12468   */\n      mstore\n        /* \"#utility.yul\":12485:12616   */\n      tag_286\n        /* \"#utility.yul\":12611:12615   */\n      dup2\n        /* \"#utility.yul\":12485:12616   */\n      tag_159\n      jump\t// in\n    tag_286:\n        /* \"#utility.yul\":12477:12616   */\n      swap1\n      pop\n        /* \"#utility.yul\":12204:12623   */\n      swap2\n      swap1\n      pop\n      jump\t// out\n        /* \"#utility.yul\":12629:12799   */\n    tag_160:\n        /* \"#utility.yul\":12769:12791   */\n      0x6d696e7420746f207a65726f2061646472657373000000000000000000000000\n        /* \"#utility.yul\":12765:12766   */\n      0x00\n        /* \"#utility.yul\":12757:12763   */\n      dup3\n        /* \"#utility.yul\":12753:12767   */\n      add\n        /* \"#utility.yul\":12746:12792   */\n      mstore\n        /* \"#utility.yul\":12629:12799   */\n      pop\n      jump\t// out\n        /* \"#utility.yul\":12805:13171   */\n    tag_161:\n        /* \"#utility.yul\":12947:12950   */\n      0x00\n        /* \"#utility.yul\":12968:13035   */\n      tag_289\n        /* \"#utility.yul\":13032:13034   */\n      0x14\n        /* \"#utility.yul\":13027:13030   */\n      dup4\n        /* \"#utility.yul\":12968:13035   */\n      tag_128\n      jump\t// in\n    tag_289:\n        /* \"#utility.yul\":12961:13035   */\n      swap2\n      pop\n        /* \"#utility.yul\":13044:13137   */\n      tag_290\n        /* \"#utility.yul\":13133:13136   */\n      dup3\n        /* \"#utility.yul\":13044:13137   */\n      tag_160\n      jump\t// in\n    tag_290:\n        /* \"#utility.yul\":13162:13164   */\n      0x20\n        /* \"#utility.yul\":13157:13160   */\n      dup3\n        /* \"#utility.yul\":13153:13165   */\n      add\n        /* \"#utility.yul\":13146:13165   */\n      swap1\n      pop\n        /* \"#utility.yul\":12805:13171   */\n      swap2\n      swap1\n      pop\n      jump\t// out\n        /* \"#utility.yul\":13177:13596   */\n    tag_122:\n        /* \"#utility.yul\":13343:13347   */\n      0x00\n        /* \"#utility.yul\":13381:13383   */\n      0x20\n        /* \"#utility.yul\":13370:13379   */\n      dup3\n        /* \"#utility.yul\":13366:13384   */\n      add\n        /* \"#utility.yul\":13358:13384   */\n      swap1\n      pop\n        /* \"#utility.yul\":13430:13439   */\n      dup2\n        /* \"#utility.yul\":13424:13428   */\n      dup2\n        /* \"#utility.yul\":13420:13440   */\n      sub\n        /* \"#utility.yul\":13416:13417   */\n      0x00\n        /* \"#utility.yul\":13405:13414   */\n      dup4\n        /* \"#utility.yul\":13401:13418   */\n      add\n        /* \"#utility.yul\":13394:13441   */\n      mstore\n        /* \"#utility.yul\":13458:13589   */\n      tag_292\n        /* \"#utility.yul\":13584:13588   */\n      dup2\n        /* \"#utility.yul\":13458:13589   */\n      tag_161\n      jump\t// in\n    tag_292:\n        /* \"#utility.yul\":13450:13589   */\n      swap1\n      pop\n        /* \"#utility.yul\":13177:13596   */\n      swap2\n      swap1\n      pop\n      jump\t// out\n        /* \"#utility.yul\":13602:13766   */\n    tag_162:\n        /* \"#utility.yul\":13742:13758   */\n      0x616c7265616479206d696e746564000000000000000000000000000000000000\n        /* \"#utility.yul\":13738:13739   */\n      0x00\n        /* \"#utility.yul\":13730:13736   */\n      dup3\n        /* \"#utility.yul\":13726:13740   */\n      add\n        /* \"#utility.yul\":13719:13759   */\n      mstore\n        /* \"#utility.yul\":13602:13766   */\n      pop\n      jump\t// out\n        /* \"#utility.yul\":13772:14138   */\n    tag_163:\n        /* \"#utility.yul\":13914:13917   */\n      0x00\n        /* \"#utility.yul\":13935:14002   */\n      tag_295\n        /* \"#utility.yul\":13999:14001   */\n      0x0e\n        /* \"#utility.yul\":13994:13997   */\n      dup4\n        /* \"#utility.yul\":13935:14002   */\n      tag_128\n      jump\t// in\n    tag_295:\n        /* \"#utility.yul\":13928:14002   */\n      swap2\n      pop\n        /* \"#utility.yul\":14011:14104   */\n      tag_296\n        /* \"#utility.yul\":14100:14103   */\n      dup3\n        /* \"#utility.yul\":14011:14104   */\n      tag_162\n      jump\t// in\n    tag_296:\n        /* \"#utility.yul\":14129:14131   */\n      0x20\n        /* \"#utility.yul\":14124:14127   */\n      dup3\n        /* \"#utility.yul\":14120:14132   */\n      add\n        /* \"#utility.yul\":14113:14132   */\n      swap1\n      pop\n        /* \"#utility.yul\":13772:14138   */\n      swap2\n      swap1\n      pop\n      jump\t// out\n        /* \"#utility.yul\":14144:14563   */\n    tag_125:\n        /* \"#utility.yul\":14310:14314   */\n      0x00\n        /* \"#utility.yul\":14348:14350   */\n      0x20\n        /* \"#utility.yul\":14337:14346   */\n      dup3\n        /* \"#utility.yul\":14333:14351   */\n      add\n        /* \"#utility.yul\":14325:14351   */\n      swap1\n      pop\n        /* \"#utility.yul\":14397:14406   */\n      dup2\n        /* \"#utility.yul\":14391:14395   */\n      dup2\n        /* \"#utility.yul\":14387:14407   */\n      sub\n        /* \"#utility.yul\":14383:14384   */\n      0x00\n        /* \"#utility.yul\":14372:14381   */\n      dup4\n        /* \"#utility.yul\":14368:14385   */\n      add\n        /* \"#utility.yul\":14361:14408   */\n      mstore\n        /* \"#utility.yul\":14425:14556   */\n      tag_298\n        /* \"#utility.yul\":14551:14555   */\n      dup2\n        /* \"#utility.yul\":14425:14556   */\n      tag_163\n      jump\t// in\n    tag_298:\n        /* \"#utility.yul\":14417:14556   */\n      swap1\n      pop\n        /* \"#utility.yul\":14144:14563   */\n      swap2\n      swap1\n      pop\n      jump\t// out\n\n    auxdata: 0xa264697066735822122097620d2ffae2bd05081dcfd0328bba10b50bec2217e189c5a66cdb39d2b37ec364736f6c63430008140033\n}\n",
				"bytecode": {
					"linkReferences": {},
					"object": "608060405234801562000010575f80fd5b5060405162001bf038038062001bf083398181016040528101906200003691906200022e565b835f908162000046919062000509565b50826001908162000058919062000509565b50816002819055508060038190555050505050620005ed565b5f604051905090565b5f80fd5b5f80fd5b5f80fd5b5f80fd5b5f601f19601f8301169050919050565b7f4e487b71000000000000000000000000000000000000000000000000000000005f52604160045260245ffd5b620000d2826200008a565b810181811067ffffffffffffffff82111715620000f457620000f36200009a565b5b80604052505050565b5f6200010862000071565b9050620001168282620000c7565b919050565b5f67ffffffffffffffff8211156200013857620001376200009a565b5b62000143826200008a565b9050602081019050919050565b5f5b838110156200016f57808201518184015260208101905062000152565b5f8484015250505050565b5f620001906200018a846200011b565b620000fd565b905082815260208101848484011115620001af57620001ae62000086565b5b620001bc84828562000150565b509392505050565b5f82601f830112620001db57620001da62000082565b5b8151620001ed8482602086016200017a565b91505092915050565b5f819050919050565b6200020a81620001f6565b811462000215575f80fd5b50565b5f815190506200022881620001ff565b92915050565b5f805f80608085870312156200024957620002486200007a565b5b5f85015167ffffffffffffffff8111156200026957620002686200007e565b5b6200027787828801620001c4565b945050602085015167ffffffffffffffff8111156200029b576200029a6200007e565b5b620002a987828801620001c4565b9350506040620002bc8782880162000218565b9250506060620002cf8782880162000218565b91505092959194509250565b5f81519050919050565b7f4e487b71000000000000000000000000000000000000000000000000000000005f52602260045260245ffd5b5f60028204905060018216806200032a57607f821691505b60208210810362000340576200033f620002e5565b5b50919050565b5f819050815f5260205f209050919050565b5f6020601f8301049050919050565b5f82821b905092915050565b5f60088302620003a47fffffffffffffffffffffffffffffffffffffffffffffffffffffffffffffffff8262000367565b620003b0868362000367565b95508019841693508086168417925050509392505050565b5f819050919050565b5f620003f1620003eb620003e584620001f6565b620003c8565b620001f6565b9050919050565b5f819050919050565b6200040c83620003d1565b620004246200041b82620003f8565b84845462000373565b825550505050565b5f90565b6200043a6200042c565b6200044781848462000401565b505050565b5b818110156200046e57620004625f8262000430565b6001810190506200044d565b5050565b601f821115620004bd57620004878162000346565b620004928462000358565b81016020851015620004a2578190505b620004ba620004b18562000358565b8301826200044c565b50505b505050565b5f82821c905092915050565b5f620004df5f1984600802620004c2565b1980831691505092915050565b5f620004f98383620004ce565b9150826002028217905092915050565b6200051482620002db565b67ffffffffffffffff81111562000530576200052f6200009a565b5b6200053c825462000312565b6200054982828562000472565b5f60209050601f8311600181146200057f575f84156200056a578287015190505b620005768582620004ec565b865550620005e5565b601f1984166200058f8662000346565b5f5b82811015620005b85784890151825560018201915060208501945060208101905062000591565b86831015620005d85784890151620005d4601f891682620004ce565b8355505b6001600288020188555050505b505050505050565b6115f580620005fb5f395ff3fe60806040526004361061009b575f3560e01c80636a627842116100635780636a6278421461017f57806370a082311461019b5780638a333b50146101d757806395d89b4114610201578063a22cb4651461022b578063e985e9c5146102535761009b565b806306fdde031461009f578063095ea7b3146100c95780631a4231a4146100f157806323b872dd1461011b5780636352211e14610143575b5f80fd5b3480156100aa575f80fd5b506100b361028f565b6040516100c09190610f31565b60405180910390f35b3480156100d4575f80fd5b506100ef60048036038101906100ea9190610fe2565b61031a565b005b3480156100fc575f80fd5b506101056104f7565b604051610112919061102f565b60405180910390f35b348015610126575f80fd5b50610141600480360381019061013c9190611048565b6104fd565b005b34801561014e575f80fd5b5061016960048036038101906101649190611098565b6107d9565b60405161017691906110d2565b60405180910390f35b610199600480360381019061019491906110eb565b610880565b005b3480156101a6575f80fd5b506101c160048036038101906101bc91906110eb565b610908565b6040516101ce919061102f565b60405180910390f35b3480156101e2575f80fd5b506101eb6109bc565b6040516101f8919061102f565b60405180910390f35b34801561020c575f80fd5b506102156109c2565b6040516102229190610f31565b60405180910390f35b348015610236575f80fd5b50610251600480360381019061024c919061114b565b610a4e565b005b34801561025e575f80fd5b5061027960048036038101906102749190611189565b610b46565b60405161028691906111d6565b60405180910390f35b5f805461029b9061121c565b80601f01602080910402602001604051908101604052809291908181526020018280546102c79061121c565b80156103125780601f106102e957610100808354040283529160200191610312565b820191905f5260205f20905b8154815290600101906020018083116102f557829003601f168201915b505050505081565b5f60055f8381526020019081526020015f205f9054906101000a900473ffffffffffffffffffffffffffffffffffffffff1690508073ffffffffffffffffffffffffffffffffffffffff163373ffffffffffffffffffffffffffffffffffffffff161480610409575060095f8273ffffffffffffffffffffffffffffffffffffffff1673ffffffffffffffffffffffffffffffffffffffff1681526020019081526020015f205f3373ffffffffffffffffffffffffffffffffffffffff1673ffffffffffffffffffffffffffffffffffffffff1681526020019081526020015f205f9054906101000a900460ff165b610448576040517f08c379a000000000000000000000000000000000000000000000000000000000815260040161043f90611296565b60405180910390fd5b8260085f8481526020019081526020015f205f6101000a81548173ffffffffffffffffffffffffffffffffffffffff021916908373ffffffffffffffffffffffffffffffffffffffff160217905550818373ffffffffffffffffffffffffffffffffffffffff168273ffffffffffffffffffffffffffffffffffffffff167f8c5be1e5ebec7d5bd14f71427d1e84f3dd0314c0f7b2291e5b200ac8c7c3b92560405160405180910390a4505050565b60025481565b60055f8281526020019081526020015f205f9054906101000a900473ffffffffffffffffffffffffffffffffffffffff1673ffffffffffffffffffffffffffffffffffffffff168373ffffffffffffffffffffffffffffffffffffffff161461059b576040517f08c379a0000000000000000000000000000000000000000000000000000000008152600401610592906112fe565b60405180910390fd5b5f73ffffffffffffffffffffffffffffffffffffffff168273ffffffffffffffffffffffffffffffffffffffff1603610609576040517f08c379a000000000000000000000000000000000000000000000000000000000815260040161060090611366565b60405180910390fd5b610614833383610b70565b610653576040517f08c379a000000000000000000000000000000000000000000000000000000000815260040161064a90611296565b60405180910390fd5b60075f8473ffffffffffffffffffffffffffffffffffffffff1673ffffffffffffffffffffffffffffffffffffffff1681526020019081526020015f205f8154809291906106a0906113b1565b919050555060075f8373ffffffffffffffffffffffffffffffffffffffff1673ffffffffffffffffffffffffffffffffffffffff1681526020019081526020015f205f8154809291906106f2906113d8565b91905055508160055f8381526020019081526020015f205f6101000a81548173ffffffffffffffffffffffffffffffffffffffff021916908373ffffffffffffffffffffffffffffffffffffffff16021790555060085f8281526020019081526020015f205f6101000a81549073ffffffffffffffffffffffffffffffffffffffff0219169055808273ffffffffffffffffffffffffffffffffffffffff168473ffffffffffffffffffffffffffffffffffffffff167fddf252ad1be2c89b69c2b068fc378daa952ba7f163c4a11628f55a4df523b3ef60405160405180910390a4505050565b5f60055f8381526020019081526020015f205f9054906101000a900473ffffffffffffffffffffffffffffffffffffffff1690505f73ffffffffffffffffffffffffffffffffffffffff168173ffffffffffffffffffffffffffffffffffffffff160361087b576040517f08c379a000000000000000000000000000000000000000000000000000000000815260040161087290611469565b60405180910390fd5b919050565b5f60045f815480929190610893906113d8565b9190505590506108a38282610c9b565b60065f8373ffffffffffffffffffffffffffffffffffffffff1673ffffffffffffffffffffffffffffffffffffffff1681526020019081526020015f2081908060018154018082558091505060019003905f5260205f20015f90919091909150555050565b5f8073ffffffffffffffffffffffffffffffffffffffff168273ffffffffffffffffffffffffffffffffffffffff1603610977576040517f08c379a000000000000000000000000000000000000000000000000000000000815260040161096e906114d1565b60405180910390fd5b60075f8373ffffffffffffffffffffffffffffffffffffffff1673ffffffffffffffffffffffffffffffffffffffff1681526020019081526020015f20549050919050565b60035481565b600180546109cf9061121c565b80601f01602080910402602001604051908101604052809291908181526020018280546109fb9061121c565b8015610a465780601f10610a1d57610100808354040283529160200191610a46565b820191905f5260205f20905b815481529060010190602001808311610a2957829003601f168201915b505050505081565b8060095f3373ffffffffffffffffffffffffffffffffffffffff1673ffffffffffffffffffffffffffffffffffffffff1681526020019081526020015f205f8473ffffffffffffffffffffffffffffffffffffffff1673ffffffffffffffffffffffffffffffffffffffff1681526020019081526020015f205f6101000a81548160ff0219169083151502179055508173ffffffffffffffffffffffffffffffffffffffff163373ffffffffffffffffffffffffffffffffffffffff167f17307eab39ab6107e8899845ad3d59bd9653f200f220920489ca2b5937696c3183604051610b3a91906111d6565b60405180910390a35050565b6009602052815f5260405f20602052805f5260405f205f915091509054906101000a900460ff1681565b5f8373ffffffffffffffffffffffffffffffffffffffff168373ffffffffffffffffffffffffffffffffffffffff161480610c2c575060095f8573ffffffffffffffffffffffffffffffffffffffff1673ffffffffffffffffffffffffffffffffffffffff1681526020019081526020015f205f8473ffffffffffffffffffffffffffffffffffffffff1673ffffffffffffffffffffffffffffffffffffffff1681526020019081526020015f205f9054906101000a900460ff165b80610c92575060085f8381526020019081526020015f205f9054906101000a900473ffffffffffffffffffffffffffffffffffffffff1673ffffffffffffffffffffffffffffffffffffffff168373ffffffffffffffffffffffffffffffffffffffff16145b90509392505050565b5f73ffffffffffffffffffffffffffffffffffffffff168273ffffffffffffffffffffffffffffffffffffffff1603610d09576040517f08c379a0000000000000000000000000000000000000000000000000000000008152600401610d0090611539565b60405180910390fd5b5f73ffffffffffffffffffffffffffffffffffffffff1660055f8381526020019081526020015f205f9054906101000a900473ffffffffffffffffffffffffffffffffffffffff1673ffffffffffffffffffffffffffffffffffffffff1614610da7576040517f08c379a0000000000000000000000000000000000000000000000000000000008152600401610d9e906115a1565b60405180910390fd5b60075f8373ffffffffffffffffffffffffffffffffffffffff1673ffffffffffffffffffffffffffffffffffffffff1681526020019081526020015f205f815480929190610df4906113d8565b91905055508160055f8381526020019081526020015f205f6101000a81548173ffffffffffffffffffffffffffffffffffffffff021916908373ffffffffffffffffffffffffffffffffffffffff160217905550808273ffffffffffffffffffffffffffffffffffffffff165f73ffffffffffffffffffffffffffffffffffffffff167fddf252ad1be2c89b69c2b068fc378daa952ba7f163c4a11628f55a4df523b3ef60405160405180910390a45050565b5f81519050919050565b5f82825260208201905092915050565b5f5b83811015610ede578082015181840152602081019050610ec3565b5f8484015250505050565b5f601f19601f8301169050919050565b5f610f0382610ea7565b610f0d8185610eb1565b9350610f1d818560208601610ec1565b610f2681610ee9565b840191505092915050565b5f6020820190508181035f830152610f498184610ef9565b905092915050565b5f80fd5b5f73ffffffffffffffffffffffffffffffffffffffff82169050919050565b5f610f7e82610f55565b9050919050565b610f8e81610f74565b8114610f98575f80fd5b50565b5f81359050610fa981610f85565b92915050565b5f819050919050565b610fc181610faf565b8114610fcb575f80fd5b50565b5f81359050610fdc81610fb8565b92915050565b5f8060408385031215610ff857610ff7610f51565b5b5f61100585828601610f9b565b925050602061101685828601610fce565b9150509250929050565b61102981610faf565b82525050565b5f6020820190506110425f830184611020565b92915050565b5f805f6060848603121561105f5761105e610f51565b5b5f61106c86828701610f9b565b935050602061107d86828701610f9b565b925050604061108e86828701610fce565b9150509250925092565b5f602082840312156110ad576110ac610f51565b5b5f6110ba84828501610fce565b91505092915050565b6110cc81610f74565b82525050565b5f6020820190506110e55f8301846110c3565b92915050565b5f60208284031215611100576110ff610f51565b5b5f61110d84828501610f9b565b91505092915050565b5f8115159050919050565b61112a81611116565b8114611134575f80fd5b50565b5f8135905061114581611121565b92915050565b5f806040838503121561116157611160610f51565b5b5f61116e85828601610f9b565b925050602061117f85828601611137565b9150509250929050565b5f806040838503121561119f5761119e610f51565b5b5f6111ac85828601610f9b565b92505060206111bd85828601610f9b565b9150509250929050565b6111d081611116565b82525050565b5f6020820190506111e95f8301846111c7565b92915050565b7f4e487b71000000000000000000000000000000000000000000000000000000005f52602260045260245ffd5b5f600282049050600182168061123357607f821691505b602082108103611246576112456111ef565b5b50919050565b7f6e6f7420617574686f72697a65640000000000000000000000000000000000005f82015250565b5f611280600e83610eb1565b915061128b8261124c565b602082019050919050565b5f6020820190508181035f8301526112ad81611274565b9050919050565b7f66726f6d20213d206f776e6572000000000000000000000000000000000000005f82015250565b5f6112e8600d83610eb1565b91506112f3826112b4565b602082019050919050565b5f6020820190508181035f830152611315816112dc565b9050919050565b7f7472616e7366657220746f207a65726f206164647265737300000000000000005f82015250565b5f611350601883610eb1565b915061135b8261131c565b602082019050919050565b5f6020820190508181035f83015261137d81611344565b9050919050565b7f4e487b71000000000000000000000000000000000000000000000000000000005f52601160045260245ffd5b5f6113bb82610faf565b91505f82036113cd576113cc611384565b5b600182039050919050565b5f6113e282610faf565b91507fffffffffffffffffffffffffffffffffffffffffffffffffffffffffffffffff820361141457611413611384565b5b600182019050919050565b7f746f6b656e20646f65736e2774206578697374000000000000000000000000005f82015250565b5f611453601383610eb1565b915061145e8261141f565b602082019050919050565b5f6020820190508181035f83015261148081611447565b9050919050565b7f6f776e6572203d207a65726f20616464726573730000000000000000000000005f82015250565b5f6114bb601483610eb1565b91506114c682611487565b602082019050919050565b5f6020820190508181035f8301526114e8816114af565b9050919050565b7f6d696e7420746f207a65726f20616464726573730000000000000000000000005f82015250565b5f611523601483610eb1565b915061152e826114ef565b602082019050919050565b5f6020820190508181035f83015261155081611517565b9050919050565b7f616c7265616479206d696e7465640000000000000000000000000000000000005f82015250565b5f61158b600e83610eb1565b915061159682611557565b602082019050919050565b5f6020820190508181035f8301526115b88161157f565b905091905056fea264697066735822122097620d2ffae2bd05081dcfd0328bba10b50bec2217e189c5a66cdb39d2b37ec364736f6c63430008140033",
					"opcodes": "PUSH1 0x80 PUSH1 0x40 MSTORE CALLVALUE DUP1 ISZERO PUSH3 0x10 JUMPI PUSH0 DUP1 REVERT JUMPDEST POP PUSH1 0x40 MLOAD PUSH3 0x1BF0 CODESIZE SUB DUP1 PUSH3 0x1BF0 DUP4 CODECOPY DUP2 DUP2 ADD PUSH1 0x40 MSTORE DUP2 ADD SWAP1 PUSH3 0x36 SWAP2 SWAP1 PUSH3 0x22E JUMP JUMPDEST DUP4 PUSH0 SWAP1 DUP2 PUSH3 0x46 SWAP2 SWAP1 PUSH3 0x509 JUMP JUMPDEST POP DUP3 PUSH1 0x1 SWAP1 DUP2 PUSH3 0x58 SWAP2 SWAP1 PUSH3 0x509 JUMP JUMPDEST POP DUP2 PUSH1 0x2 DUP2 SWAP1 SSTORE POP DUP1 PUSH1 0x3 DUP2 SWAP1 SSTORE POP POP POP POP POP PUSH3 0x5ED JUMP JUMPDEST PUSH0 PUSH1 0x40 MLOAD SWAP1 POP SWAP1 JUMP JUMPDEST PUSH0 DUP1 REVERT JUMPDEST PUSH0 DUP1 REVERT JUMPDEST PUSH0 DUP1 REVERT JUMPDEST PUSH0 DUP1 REVERT JUMPDEST PUSH0 PUSH1 0x1F NOT PUSH1 0x1F DUP4 ADD AND SWAP1 POP SWAP2 SWAP1 POP JUMP JUMPDEST PUSH32 0x4E487B7100000000000000000000000000000000000000000000000000000000 PUSH0 MSTORE PUSH1 0x41 PUSH1 0x4 MSTORE PUSH1 0x24 PUSH0 REVERT JUMPDEST PUSH3 0xD2 DUP3 PUSH3 0x8A JUMP JUMPDEST DUP2 ADD DUP2 DUP2 LT PUSH8 0xFFFFFFFFFFFFFFFF DUP3 GT OR ISZERO PUSH3 0xF4 JUMPI PUSH3 0xF3 PUSH3 0x9A JUMP JUMPDEST JUMPDEST DUP1 PUSH1 0x40 MSTORE POP POP POP JUMP JUMPDEST PUSH0 PUSH3 0x108 PUSH3 0x71 JUMP JUMPDEST SWAP1 POP PUSH3 0x116 DUP3 DUP3 PUSH3 0xC7 JUMP JUMPDEST SWAP2 SWAP1 POP JUMP JUMPDEST PUSH0 PUSH8 0xFFFFFFFFFFFFFFFF DUP3 GT ISZERO PUSH3 0x138 JUMPI PUSH3 0x137 PUSH3 0x9A JUMP JUMPDEST JUMPDEST PUSH3 0x143 DUP3 PUSH3 0x8A JUMP JUMPDEST SWAP1 POP PUSH1 0x20 DUP2 ADD SWAP1 POP SWAP2 SWAP1 POP JUMP JUMPDEST PUSH0 JUMPDEST DUP4 DUP2 LT ISZERO PUSH3 0x16F JUMPI DUP1 DUP3 ADD MLOAD DUP2 DUP5 ADD MSTORE PUSH1 0x20 DUP2 ADD SWAP1 POP PUSH3 0x152 JUMP JUMPDEST PUSH0 DUP5 DUP5 ADD MSTORE POP POP POP POP JUMP JUMPDEST PUSH0 PUSH3 0x190 PUSH3 0x18A DUP5 PUSH3 0x11B JUMP JUMPDEST PUSH3 0xFD JUMP JUMPDEST SWAP1 POP DUP3 DUP2 MSTORE PUSH1 0x20 DUP2 ADD DUP5 DUP5 DUP5 ADD GT ISZERO PUSH3 0x1AF JUMPI PUSH3 0x1AE PUSH3 0x86 JUMP JUMPDEST JUMPDEST PUSH3 0x1BC DUP5 DUP3 DUP6 PUSH3 0x150 JUMP JUMPDEST POP SWAP4 SWAP3 POP POP POP JUMP JUMPDEST PUSH0 DUP3 PUSH1 0x1F DUP4 ADD SLT PUSH3 0x1DB JUMPI PUSH3 0x1DA PUSH3 0x82 JUMP JUMPDEST JUMPDEST DUP2 MLOAD PUSH3 0x1ED DUP5 DUP3 PUSH1 0x20 DUP7 ADD PUSH3 0x17A JUMP JUMPDEST SWAP2 POP POP SWAP3 SWAP2 POP POP JUMP JUMPDEST PUSH0 DUP2 SWAP1 POP SWAP2 SWAP1 POP JUMP JUMPDEST PUSH3 0x20A DUP2 PUSH3 0x1F6 JUMP JUMPDEST DUP2 EQ PUSH3 0x215 JUMPI PUSH0 DUP1 REVERT JUMPDEST POP JUMP JUMPDEST PUSH0 DUP2 MLOAD SWAP1 POP PUSH3 0x228 DUP2 PUSH3 0x1FF JUMP JUMPDEST SWAP3 SWAP2 POP POP JUMP JUMPDEST PUSH0 DUP1 PUSH0 DUP1 PUSH1 0x80 DUP6 DUP8 SUB SLT ISZERO PUSH3 0x249 JUMPI PUSH3 0x248 PUSH3 0x7A JUMP JUMPDEST JUMPDEST PUSH0 DUP6 ADD MLOAD PUSH8 0xFFFFFFFFFFFFFFFF DUP2 GT ISZERO PUSH3 0x269 JUMPI PUSH3 0x268 PUSH3 0x7E JUMP JUMPDEST JUMPDEST PUSH3 0x277 DUP8 DUP3 DUP9 ADD PUSH3 0x1C4 JUMP JUMPDEST SWAP5 POP POP PUSH1 0x20 DUP6 ADD MLOAD PUSH8 0xFFFFFFFFFFFFFFFF DUP2 GT ISZERO PUSH3 0x29B JUMPI PUSH3 0x29A PUSH3 0x7E JUMP JUMPDEST JUMPDEST PUSH3 0x2A9 DUP8 DUP3 DUP9 ADD PUSH3 0x1C4 JUMP JUMPDEST SWAP4 POP POP PUSH1 0x40 PUSH3 0x2BC DUP8 DUP3 DUP9 ADD PUSH3 0x218 JUMP JUMPDEST SWAP3 POP POP PUSH1 0x60 PUSH3 0x2CF DUP8 DUP3 DUP9 ADD PUSH3 0x218 JUMP JUMPDEST SWAP2 POP POP SWAP3 SWAP6 SWAP2 SWAP5 POP SWAP3 POP JUMP JUMPDEST PUSH0 DUP2 MLOAD SWAP1 POP SWAP2 SWAP1 POP JUMP JUMPDEST PUSH32 0x4E487B7100000000000000000000000000000000000000000000000000000000 PUSH0 MSTORE PUSH1 0x22 PUSH1 0x4 MSTORE PUSH1 0x24 PUSH0 REVERT JUMPDEST PUSH0 PUSH1 0x2 DUP3 DIV SWAP1 POP PUSH1 0x1 DUP3 AND DUP1 PUSH3 0x32A JUMPI PUSH1 0x7F DUP3 AND SWAP2 POP JUMPDEST PUSH1 0x20 DUP3 LT DUP2 SUB PUSH3 0x340 JUMPI PUSH3 0x33F PUSH3 0x2E5 JUMP JUMPDEST JUMPDEST POP SWAP2 SWAP1 POP JUMP JUMPDEST PUSH0 DUP2 SWAP1 POP DUP2 PUSH0 MSTORE PUSH1 0x20 PUSH0 KECCAK256 SWAP1 POP SWAP2 SWAP1 POP JUMP JUMPDEST PUSH0 PUSH1 0x20 PUSH1 0x1F DUP4 ADD DIV SWAP1 POP SWAP2 SWAP1 POP JUMP JUMPDEST PUSH0 DUP3 DUP3 SHL SWAP1 POP SWAP3 SWAP2 POP POP JUMP JUMPDEST PUSH0 PUSH1 0x8 DUP4 MUL PUSH3 0x3A4 PUSH32 0xFFFFFFFFFFFFFFFFFFFFFFFFFFFFFFFFFFFFFFFFFFFFFFFFFFFFFFFFFFFFFFFF DUP3 PUSH3 0x367 JUMP JUMPDEST PUSH3 0x3B0 DUP7 DUP4 PUSH3 0x367 JUMP JUMPDEST SWAP6 POP DUP1 NOT DUP5 AND SWAP4 POP DUP1 DUP7 AND DUP5 OR SWAP3 POP POP POP SWAP4 SWAP3 POP POP POP JUMP JUMPDEST PUSH0 DUP2 SWAP1 POP SWAP2 SWAP1 POP JUMP JUMPDEST PUSH0 PUSH3 0x3F1 PUSH3 0x3EB PUSH3 0x3E5 DUP5 PUSH3 0x1F6 JUMP JUMPDEST PUSH3 0x3C8 JUMP JUMPDEST PUSH3 0x1F6 JUMP JUMPDEST SWAP1 POP SWAP2 SWAP1 POP JUMP JUMPDEST PUSH0 DUP2 SWAP1 POP SWAP2 SWAP1 POP JUMP JUMPDEST PUSH3 0x40C DUP4 PUSH3 0x3D1 JUMP JUMPDEST PUSH3 0x424 PUSH3 0x41B DUP3 PUSH3 0x3F8 JUMP JUMPDEST DUP5 DUP5 SLOAD PUSH3 0x373 JUMP JUMPDEST DUP3 SSTORE POP POP POP POP JUMP JUMPDEST PUSH0 SWAP1 JUMP JUMPDEST PUSH3 0x43A PUSH3 0x42C JUMP JUMPDEST PUSH3 0x447 DUP2 DUP5 DUP5 PUSH3 0x401 JUMP JUMPDEST POP POP POP JUMP JUMPDEST JUMPDEST DUP2 DUP2 LT ISZERO PUSH3 0x46E JUMPI PUSH3 0x462 PUSH0 DUP3 PUSH3 0x430 JUMP JUMPDEST PUSH1 0x1 DUP2 ADD SWAP1 POP PUSH3 0x44D JUMP JUMPDEST POP POP JUMP JUMPDEST PUSH1 0x1F DUP3 GT ISZERO PUSH3 0x4BD JUMPI PUSH3 0x487 DUP2 PUSH3 0x346 JUMP JUMPDEST PUSH3 0x492 DUP5 PUSH3 0x358 JUMP JUMPDEST DUP2 ADD PUSH1 0x20 DUP6 LT ISZERO PUSH3 0x4A2 JUMPI DUP2 SWAP1 POP JUMPDEST PUSH3 0x4BA PUSH3 0x4B1 DUP6 PUSH3 0x358 JUMP JUMPDEST DUP4 ADD DUP3 PUSH3 0x44C JUMP JUMPDEST POP POP JUMPDEST POP POP POP JUMP JUMPDEST PUSH0 DUP3 DUP3 SHR SWAP1 POP SWAP3 SWAP2 POP POP JUMP JUMPDEST PUSH0 PUSH3 0x4DF PUSH0 NOT DUP5 PUSH1 0x8 MUL PUSH3 0x4C2 JUMP JUMPDEST NOT DUP1 DUP4 AND SWAP2 POP POP SWAP3 SWAP2 POP POP JUMP JUMPDEST PUSH0 PUSH3 0x4F9 DUP4 DUP4 PUSH3 0x4CE JUMP JUMPDEST SWAP2 POP DUP3 PUSH1 0x2 MUL DUP3 OR SWAP1 POP SWAP3 SWAP2 POP POP JUMP JUMPDEST PUSH3 0x514 DUP3 PUSH3 0x2DB JUMP JUMPDEST PUSH8 0xFFFFFFFFFFFFFFFF DUP2 GT ISZERO PUSH3 0x530 JUMPI PUSH3 0x52F PUSH3 0x9A JUMP JUMPDEST JUMPDEST PUSH3 0x53C DUP3 SLOAD PUSH3 0x312 JUMP JUMPDEST PUSH3 0x549 DUP3 DUP3 DUP6 PUSH3 0x472 JUMP JUMPDEST PUSH0 PUSH1 0x20 SWAP1 POP PUSH1 0x1F DUP4 GT PUSH1 0x1 DUP2 EQ PUSH3 0x57F JUMPI PUSH0 DUP5 ISZERO PUSH3 0x56A JUMPI DUP3 DUP8 ADD MLOAD SWAP1 POP JUMPDEST PUSH3 0x576 DUP6 DUP3 PUSH3 0x4EC JUMP JUMPDEST DUP7 SSTORE POP PUSH3 0x5E5 JUMP JUMPDEST PUSH1 0x1F NOT DUP5 AND PUSH3 0x58F DUP7 PUSH3 0x346 JUMP JUMPDEST PUSH0 JUMPDEST DUP3 DUP2 LT ISZERO PUSH3 0x5B8 JUMPI DUP5 DUP10 ADD MLOAD DUP3 SSTORE PUSH1 0x1 DUP3 ADD SWAP2 POP PUSH1 0x20 DUP6 ADD SWAP5 POP PUSH1 0x20 DUP2 ADD SWAP1 POP PUSH3 0x591 JUMP JUMPDEST DUP7 DUP4 LT ISZERO PUSH3 0x5D8 JUMPI DUP5 DUP10 ADD MLOAD PUSH3 0x5D4 PUSH1 0x1F DUP10 AND DUP3 PUSH3 0x4CE JUMP JUMPDEST DUP4 SSTORE POP JUMPDEST PUSH1 0x1 PUSH1 0x2 DUP9 MUL ADD DUP9 SSTORE POP POP POP JUMPDEST POP POP POP POP POP POP JUMP JUMPDEST PUSH2 0x15F5 DUP1 PUSH3 0x5FB PUSH0 CODECOPY PUSH0 RETURN INVALID PUSH1 0x80 PUSH1 0x40 MSTORE PUSH1 0x4 CALLDATASIZE LT PUSH2 0x9B JUMPI PUSH0 CALLDATALOAD PUSH1 0xE0 SHR DUP1 PUSH4 0x6A627842 GT PUSH2 0x63 JUMPI DUP1 PUSH4 0x6A627842 EQ PUSH2 0x17F JUMPI DUP1 PUSH4 0x70A08231 EQ PUSH2 0x19B JUMPI DUP1 PUSH4 0x8A333B50 EQ PUSH2 0x1D7 JUMPI DUP1 PUSH4 0x95D89B41 EQ PUSH2 0x201 JUMPI DUP1 PUSH4 0xA22CB465 EQ PUSH2 0x22B JUMPI DUP1 PUSH4 0xE985E9C5 EQ PUSH2 0x253 JUMPI PUSH2 0x9B JUMP JUMPDEST DUP1 PUSH4 0x6FDDE03 EQ PUSH2 0x9F JUMPI DUP1 PUSH4 0x95EA7B3 EQ PUSH2 0xC9 JUMPI DUP1 PUSH4 0x1A4231A4 EQ PUSH2 0xF1 JUMPI DUP1 PUSH4 0x23B872DD EQ PUSH2 0x11B JUMPI DUP1 PUSH4 0x6352211E EQ PUSH2 0x143 JUMPI JUMPDEST PUSH0 DUP1 REVERT JUMPDEST CALLVALUE DUP1 ISZERO PUSH2 0xAA JUMPI PUSH0 DUP1 REVERT JUMPDEST POP PUSH2 0xB3 PUSH2 0x28F JUMP JUMPDEST PUSH1 0x40 MLOAD PUSH2 0xC0 SWAP2 SWAP1 PUSH2 0xF31 JUMP JUMPDEST PUSH1 0x40 MLOAD DUP1 SWAP2 SUB SWAP1 RETURN JUMPDEST CALLVALUE DUP1 ISZERO PUSH2 0xD4 JUMPI PUSH0 DUP1 REVERT JUMPDEST POP PUSH2 0xEF PUSH1 0x4 DUP1 CALLDATASIZE SUB DUP2 ADD SWAP1 PUSH2 0xEA SWAP2 SWAP1 PUSH2 0xFE2 JUMP JUMPDEST PUSH2 0x31A JUMP JUMPDEST STOP JUMPDEST CALLVALUE DUP1 ISZERO PUSH2 0xFC JUMPI PUSH0 DUP1 REVERT JUMPDEST POP PUSH2 0x105 PUSH2 0x4F7 JUMP JUMPDEST PUSH1 0x40 MLOAD PUSH2 0x112 SWAP2 SWAP1 PUSH2 0x102F JUMP JUMPDEST PUSH1 0x40 MLOAD DUP1 SWAP2 SUB SWAP1 RETURN JUMPDEST CALLVALUE DUP1 ISZERO PUSH2 0x126 JUMPI PUSH0 DUP1 REVERT JUMPDEST POP PUSH2 0x141 PUSH1 0x4 DUP1 CALLDATASIZE SUB DUP2 ADD SWAP1 PUSH2 0x13C SWAP2 SWAP1 PUSH2 0x1048 JUMP JUMPDEST PUSH2 0x4FD JUMP JUMPDEST STOP JUMPDEST CALLVALUE DUP1 ISZERO PUSH2 0x14E JUMPI PUSH0 DUP1 REVERT JUMPDEST POP PUSH2 0x169 PUSH1 0x4 DUP1 CALLDATASIZE SUB DUP2 ADD SWAP1 PUSH2 0x164 SWAP2 SWAP1 PUSH2 0x1098 JUMP JUMPDEST PUSH2 0x7D9 JUMP JUMPDEST PUSH1 0x40 MLOAD PUSH2 0x176 SWAP2 SWAP1 PUSH2 0x10D2 JUMP JUMPDEST PUSH1 0x40 MLOAD DUP1 SWAP2 SUB SWAP1 RETURN JUMPDEST PUSH2 0x199 PUSH1 0x4 DUP1 CALLDATASIZE SUB DUP2 ADD SWAP1 PUSH2 0x194 SWAP2 SWAP1 PUSH2 0x10EB JUMP JUMPDEST PUSH2 0x880 JUMP JUMPDEST STOP JUMPDEST CALLVALUE DUP1 ISZERO PUSH2 0x1A6 JUMPI PUSH0 DUP1 REVERT JUMPDEST POP PUSH2 0x1C1 PUSH1 0x4 DUP1 CALLDATASIZE SUB DUP2 ADD SWAP1 PUSH2 0x1BC SWAP2 SWAP1 PUSH2 0x10EB JUMP JUMPDEST PUSH2 0x908 JUMP JUMPDEST PUSH1 0x40 MLOAD PUSH2 0x1CE SWAP2 SWAP1 PUSH2 0x102F JUMP JUMPDEST PUSH1 0x40 MLOAD DUP1 SWAP2 SUB SWAP1 RETURN JUMPDEST CALLVALUE DUP1 ISZERO PUSH2 0x1E2 JUMPI PUSH0 DUP1 REVERT JUMPDEST POP PUSH2 0x1EB PUSH2 0x9BC JUMP JUMPDEST PUSH1 0x40 MLOAD PUSH2 0x1F8 SWAP2 SWAP1 PUSH2 0x102F JUMP JUMPDEST PUSH1 0x40 MLOAD DUP1 SWAP2 SUB SWAP1 RETURN JUMPDEST CALLVALUE DUP1 ISZERO PUSH2 0x20C JUMPI PUSH0 DUP1 REVERT JUMPDEST POP PUSH2 0x215 PUSH2 0x9C2 JUMP JUMPDEST PUSH1 0x40 MLOAD PUSH2 0x222 SWAP2 SWAP1 PUSH2 0xF31 JUMP JUMPDEST PUSH1 0x40 MLOAD DUP1 SWAP2 SUB SWAP1 RETURN JUMPDEST CALLVALUE DUP1 ISZERO PUSH2 0x236 JUMPI PUSH0 DUP1 REVERT JUMPDEST POP PUSH2 0x251 PUSH1 0x4 DUP1 CALLDATASIZE SUB DUP2 ADD SWAP1 PUSH2 0x24C SWAP2 SWAP1 PUSH2 0x114B JUMP JUMPDEST PUSH2 0xA4E JUMP JUMPDEST STOP JUMPDEST CALLVALUE DUP1 ISZERO PUSH2 0x25E JUMPI PUSH0 DUP1 REVERT JUMPDEST POP PUSH2 0x279 PUSH1 0x4 DUP1 CALLDATASIZE SUB DUP2 ADD SWAP1 PUSH2 0x274 SWAP2 SWAP1 PUSH2 0x1189 JUMP JUMPDEST PUSH2 0xB46 JUMP JUMPDEST PUSH1 0x40 MLOAD PUSH2 0x286 SWAP2 SWAP1 PUSH2 0x11D6 JUMP JUMPDEST PUSH1 0x40 MLOAD DUP1 SWAP2 SUB SWAP1 RETURN JUMPDEST PUSH0 DUP1 SLOAD PUSH2 0x29B SWAP1 PUSH2 0x121C JUMP JUMPDEST DUP1 PUSH1 0x1F ADD PUSH1 0x20 DUP1 SWAP2 DIV MUL PUSH1 0x20 ADD PUSH1 0x40 MLOAD SWAP1 DUP2 ADD PUSH1 0x40 MSTORE DUP1 SWAP3 SWAP2 SWAP1 DUP2 DUP2 MSTORE PUSH1 0x20 ADD DUP3 DUP1 SLOAD PUSH2 0x2C7 SWAP1 PUSH2 0x121C JUMP JUMPDEST DUP1 ISZERO PUSH2 0x312 JUMPI DUP1 PUSH1 0x1F LT PUSH2 0x2E9 JUMPI PUSH2 0x100 DUP1 DUP4 SLOAD DIV MUL DUP4 MSTORE SWAP2 PUSH1 0x20 ADD SWAP2 PUSH2 0x312 JUMP JUMPDEST DUP3 ADD SWAP2 SWAP1 PUSH0 MSTORE PUSH1 0x20 PUSH0 KECCAK256 SWAP1 JUMPDEST DUP2 SLOAD DUP2 MSTORE SWAP1 PUSH1 0x1 ADD SWAP1 PUSH1 0x20 ADD DUP1 DUP4 GT PUSH2 0x2F5 JUMPI DUP3 SWAP1 SUB PUSH1 0x1F AND DUP3 ADD SWAP2 JUMPDEST POP POP POP POP POP DUP2 JUMP JUMPDEST PUSH0 PUSH1 0x5 PUSH0 DUP4 DUP2 MSTORE PUSH1 0x20 ADD SWAP1 DUP2 MSTORE PUSH1 0x20 ADD PUSH0 KECCAK256 PUSH0 SWAP1 SLOAD SWAP1 PUSH2 0x100 EXP SWAP1 DIV PUSH20 0xFFFFFFFFFFFFFFFFFFFFFFFFFFFFFFFFFFFFFFFF AND SWAP1 POP DUP1 PUSH20 0xFFFFFFFFFFFFFFFFFFFFFFFFFFFFFFFFFFFFFFFF AND CALLER PUSH20 0xFFFFFFFFFFFFFFFFFFFFFFFFFFFFFFFFFFFFFFFF AND EQ DUP1 PUSH2 0x409 JUMPI POP PUSH1 0x9 PUSH0 DUP3 PUSH20 0xFFFFFFFFFFFFFFFFFFFFFFFFFFFFFFFFFFFFFFFF AND PUSH20 0xFFFFFFFFFFFFFFFFFFFFFFFFFFFFFFFFFFFFFFFF AND DUP2 MSTORE PUSH1 0x20 ADD SWAP1 DUP2 MSTORE PUSH1 0x20 ADD PUSH0 KECCAK256 PUSH0 CALLER PUSH20 0xFFFFFFFFFFFFFFFFFFFFFFFFFFFFFFFFFFFFFFFF AND PUSH20 0xFFFFFFFFFFFFFFFFFFFFFFFFFFFFFFFFFFFFFFFF AND DUP2 MSTORE PUSH1 0x20 ADD SWAP1 DUP2 MSTORE PUSH1 0x20 ADD PUSH0 KECCAK256 PUSH0 SWAP1 SLOAD SWAP1 PUSH2 0x100 EXP SWAP1 DIV PUSH1 0xFF AND JUMPDEST PUSH2 0x448 JUMPI PUSH1 0x40 MLOAD PUSH32 0x8C379A000000000000000000000000000000000000000000000000000000000 DUP2 MSTORE PUSH1 0x4 ADD PUSH2 0x43F SWAP1 PUSH2 0x1296 JUMP JUMPDEST PUSH1 0x40 MLOAD DUP1 SWAP2 SUB SWAP1 REVERT JUMPDEST DUP3 PUSH1 0x8 PUSH0 DUP5 DUP2 MSTORE PUSH1 0x20 ADD SWAP1 DUP2 MSTORE PUSH1 0x20 ADD PUSH0 KECCAK256 PUSH0 PUSH2 0x100 EXP DUP2 SLOAD DUP2 PUSH20 0xFFFFFFFFFFFFFFFFFFFFFFFFFFFFFFFFFFFFFFFF MUL NOT AND SWAP1 DUP4 PUSH20 0xFFFFFFFFFFFFFFFFFFFFFFFFFFFFFFFFFFFFFFFF AND MUL OR SWAP1 SSTORE POP DUP2 DUP4 PUSH20 0xFFFFFFFFFFFFFFFFFFFFFFFFFFFFFFFFFFFFFFFF AND DUP3 PUSH20 0xFFFFFFFFFFFFFFFFFFFFFFFFFFFFFFFFFFFFFFFF AND PUSH32 0x8C5BE1E5EBEC7D5BD14F71427D1E84F3DD0314C0F7B2291E5B200AC8C7C3B925 PUSH1 0x40 MLOAD PUSH1 0x40 MLOAD DUP1 SWAP2 SUB SWAP1 LOG4 POP POP POP JUMP JUMPDEST PUSH1 0x2 SLOAD DUP2 JUMP JUMPDEST PUSH1 0x5 PUSH0 DUP3 DUP2 MSTORE PUSH1 0x20 ADD SWAP1 DUP2 MSTORE PUSH1 0x20 ADD PUSH0 KECCAK256 PUSH0 SWAP1 SLOAD SWAP1 PUSH2 0x100 EXP SWAP1 DIV PUSH20 0xFFFFFFFFFFFFFFFFFFFFFFFFFFFFFFFFFFFFFFFF AND PUSH20 0xFFFFFFFFFFFFFFFFFFFFFFFFFFFFFFFFFFFFFFFF AND DUP4 PUSH20 0xFFFFFFFFFFFFFFFFFFFFFFFFFFFFFFFFFFFFFFFF AND EQ PUSH2 0x59B JUMPI PUSH1 0x40 MLOAD PUSH32 0x8C379A000000000000000000000000000000000000000000000000000000000 DUP2 MSTORE PUSH1 0x4 ADD PUSH2 0x592 SWAP1 PUSH2 0x12FE JUMP JUMPDEST PUSH1 0x40 MLOAD DUP1 SWAP2 SUB SWAP1 REVERT JUMPDEST PUSH0 PUSH20 0xFFFFFFFFFFFFFFFFFFFFFFFFFFFFFFFFFFFFFFFF AND DUP3 PUSH20 0xFFFFFFFFFFFFFFFFFFFFFFFFFFFFFFFFFFFFFFFF AND SUB PUSH2 0x609 JUMPI PUSH1 0x40 MLOAD PUSH32 0x8C379A000000000000000000000000000000000000000000000000000000000 DUP2 MSTORE PUSH1 0x4 ADD PUSH2 0x600 SWAP1 PUSH2 0x1366 JUMP JUMPDEST PUSH1 0x40 MLOAD DUP1 SWAP2 SUB SWAP1 REVERT JUMPDEST PUSH2 0x614 DUP4 CALLER DUP4 PUSH2 0xB70 JUMP JUMPDEST PUSH2 0x653 JUMPI PUSH1 0x40 MLOAD PUSH32 0x8C379A000000000000000000000000000000000000000000000000000000000 DUP2 MSTORE PUSH1 0x4 ADD PUSH2 0x64A SWAP1 PUSH2 0x1296 JUMP JUMPDEST PUSH1 0x40 MLOAD DUP1 SWAP2 SUB SWAP1 REVERT JUMPDEST PUSH1 0x7 PUSH0 DUP5 PUSH20 0xFFFFFFFFFFFFFFFFFFFFFFFFFFFFFFFFFFFFFFFF AND PUSH20 0xFFFFFFFFFFFFFFFFFFFFFFFFFFFFFFFFFFFFFFFF AND DUP2 MSTORE PUSH1 0x20 ADD SWAP1 DUP2 MSTORE PUSH1 0x20 ADD PUSH0 KECCAK256 PUSH0 DUP2 SLOAD DUP1 SWAP3 SWAP2 SWAP1 PUSH2 0x6A0 SWAP1 PUSH2 0x13B1 JUMP JUMPDEST SWAP2 SWAP1 POP SSTORE POP PUSH1 0x7 PUSH0 DUP4 PUSH20 0xFFFFFFFFFFFFFFFFFFFFFFFFFFFFFFFFFFFFFFFF AND PUSH20 0xFFFFFFFFFFFFFFFFFFFFFFFFFFFFFFFFFFFFFFFF AND DUP2 MSTORE PUSH1 0x20 ADD SWAP1 DUP2 MSTORE PUSH1 0x20 ADD PUSH0 KECCAK256 PUSH0 DUP2 SLOAD DUP1 SWAP3 SWAP2 SWAP1 PUSH2 0x6F2 SWAP1 PUSH2 0x13D8 JUMP JUMPDEST SWAP2 SWAP1 POP SSTORE POP DUP2 PUSH1 0x5 PUSH0 DUP4 DUP2 MSTORE PUSH1 0x20 ADD SWAP1 DUP2 MSTORE PUSH1 0x20 ADD PUSH0 KECCAK256 PUSH0 PUSH2 0x100 EXP DUP2 SLOAD DUP2 PUSH20 0xFFFFFFFFFFFFFFFFFFFFFFFFFFFFFFFFFFFFFFFF MUL NOT AND SWAP1 DUP4 PUSH20 0xFFFFFFFFFFFFFFFFFFFFFFFFFFFFFFFFFFFFFFFF AND MUL OR SWAP1 SSTORE POP PUSH1 0x8 PUSH0 DUP3 DUP2 MSTORE PUSH1 0x20 ADD SWAP1 DUP2 MSTORE PUSH1 0x20 ADD PUSH0 KECCAK256 PUSH0 PUSH2 0x100 EXP DUP2 SLOAD SWAP1 PUSH20 0xFFFFFFFFFFFFFFFFFFFFFFFFFFFFFFFFFFFFFFFF MUL NOT AND SWAP1 SSTORE DUP1 DUP3 PUSH20 0xFFFFFFFFFFFFFFFFFFFFFFFFFFFFFFFFFFFFFFFF AND DUP5 PUSH20 0xFFFFFFFFFFFFFFFFFFFFFFFFFFFFFFFFFFFFFFFF AND PUSH32 0xDDF252AD1BE2C89B69C2B068FC378DAA952BA7F163C4A11628F55A4DF523B3EF PUSH1 0x40 MLOAD PUSH1 0x40 MLOAD DUP1 SWAP2 SUB SWAP1 LOG4 POP POP POP JUMP JUMPDEST PUSH0 PUSH1 0x5 PUSH0 DUP4 DUP2 MSTORE PUSH1 0x20 ADD SWAP1 DUP2 MSTORE PUSH1 0x20 ADD PUSH0 KECCAK256 PUSH0 SWAP1 SLOAD SWAP1 PUSH2 0x100 EXP SWAP1 DIV PUSH20 0xFFFFFFFFFFFFFFFFFFFFFFFFFFFFFFFFFFFFFFFF AND SWAP1 POP PUSH0 PUSH20 0xFFFFFFFFFFFFFFFFFFFFFFFFFFFFFFFFFFFFFFFF AND DUP2 PUSH20 0xFFFFFFFFFFFFFFFFFFFFFFFFFFFFFFFFFFFFFFFF AND SUB PUSH2 0x87B JUMPI PUSH1 0x40 MLOAD PUSH32 0x8C379A000000000000000000000000000000000000000000000000000000000 DUP2 MSTORE PUSH1 0x4 ADD PUSH2 0x872 SWAP1 PUSH2 0x1469 JUMP JUMPDEST PUSH1 0x40 MLOAD DUP1 SWAP2 SUB SWAP1 REVERT JUMPDEST SWAP2 SWAP1 POP JUMP JUMPDEST PUSH0 PUSH1 0x4 PUSH0 DUP2 SLOAD DUP1 SWAP3 SWAP2 SWAP1 PUSH2 0x893 SWAP1 PUSH2 0x13D8 JUMP JUMPDEST SWAP2 SWAP1 POP SSTORE SWAP1 POP PUSH2 0x8A3 DUP3 DUP3 PUSH2 0xC9B JUMP JUMPDEST PUSH1 0x6 PUSH0 DUP4 PUSH20 0xFFFFFFFFFFFFFFFFFFFFFFFFFFFFFFFFFFFFFFFF AND PUSH20 0xFFFFFFFFFFFFFFFFFFFFFFFFFFFFFFFFFFFFFFFF AND DUP2 MSTORE PUSH1 0x20 ADD SWAP1 DUP2 MSTORE PUSH1 0x20 ADD PUSH0 KECCAK256 DUP2 SWAP1 DUP1 PUSH1 0x1 DUP2 SLOAD ADD DUP1 DUP3 SSTORE DUP1 SWAP2 POP POP PUSH1 0x1 SWAP1 SUB SWAP1 PUSH0 MSTORE PUSH1 0x20 PUSH0 KECCAK256 ADD PUSH0 SWAP1 SWAP2 SWAP1 SWAP2 SWAP1 SWAP2 POP SSTORE POP POP JUMP JUMPDEST PUSH0 DUP1 PUSH20 0xFFFFFFFFFFFFFFFFFFFFFFFFFFFFFFFFFFFFFFFF AND DUP3 PUSH20 0xFFFFFFFFFFFFFFFFFFFFFFFFFFFFFFFFFFFFFFFF AND SUB PUSH2 0x977 JUMPI PUSH1 0x40 MLOAD PUSH32 0x8C379A000000000000000000000000000000000000000000000000000000000 DUP2 MSTORE PUSH1 0x4 ADD PUSH2 0x96E SWAP1 PUSH2 0x14D1 JUMP JUMPDEST PUSH1 0x40 MLOAD DUP1 SWAP2 SUB SWAP1 REVERT JUMPDEST PUSH1 0x7 PUSH0 DUP4 PUSH20 0xFFFFFFFFFFFFFFFFFFFFFFFFFFFFFFFFFFFFFFFF AND PUSH20 0xFFFFFFFFFFFFFFFFFFFFFFFFFFFFFFFFFFFFFFFF AND DUP2 MSTORE PUSH1 0x20 ADD SWAP1 DUP2 MSTORE PUSH1 0x20 ADD PUSH0 KECCAK256 SLOAD SWAP1 POP SWAP2 SWAP1 POP JUMP JUMPDEST PUSH1 0x3 SLOAD DUP2 JUMP JUMPDEST PUSH1 0x1 DUP1 SLOAD PUSH2 0x9CF SWAP1 PUSH2 0x121C JUMP JUMPDEST DUP1 PUSH1 0x1F ADD PUSH1 0x20 DUP1 SWAP2 DIV MUL PUSH1 0x20 ADD PUSH1 0x40 MLOAD SWAP1 DUP2 ADD PUSH1 0x40 MSTORE DUP1 SWAP3 SWAP2 SWAP1 DUP2 DUP2 MSTORE PUSH1 0x20 ADD DUP3 DUP1 SLOAD PUSH2 0x9FB SWAP1 PUSH2 0x121C JUMP JUMPDEST DUP1 ISZERO PUSH2 0xA46 JUMPI DUP1 PUSH1 0x1F LT PUSH2 0xA1D JUMPI PUSH2 0x100 DUP1 DUP4 SLOAD DIV MUL DUP4 MSTORE SWAP2 PUSH1 0x20 ADD SWAP2 PUSH2 0xA46 JUMP JUMPDEST DUP3 ADD SWAP2 SWAP1 PUSH0 MSTORE PUSH1 0x20 PUSH0 KECCAK256 SWAP1 JUMPDEST DUP2 SLOAD DUP2 MSTORE SWAP1 PUSH1 0x1 ADD SWAP1 PUSH1 0x20 ADD DUP1 DUP4 GT PUSH2 0xA29 JUMPI DUP3 SWAP1 SUB PUSH1 0x1F AND DUP3 ADD SWAP2 JUMPDEST POP POP POP POP POP DUP2 JUMP JUMPDEST DUP1 PUSH1 0x9 PUSH0 CALLER PUSH20 0xFFFFFFFFFFFFFFFFFFFFFFFFFFFFFFFFFFFFFFFF AND PUSH20 0xFFFFFFFFFFFFFFFFFFFFFFFFFFFFFFFFFFFFFFFF AND DUP2 MSTORE PUSH1 0x20 ADD SWAP1 DUP2 MSTORE PUSH1 0x20 ADD PUSH0 KECCAK256 PUSH0 DUP5 PUSH20 0xFFFFFFFFFFFFFFFFFFFFFFFFFFFFFFFFFFFFFFFF AND PUSH20 0xFFFFFFFFFFFFFFFFFFFFFFFFFFFFFFFFFFFFFFFF AND DUP2 MSTORE PUSH1 0x20 ADD SWAP1 DUP2 MSTORE PUSH1 0x20 ADD PUSH0 KECCAK256 PUSH0 PUSH2 0x100 EXP DUP2 SLOAD DUP2 PUSH1 0xFF MUL NOT AND SWAP1 DUP4 ISZERO ISZERO MUL OR SWAP1 SSTORE POP DUP2 PUSH20 0xFFFFFFFFFFFFFFFFFFFFFFFFFFFFFFFFFFFFFFFF AND CALLER PUSH20 0xFFFFFFFFFFFFFFFFFFFFFFFFFFFFFFFFFFFFFFFF AND PUSH32 0x17307EAB39AB6107E8899845AD3D59BD9653F200F220920489CA2B5937696C31 DUP4 PUSH1 0x40 MLOAD PUSH2 0xB3A SWAP2 SWAP1 PUSH2 0x11D6 JUMP JUMPDEST PUSH1 0x40 MLOAD DUP1 SWAP2 SUB SWAP1 LOG3 POP POP JUMP JUMPDEST PUSH1 0x9 PUSH1 0x20 MSTORE DUP2 PUSH0 MSTORE PUSH1 0x40 PUSH0 KECCAK256 PUSH1 0x20 MSTORE DUP1 PUSH0 MSTORE PUSH1 0x40 PUSH0 KECCAK256 PUSH0 SWAP2 POP SWAP2 POP SWAP1 SLOAD SWAP1 PUSH2 0x100 EXP SWAP1 DIV PUSH1 0xFF AND DUP2 JUMP JUMPDEST PUSH0 DUP4 PUSH20 0xFFFFFFFFFFFFFFFFFFFFFFFFFFFFFFFFFFFFFFFF AND DUP4 PUSH20 0xFFFFFFFFFFFFFFFFFFFFFFFFFFFFFFFFFFFFFFFF AND EQ DUP1 PUSH2 0xC2C JUMPI POP PUSH1 0x9 PUSH0 DUP6 PUSH20 0xFFFFFFFFFFFFFFFFFFFFFFFFFFFFFFFFFFFFFFFF AND PUSH20 0xFFFFFFFFFFFFFFFFFFFFFFFFFFFFFFFFFFFFFFFF AND DUP2 MSTORE PUSH1 0x20 ADD SWAP1 DUP2 MSTORE PUSH1 0x20 ADD PUSH0 KECCAK256 PUSH0 DUP5 PUSH20 0xFFFFFFFFFFFFFFFFFFFFFFFFFFFFFFFFFFFFFFFF AND PUSH20 0xFFFFFFFFFFFFFFFFFFFFFFFFFFFFFFFFFFFFFFFF AND DUP2 MSTORE PUSH1 0x20 ADD SWAP1 DUP2 MSTORE PUSH1 0x20 ADD PUSH0 KECCAK256 PUSH0 SWAP1 SLOAD SWAP1 PUSH2 0x100 EXP SWAP1 DIV PUSH1 0xFF AND JUMPDEST DUP1 PUSH2 0xC92 JUMPI POP PUSH1 0x8 PUSH0 DUP4 DUP2 MSTORE PUSH1 0x20 ADD SWAP1 DUP2 MSTORE PUSH1 0x20 ADD PUSH0 KECCAK256 PUSH0 SWAP1 SLOAD SWAP1 PUSH2 0x100 EXP SWAP1 DIV PUSH20 0xFFFFFFFFFFFFFFFFFFFFFFFFFFFFFFFFFFFFFFFF AND PUSH20 0xFFFFFFFFFFFFFFFFFFFFFFFFFFFFFFFFFFFFFFFF AND DUP4 PUSH20 0xFFFFFFFFFFFFFFFFFFFFFFFFFFFFFFFFFFFFFFFF AND EQ JUMPDEST SWAP1 POP SWAP4 SWAP3 POP POP POP JUMP JUMPDEST PUSH0 PUSH20 0xFFFFFFFFFFFFFFFFFFFFFFFFFFFFFFFFFFFFFFFF AND DUP3 PUSH20 0xFFFFFFFFFFFFFFFFFFFFFFFFFFFFFFFFFFFFFFFF AND SUB PUSH2 0xD09 JUMPI PUSH1 0x40 MLOAD PUSH32 0x8C379A000000000000000000000000000000000000000000000000000000000 DUP2 MSTORE PUSH1 0x4 ADD PUSH2 0xD00 SWAP1 PUSH2 0x1539 JUMP JUMPDEST PUSH1 0x40 MLOAD DUP1 SWAP2 SUB SWAP1 REVERT JUMPDEST PUSH0 PUSH20 0xFFFFFFFFFFFFFFFFFFFFFFFFFFFFFFFFFFFFFFFF AND PUSH1 0x5 PUSH0 DUP4 DUP2 MSTORE PUSH1 0x20 ADD SWAP1 DUP2 MSTORE PUSH1 0x20 ADD PUSH0 KECCAK256 PUSH0 SWAP1 SLOAD SWAP1 PUSH2 0x100 EXP SWAP1 DIV PUSH20 0xFFFFFFFFFFFFFFFFFFFFFFFFFFFFFFFFFFFFFFFF AND PUSH20 0xFFFFFFFFFFFFFFFFFFFFFFFFFFFFFFFFFFFFFFFF AND EQ PUSH2 0xDA7 JUMPI PUSH1 0x40 MLOAD PUSH32 0x8C379A000000000000000000000000000000000000000000000000000000000 DUP2 MSTORE PUSH1 0x4 ADD PUSH2 0xD9E SWAP1 PUSH2 0x15A1 JUMP JUMPDEST PUSH1 0x40 MLOAD DUP1 SWAP2 SUB SWAP1 REVERT JUMPDEST PUSH1 0x7 PUSH0 DUP4 PUSH20 0xFFFFFFFFFFFFFFFFFFFFFFFFFFFFFFFFFFFFFFFF AND PUSH20 0xFFFFFFFFFFFFFFFFFFFFFFFFFFFFFFFFFFFFFFFF AND DUP2 MSTORE PUSH1 0x20 ADD SWAP1 DUP2 MSTORE PUSH1 0x20 ADD PUSH0 KECCAK256 PUSH0 DUP2 SLOAD DUP1 SWAP3 SWAP2 SWAP1 PUSH2 0xDF4 SWAP1 PUSH2 0x13D8 JUMP JUMPDEST SWAP2 SWAP1 POP SSTORE POP DUP2 PUSH1 0x5 PUSH0 DUP4 DUP2 MSTORE PUSH1 0x20 ADD SWAP1 DUP2 MSTORE PUSH1 0x20 ADD PUSH0 KECCAK256 PUSH0 PUSH2 0x100 EXP DUP2 SLOAD DUP2 PUSH20 0xFFFFFFFFFFFFFFFFFFFFFFFFFFFFFFFFFFFFFFFF MUL NOT AND SWAP1 DUP4 PUSH20 0xFFFFFFFFFFFFFFFFFFFFFFFFFFFFFFFFFFFFFFFF AND MUL OR SWAP1 SSTORE POP DUP1 DUP3 PUSH20 0xFFFFFFFFFFFFFFFFFFFFFFFFFFFFFFFFFFFFFFFF AND PUSH0 PUSH20 0xFFFFFFFFFFFFFFFFFFFFFFFFFFFFFFFFFFFFFFFF AND PUSH32 0xDDF252AD1BE2C89B69C2B068FC378DAA952BA7F163C4A11628F55A4DF523B3EF PUSH1 0x40 MLOAD PUSH1 0x40 MLOAD DUP1 SWAP2 SUB SWAP1 LOG4 POP POP JUMP JUMPDEST PUSH0 DUP2 MLOAD SWAP1 POP SWAP2 SWAP1 POP JUMP JUMPDEST PUSH0 DUP3 DUP3 MSTORE PUSH1 0x20 DUP3 ADD SWAP1 POP SWAP3 SWAP2 POP POP JUMP JUMPDEST PUSH0 JUMPDEST DUP4 DUP2 LT ISZERO PUSH2 0xEDE JUMPI DUP1 DUP3 ADD MLOAD DUP2 DUP5 ADD MSTORE PUSH1 0x20 DUP2 ADD SWAP1 POP PUSH2 0xEC3 JUMP JUMPDEST PUSH0 DUP5 DUP5 ADD MSTORE POP POP POP POP JUMP JUMPDEST PUSH0 PUSH1 0x1F NOT PUSH1 0x1F DUP4 ADD AND SWAP1 POP SWAP2 SWAP1 POP JUMP JUMPDEST PUSH0 PUSH2 0xF03 DUP3 PUSH2 0xEA7 JUMP JUMPDEST PUSH2 0xF0D DUP2 DUP6 PUSH2 0xEB1 JUMP JUMPDEST SWAP4 POP PUSH2 0xF1D DUP2 DUP6 PUSH1 0x20 DUP7 ADD PUSH2 0xEC1 JUMP JUMPDEST PUSH2 0xF26 DUP2 PUSH2 0xEE9 JUMP JUMPDEST DUP5 ADD SWAP2 POP POP SWAP3 SWAP2 POP POP JUMP JUMPDEST PUSH0 PUSH1 0x20 DUP3 ADD SWAP1 POP DUP2 DUP2 SUB PUSH0 DUP4 ADD MSTORE PUSH2 0xF49 DUP2 DUP5 PUSH2 0xEF9 JUMP JUMPDEST SWAP1 POP SWAP3 SWAP2 POP POP JUMP JUMPDEST PUSH0 DUP1 REVERT JUMPDEST PUSH0 PUSH20 0xFFFFFFFFFFFFFFFFFFFFFFFFFFFFFFFFFFFFFFFF DUP3 AND SWAP1 POP SWAP2 SWAP1 POP JUMP JUMPDEST PUSH0 PUSH2 0xF7E DUP3 PUSH2 0xF55 JUMP JUMPDEST SWAP1 POP SWAP2 SWAP1 POP JUMP JUMPDEST PUSH2 0xF8E DUP2 PUSH2 0xF74 JUMP JUMPDEST DUP2 EQ PUSH2 0xF98 JUMPI PUSH0 DUP1 REVERT JUMPDEST POP JUMP JUMPDEST PUSH0 DUP2 CALLDATALOAD SWAP1 POP PUSH2 0xFA9 DUP2 PUSH2 0xF85 JUMP JUMPDEST SWAP3 SWAP2 POP POP JUMP JUMPDEST PUSH0 DUP2 SWAP1 POP SWAP2 SWAP1 POP JUMP JUMPDEST PUSH2 0xFC1 DUP2 PUSH2 0xFAF JUMP JUMPDEST DUP2 EQ PUSH2 0xFCB JUMPI PUSH0 DUP1 REVERT JUMPDEST POP JUMP JUMPDEST PUSH0 DUP2 CALLDATALOAD SWAP1 POP PUSH2 0xFDC DUP2 PUSH2 0xFB8 JUMP JUMPDEST SWAP3 SWAP2 POP POP JUMP JUMPDEST PUSH0 DUP1 PUSH1 0x40 DUP4 DUP6 SUB SLT ISZERO PUSH2 0xFF8 JUMPI PUSH2 0xFF7 PUSH2 0xF51 JUMP JUMPDEST JUMPDEST PUSH0 PUSH2 0x1005 DUP6 DUP3 DUP7 ADD PUSH2 0xF9B JUMP JUMPDEST SWAP3 POP POP PUSH1 0x20 PUSH2 0x1016 DUP6 DUP3 DUP7 ADD PUSH2 0xFCE JUMP JUMPDEST SWAP2 POP POP SWAP3 POP SWAP3 SWAP1 POP JUMP JUMPDEST PUSH2 0x1029 DUP2 PUSH2 0xFAF JUMP JUMPDEST DUP3 MSTORE POP POP JUMP JUMPDEST PUSH0 PUSH1 0x20 DUP3 ADD SWAP1 POP PUSH2 0x1042 PUSH0 DUP4 ADD DUP5 PUSH2 0x1020 JUMP JUMPDEST SWAP3 SWAP2 POP POP JUMP JUMPDEST PUSH0 DUP1 PUSH0 PUSH1 0x60 DUP5 DUP7 SUB SLT ISZERO PUSH2 0x105F JUMPI PUSH2 0x105E PUSH2 0xF51 JUMP JUMPDEST JUMPDEST PUSH0 PUSH2 0x106C DUP7 DUP3 DUP8 ADD PUSH2 0xF9B JUMP JUMPDEST SWAP4 POP POP PUSH1 0x20 PUSH2 0x107D DUP7 DUP3 DUP8 ADD PUSH2 0xF9B JUMP JUMPDEST SWAP3 POP POP PUSH1 0x40 PUSH2 0x108E DUP7 DUP3 DUP8 ADD PUSH2 0xFCE JUMP JUMPDEST SWAP2 POP POP SWAP3 POP SWAP3 POP SWAP3 JUMP JUMPDEST PUSH0 PUSH1 0x20 DUP3 DUP5 SUB SLT ISZERO PUSH2 0x10AD JUMPI PUSH2 0x10AC PUSH2 0xF51 JUMP JUMPDEST JUMPDEST PUSH0 PUSH2 0x10BA DUP5 DUP3 DUP6 ADD PUSH2 0xFCE JUMP JUMPDEST SWAP2 POP POP SWAP3 SWAP2 POP POP JUMP JUMPDEST PUSH2 0x10CC DUP2 PUSH2 0xF74 JUMP JUMPDEST DUP3 MSTORE POP POP JUMP JUMPDEST PUSH0 PUSH1 0x20 DUP3 ADD SWAP1 POP PUSH2 0x10E5 PUSH0 DUP4 ADD DUP5 PUSH2 0x10C3 JUMP JUMPDEST SWAP3 SWAP2 POP POP JUMP JUMPDEST PUSH0 PUSH1 0x20 DUP3 DUP5 SUB SLT ISZERO PUSH2 0x1100 JUMPI PUSH2 0x10FF PUSH2 0xF51 JUMP JUMPDEST JUMPDEST PUSH0 PUSH2 0x110D DUP5 DUP3 DUP6 ADD PUSH2 0xF9B JUMP JUMPDEST SWAP2 POP POP SWAP3 SWAP2 POP POP JUMP JUMPDEST PUSH0 DUP2 ISZERO ISZERO SWAP1 POP SWAP2 SWAP1 POP JUMP JUMPDEST PUSH2 0x112A DUP2 PUSH2 0x1116 JUMP JUMPDEST DUP2 EQ PUSH2 0x1134 JUMPI PUSH0 DUP1 REVERT JUMPDEST POP JUMP JUMPDEST PUSH0 DUP2 CALLDATALOAD SWAP1 POP PUSH2 0x1145 DUP2 PUSH2 0x1121 JUMP JUMPDEST SWAP3 SWAP2 POP POP JUMP JUMPDEST PUSH0 DUP1 PUSH1 0x40 DUP4 DUP6 SUB SLT ISZERO PUSH2 0x1161 JUMPI PUSH2 0x1160 PUSH2 0xF51 JUMP JUMPDEST JUMPDEST PUSH0 PUSH2 0x116E DUP6 DUP3 DUP7 ADD PUSH2 0xF9B JUMP JUMPDEST SWAP3 POP POP PUSH1 0x20 PUSH2 0x117F DUP6 DUP3 DUP7 ADD PUSH2 0x1137 JUMP JUMPDEST SWAP2 POP POP SWAP3 POP SWAP3 SWAP1 POP JUMP JUMPDEST PUSH0 DUP1 PUSH1 0x40 DUP4 DUP6 SUB SLT ISZERO PUSH2 0x119F JUMPI PUSH2 0x119E PUSH2 0xF51 JUMP JUMPDEST JUMPDEST PUSH0 PUSH2 0x11AC DUP6 DUP3 DUP7 ADD PUSH2 0xF9B JUMP JUMPDEST SWAP3 POP POP PUSH1 0x20 PUSH2 0x11BD DUP6 DUP3 DUP7 ADD PUSH2 0xF9B JUMP JUMPDEST SWAP2 POP POP SWAP3 POP SWAP3 SWAP1 POP JUMP JUMPDEST PUSH2 0x11D0 DUP2 PUSH2 0x1116 JUMP JUMPDEST DUP3 MSTORE POP POP JUMP JUMPDEST PUSH0 PUSH1 0x20 DUP3 ADD SWAP1 POP PUSH2 0x11E9 PUSH0 DUP4 ADD DUP5 PUSH2 0x11C7 JUMP JUMPDEST SWAP3 SWAP2 POP POP JUMP JUMPDEST PUSH32 0x4E487B7100000000000000000000000000000000000000000000000000000000 PUSH0 MSTORE PUSH1 0x22 PUSH1 0x4 MSTORE PUSH1 0x24 PUSH0 REVERT JUMPDEST PUSH0 PUSH1 0x2 DUP3 DIV SWAP1 POP PUSH1 0x1 DUP3 AND DUP1 PUSH2 0x1233 JUMPI PUSH1 0x7F DUP3 AND SWAP2 POP JUMPDEST PUSH1 0x20 DUP3 LT DUP2 SUB PUSH2 0x1246 JUMPI PUSH2 0x1245 PUSH2 0x11EF JUMP JUMPDEST JUMPDEST POP SWAP2 SWAP1 POP JUMP JUMPDEST PUSH32 0x6E6F7420617574686F72697A6564000000000000000000000000000000000000 PUSH0 DUP3 ADD MSTORE POP JUMP JUMPDEST PUSH0 PUSH2 0x1280 PUSH1 0xE DUP4 PUSH2 0xEB1 JUMP JUMPDEST SWAP2 POP PUSH2 0x128B DUP3 PUSH2 0x124C JUMP JUMPDEST PUSH1 0x20 DUP3 ADD SWAP1 POP SWAP2 SWAP1 POP JUMP JUMPDEST PUSH0 PUSH1 0x20 DUP3 ADD SWAP1 POP DUP2 DUP2 SUB PUSH0 DUP4 ADD MSTORE PUSH2 0x12AD DUP2 PUSH2 0x1274 JUMP JUMPDEST SWAP1 POP SWAP2 SWAP1 POP JUMP JUMPDEST PUSH32 0x66726F6D20213D206F776E657200000000000000000000000000000000000000 PUSH0 DUP3 ADD MSTORE POP JUMP JUMPDEST PUSH0 PUSH2 0x12E8 PUSH1 0xD DUP4 PUSH2 0xEB1 JUMP JUMPDEST SWAP2 POP PUSH2 0x12F3 DUP3 PUSH2 0x12B4 JUMP JUMPDEST PUSH1 0x20 DUP3 ADD SWAP1 POP SWAP2 SWAP1 POP JUMP JUMPDEST PUSH0 PUSH1 0x20 DUP3 ADD SWAP1 POP DUP2 DUP2 SUB PUSH0 DUP4 ADD MSTORE PUSH2 0x1315 DUP2 PUSH2 0x12DC JUMP JUMPDEST SWAP1 POP SWAP2 SWAP1 POP JUMP JUMPDEST PUSH32 0x7472616E7366657220746F207A65726F20616464726573730000000000000000 PUSH0 DUP3 ADD MSTORE POP JUMP JUMPDEST PUSH0 PUSH2 0x1350 PUSH1 0x18 DUP4 PUSH2 0xEB1 JUMP JUMPDEST SWAP2 POP PUSH2 0x135B DUP3 PUSH2 0x131C JUMP JUMPDEST PUSH1 0x20 DUP3 ADD SWAP1 POP SWAP2 SWAP1 POP JUMP JUMPDEST PUSH0 PUSH1 0x20 DUP3 ADD SWAP1 POP DUP2 DUP2 SUB PUSH0 DUP4 ADD MSTORE PUSH2 0x137D DUP2 PUSH2 0x1344 JUMP JUMPDEST SWAP1 POP SWAP2 SWAP1 POP JUMP JUMPDEST PUSH32 0x4E487B7100000000000000000000000000000000000000000000000000000000 PUSH0 MSTORE PUSH1 0x11 PUSH1 0x4 MSTORE PUSH1 0x24 PUSH0 REVERT JUMPDEST PUSH0 PUSH2 0x13BB DUP3 PUSH2 0xFAF JUMP JUMPDEST SWAP2 POP PUSH0 DUP3 SUB PUSH2 0x13CD JUMPI PUSH2 0x13CC PUSH2 0x1384 JUMP JUMPDEST JUMPDEST PUSH1 0x1 DUP3 SUB SWAP1 POP SWAP2 SWAP1 POP JUMP JUMPDEST PUSH0 PUSH2 0x13E2 DUP3 PUSH2 0xFAF JUMP JUMPDEST SWAP2 POP PUSH32 0xFFFFFFFFFFFFFFFFFFFFFFFFFFFFFFFFFFFFFFFFFFFFFFFFFFFFFFFFFFFFFFFF DUP3 SUB PUSH2 0x1414 JUMPI PUSH2 0x1413 PUSH2 0x1384 JUMP JUMPDEST JUMPDEST PUSH1 0x1 DUP3 ADD SWAP1 POP SWAP2 SWAP1 POP JUMP JUMPDEST PUSH32 0x746F6B656E20646F65736E277420657869737400000000000000000000000000 PUSH0 DUP3 ADD MSTORE POP JUMP JUMPDEST PUSH0 PUSH2 0x1453 PUSH1 0x13 DUP4 PUSH2 0xEB1 JUMP JUMPDEST SWAP2 POP PUSH2 0x145E DUP3 PUSH2 0x141F JUMP JUMPDEST PUSH1 0x20 DUP3 ADD SWAP1 POP SWAP2 SWAP1 POP JUMP JUMPDEST PUSH0 PUSH1 0x20 DUP3 ADD SWAP1 POP DUP2 DUP2 SUB PUSH0 DUP4 ADD MSTORE PUSH2 0x1480 DUP2 PUSH2 0x1447 JUMP JUMPDEST SWAP1 POP SWAP2 SWAP1 POP JUMP JUMPDEST PUSH32 0x6F776E6572203D207A65726F2061646472657373000000000000000000000000 PUSH0 DUP3 ADD MSTORE POP JUMP JUMPDEST PUSH0 PUSH2 0x14BB PUSH1 0x14 DUP4 PUSH2 0xEB1 JUMP JUMPDEST SWAP2 POP PUSH2 0x14C6 DUP3 PUSH2 0x1487 JUMP JUMPDEST PUSH1 0x20 DUP3 ADD SWAP1 POP SWAP2 SWAP1 POP JUMP JUMPDEST PUSH0 PUSH1 0x20 DUP3 ADD SWAP1 POP DUP2 DUP2 SUB PUSH0 DUP4 ADD MSTORE PUSH2 0x14E8 DUP2 PUSH2 0x14AF JUMP JUMPDEST SWAP1 POP SWAP2 SWAP1 POP JUMP JUMPDEST PUSH32 0x6D696E7420746F207A65726F2061646472657373000000000000000000000000 PUSH0 DUP3 ADD MSTORE POP JUMP JUMPDEST PUSH0 PUSH2 0x1523 PUSH1 0x14 DUP4 PUSH2 0xEB1 JUMP JUMPDEST SWAP2 POP PUSH2 0x152E DUP3 PUSH2 0x14EF JUMP JUMPDEST PUSH1 0x20 DUP3 ADD SWAP1 POP SWAP2 SWAP1 POP JUMP JUMPDEST PUSH0 PUSH1 0x20 DUP3 ADD SWAP1 POP DUP2 DUP2 SUB PUSH0 DUP4 ADD MSTORE PUSH2 0x1550 DUP2 PUSH2 0x1517 JUMP JUMPDEST SWAP1 POP SWAP2 SWAP1 POP JUMP JUMPDEST PUSH32 0x616C7265616479206D696E746564000000000000000000000000000000000000 PUSH0 DUP3 ADD MSTORE POP JUMP JUMPDEST PUSH0 PUSH2 0x158B PUSH1 0xE DUP4 PUSH2 0xEB1 JUMP JUMPDEST SWAP2 POP PUSH2 0x1596 DUP3 PUSH2 0x1557 JUMP JUMPDEST PUSH1 0x20 DUP3 ADD SWAP1 POP SWAP2 SWAP1 POP JUMP JUMPDEST PUSH0 PUSH1 0x20 DUP3 ADD SWAP1 POP DUP2 DUP2 SUB PUSH0 DUP4 ADD MSTORE PUSH2 0x15B8 DUP2 PUSH2 0x157F JUMP JUMPDEST SWAP1 POP SWAP2 SWAP1 POP JUMP INVALID LOG2 PUSH5 0x6970667358 0x22 SLT KECCAK256 SWAP8 PUSH3 0xD2FFA 0xE2 0xBD SDIV ADDMOD SAR 0xCF 0xD0 ORIGIN DUP12 0xBA LT 0xB5 SIGNEXTEND 0xEC 0x22 OR 0xE1 DUP10 0xC5 0xA6 PUSH13 0xDB39D2B37EC364736F6C634300 ADDMOD EQ STOP CALLER "
				},
				"gasEstimates": {
					"creation": {
						"codeDepositCost": "1124200",
						"executionCost": "infinite",
						"totalCost": "infinite"
					},
					"external": {
						"approve(address,uint256)": "31497",
						"balanceOf(address)": "2886",
						"isApprovedForAll(address,address)": "infinite",
						"max_supply()": "2469",
						"mint(address)": "infinite",
						"mint_price()": "2470",
						"name()": "infinite",
						"ownerOf(uint256)": "3027",
						"setApprovalForAll(address,bool)": "infinite",
						"symbol()": "infinite",
						"transferFrom(address,address,uint256)": "infinite"
					},
					"internal": {
						"_isApprovedOrOwner(address,address,uint256)": "4639",
						"_mint(address,uint256)": "infinite"
					}
				},
				"methodIdentifiers": {
					"approve(address,uint256)": "095ea7b3",
					"balanceOf(address)": "70a08231",
					"isApprovedForAll(address,address)": "e985e9c5",
					"max_supply()": "8a333b50",
					"mint(address)": "6a627842",
					"mint_price()": "1a4231a4",
					"name()": "06fdde03",
					"ownerOf(uint256)": "6352211e",
					"setApprovalForAll(address,bool)": "a22cb465",
					"symbol()": "95d89b41",
					"transferFrom(address,address,uint256)": "23b872dd"
				}
			},
			"storageLayout": {
				"storage": [
					{
						"astId": 101,
						"contract": "contracts/ERC721.sol:ERC721",
						"label": "name",
						"offset": 0,
						"slot": "0",
						"type": "t_string_storage"
					},
					{
						"astId": 103,
						"contract": "contracts/ERC721.sol:ERC721",
						"label": "symbol",
						"offset": 0,
						"slot": "1",
						"type": "t_string_storage"
					},
					{
						"astId": 105,
						"contract": "contracts/ERC721.sol:ERC721",
						"label": "mint_price",
						"offset": 0,
						"slot": "2",
						"type": "t_uint256"
					},
					{
						"astId": 107,
						"contract": "contracts/ERC721.sol:ERC721",
						"label": "max_supply",
						"offset": 0,
						"slot": "3",
						"type": "t_uint256"
					},
					{
						"astId": 109,
						"contract": "contracts/ERC721.sol:ERC721",
						"label": "_nextTokenId",
						"offset": 0,
						"slot": "4",
						"type": "t_uint256"
					},
					{
						"astId": 113,
						"contract": "contracts/ERC721.sol:ERC721",
						"label": "_ownerOf",
						"offset": 0,
						"slot": "5",
						"type": "t_mapping(t_uint256,t_address)"
					},
					{
						"astId": 118,
						"contract": "contracts/ERC721.sol:ERC721",
						"label": "tokenOwnerstoIds",
						"offset": 0,
						"slot": "6",
						"type": "t_mapping(t_address,t_array(t_uint256)dyn_storage)"
					},
					{
						"astId": 122,
						"contract": "contracts/ERC721.sol:ERC721",
						"label": "_balanceOf",
						"offset": 0,
						"slot": "7",
						"type": "t_mapping(t_address,t_uint256)"
					},
					{
						"astId": 126,
						"contract": "contracts/ERC721.sol:ERC721",
						"label": "_approvals",
						"offset": 0,
						"slot": "8",
						"type": "t_mapping(t_uint256,t_address)"
					},
					{
						"astId": 132,
						"contract": "contracts/ERC721.sol:ERC721",
						"label": "isApprovedForAll",
						"offset": 0,
						"slot": "9",
						"type": "t_mapping(t_address,t_mapping(t_address,t_bool))"
					}
				],
				"types": {
					"t_address": {
						"encoding": "inplace",
						"label": "address",
						"numberOfBytes": "20"
					},
					"t_array(t_uint256)dyn_storage": {
						"base": "t_uint256",
						"encoding": "dynamic_array",
						"label": "uint256[]",
						"numberOfBytes": "32"
					},
					"t_bool": {
						"encoding": "inplace",
						"label": "bool",
						"numberOfBytes": "1"
					},
					"t_mapping(t_address,t_array(t_uint256)dyn_storage)": {
						"encoding": "mapping",
						"key": "t_address",
						"label": "mapping(address => uint256[])",
						"numberOfBytes": "32",
						"value": "t_array(t_uint256)dyn_storage"
					},
					"t_mapping(t_address,t_bool)": {
						"encoding": "mapping",
						"key": "t_address",
						"label": "mapping(address => bool)",
						"numberOfBytes": "32",
						"value": "t_bool"
					},
					"t_mapping(t_address,t_mapping(t_address,t_bool))": {
						"encoding": "mapping",
						"key": "t_address",
						"label": "mapping(address => mapping(address => bool))",
						"numberOfBytes": "32",
						"value": "t_mapping(t_address,t_bool)"
					},
					"t_mapping(t_address,t_uint256)": {
						"encoding": "mapping",
						"key": "t_address",
						"label": "mapping(address => uint256)",
						"numberOfBytes": "32",
						"value": "t_uint256"
					},
					"t_mapping(t_uint256,t_address)": {
						"encoding": "mapping",
						"key": "t_uint256",
						"label": "mapping(uint256 => address)",
						"numberOfBytes": "32",
						"value": "t_address"
					},
					"t_string_storage": {
						"encoding": "bytes",
						"label": "string",
						"numberOfBytes": "32"
					},
					"t_uint256": {
						"encoding": "inplace",
						"label": "uint256",
						"numberOfBytes": "32"
					}
				}
			},
			"userdoc": {
				"kind": "user",
				"methods": {},
				"version": 1
			}
		}
	}
}